{"abi":[{"type":"constructor","inputs":[{"name":"_nexusRegistry","type":"address","internalType":"address"},{"name":"_stablecoin","type":"address","internalType":"address"}],"stateMutability":"nonpayable"},{"type":"function","name":"NEXUS_REGISTRY","inputs":[],"outputs":[{"name":"","type":"address","internalType":"contract INexusRegistry"}],"stateMutability":"view"},{"type":"function","name":"STABLECOIN","inputs":[],"outputs":[{"name":"","type":"address","internalType":"contract IMockUSDT"}],"stateMutability":"view"},{"type":"function","name":"createEscrow","inputs":[{"name":"beneficiary","type":"address","internalType":"address"},{"name":"amount","type":"uint256","internalType":"uint256"}],"outputs":[{"name":"escrowId","type":"uint256","internalType":"uint256"}],"stateMutability":"nonpayable"},{"type":"function","name":"escrows","inputs":[{"name":"","type":"uint256","internalType":"uint256"}],"outputs":[{"name":"depositor","type":"address","internalType":"address"},{"name":"beneficiary","type":"address","internalType":"address"},{"name":"amount","type":"uint256","internalType":"uint256"},{"name":"released","type":"bool","internalType":"bool"}],"stateMutability":"view"},{"type":"function","name":"getEscrow","inputs":[{"name":"escrowId","type":"uint256","internalType":"uint256"}],"outputs":[{"name":"depositor","type":"address","internalType":"address"},{"name":"beneficiary","type":"address","internalType":"address"},{"name":"amount","type":"uint256","internalType":"uint256"},{"name":"released","type":"bool","internalType":"bool"}],"stateMutability":"view"},{"type":"function","name":"nextEscrowId","inputs":[],"outputs":[{"name":"","type":"uint256","internalType":"uint256"}],"stateMutability":"view"},{"type":"function","name":"release","inputs":[{"name":"escrowId","type":"uint256","internalType":"uint256"}],"outputs":[],"stateMutability":"nonpayable"},{"type":"event","name":"EscrowCreated","inputs":[{"name":"escrowId","type":"uint256","indexed":true,"internalType":"uint256"},{"name":"depositor","type":"address","indexed":true,"internalType":"address"},{"name":"beneficiary","type":"address","indexed":true,"internalType":"address"},{"name":"amount","type":"uint256","indexed":false,"internalType":"uint256"}],"anonymous":false},{"type":"event","name":"EscrowReleased","inputs":[{"name":"escrowId","type":"uint256","indexed":true,"internalType":"uint256"},{"name":"beneficiary","type":"address","indexed":true,"internalType":"address"},{"name":"amount","type":"uint256","indexed":false,"internalType":"uint256"}],"anonymous":false},{"type":"error","name":"AlreadyReleased","inputs":[]},{"type":"error","name":"InsufficientAllowance","inputs":[]},{"type":"error","name":"InvalidEscrow","inputs":[]},{"type":"error","name":"NotDepositor","inputs":[]},{"type":"error","name":"NotRegistered","inputs":[]},{"type":"error","name":"TransferFailed","inputs":[]}],"bytecode":{"object":"0x60c060405234801561000f575f80fd5b5060405161105b38038061105b833981810160405281019061003191906100fe565b8173ffffffffffffffffffffffffffffffffffffffff1660808173ffffffffffffffffffffffffffffffffffffffff16815250508073ffffffffffffffffffffffffffffffffffffffff1660a08173ffffffffffffffffffffffffffffffffffffffff1681525050505061013c565b5f80fd5b5f73ffffffffffffffffffffffffffffffffffffffff82169050919050565b5f6100cd826100a4565b9050919050565b6100dd816100c3565b81146100e7575f80fd5b50565b5f815190506100f8816100d4565b92915050565b5f8060408385031215610114576101136100a0565b5b5f610121858286016100ea565b9250506020610132858286016100ea565b9150509250929050565b60805160a051610ee26101795f395f81816103d30152818161060e0152818161080e01526109db01525f818161054201526109ff0152610ee25ff3fe608060405234801561000f575f80fd5b506004361061007b575f3560e01c80634614874e116100595780634614874e146100ec5780637d19e5961461011c57806389cb29dd1461014f57806393a397761461016d5761007b565b8063012f52ee1461007f57806337bdc99b146100b25780633d558dd9146100ce575b5f80fd5b61009960048036038101906100949190610b04565b61018b565b6040516100a99493929190610b97565b60405180910390f35b6100cc60048036038101906100c79190610b04565b610200565b005b6100d6610540565b6040516100e39190610c35565b60405180910390f35b61010660048036038101906101019190610c78565b610564565b6040516101139190610cb6565b60405180910390f35b61013660048036038101906101319190610b04565b61094f565b6040516101469493929190610b97565b60405180910390f35b6101576109d3565b6040516101649190610cb6565b60405180910390f35b6101756109d9565b6040516101829190610cef565b60405180910390f35b5f602052805f5260405f205f91509050805f015f9054906101000a900473ffffffffffffffffffffffffffffffffffffffff1690806001015f9054906101000a900473ffffffffffffffffffffffffffffffffffffffff1690806002015490806003015f9054906101000a900460ff16905084565b6102086109fd565b5f805f8381526020019081526020015f2090506001548210610256576040517fc4c3834b00000000000000000000000000000000000000000000000000000000815260040160405180910390fd5b5f73ffffffffffffffffffffffffffffffffffffffff16815f015f9054906101000a900473ffffffffffffffffffffffffffffffffffffffff1673ffffffffffffffffffffffffffffffffffffffff16036102dd576040517fc4c3834b00000000000000000000000000000000000000000000000000000000815260040160405180910390fd5b806003015f9054906101000a900460ff1615610325576040517f63b4904e00000000000000000000000000000000000000000000000000000000815260040160405180910390fd5b805f015f9054906101000a900473ffffffffffffffffffffffffffffffffffffffff1673ffffffffffffffffffffffffffffffffffffffff163373ffffffffffffffffffffffffffffffffffffffff16146103ac576040517f3cc50b4500000000000000000000000000000000000000000000000000000000815260040160405180910390fd5b6001816003015f6101000a81548160ff0219169083151502179055505f816002015490505f7f000000000000000000000000000000000000000000000000000000000000000073ffffffffffffffffffffffffffffffffffffffff1663a9059cbb846001015f9054906101000a900473ffffffffffffffffffffffffffffffffffffffff16846040518363ffffffff1660e01b815260040161044f929190610d08565b6020604051808303815f875af115801561046b573d5f803e3d5ffd5b505050506040513d601f19601f8201168201806040525081019061048f9190610d59565b9050806104c8576040517f90b8ec1800000000000000000000000000000000000000000000000000000000815260040160405180910390fd5b826001015f9054906101000a900473ffffffffffffffffffffffffffffffffffffffff1673ffffffffffffffffffffffffffffffffffffffff16847f6244ed823ca6be0f11bc890c3fafcf3c29cb23420c14243642e930b5e07e6d0a846040516105329190610cb6565b60405180910390a350505050565b7f000000000000000000000000000000000000000000000000000000000000000081565b5f61056d6109fd565b5f73ffffffffffffffffffffffffffffffffffffffff168373ffffffffffffffffffffffffffffffffffffffff16036105d2576040517fc4c3834b00000000000000000000000000000000000000000000000000000000815260040160405180910390fd5b5f820361060b576040517fc4c3834b00000000000000000000000000000000000000000000000000000000815260040160405180910390fd5b817f000000000000000000000000000000000000000000000000000000000000000073ffffffffffffffffffffffffffffffffffffffff1663dd62ed3e33306040518363ffffffff1660e01b8152600401610667929190610d84565b602060405180830381865afa158015610682573d5f803e3d5ffd5b505050506040513d601f19601f820116820180604052508101906106a69190610dbf565b10156106de576040517f13be252b00000000000000000000000000000000000000000000000000000000815260040160405180910390fd5b60015f8154809291906106f090610e17565b91905055905060405180608001604052803373ffffffffffffffffffffffffffffffffffffffff1681526020018473ffffffffffffffffffffffffffffffffffffffff1681526020018381526020015f15158152505f808381526020019081526020015f205f820151815f015f6101000a81548173ffffffffffffffffffffffffffffffffffffffff021916908373ffffffffffffffffffffffffffffffffffffffff1602179055506020820151816001015f6101000a81548173ffffffffffffffffffffffffffffffffffffffff021916908373ffffffffffffffffffffffffffffffffffffffff160217905550604082015181600201556060820151816003015f6101000a81548160ff0219169083151502179055509050505f7f000000000000000000000000000000000000000000000000000000000000000073ffffffffffffffffffffffffffffffffffffffff166323b872dd3330866040518463ffffffff1660e01b815260040161086993929190610e5e565b6020604051808303815f875af1158015610885573d5f803e3d5ffd5b505050506040513d601f19601f820116820180604052508101906108a99190610d59565b9050806108e2576040517f90b8ec1800000000000000000000000000000000000000000000000000000000815260040160405180910390fd5b8373ffffffffffffffffffffffffffffffffffffffff163373ffffffffffffffffffffffffffffffffffffffff16837f9405ad0a6208539879349284d71265479b1623846f70303da1f9890d6e8c10a7866040516109409190610cb6565b60405180910390a45092915050565b5f805f805f805f8781526020019081526020015f209050805f015f9054906101000a900473ffffffffffffffffffffffffffffffffffffffff16816001015f9054906101000a900473ffffffffffffffffffffffffffffffffffffffff168260020154836003015f9054906101000a900460ff169450945094509450509193509193565b60015481565b7f000000000000000000000000000000000000000000000000000000000000000081565b7f000000000000000000000000000000000000000000000000000000000000000073ffffffffffffffffffffffffffffffffffffffff1663c3c5a547306040518263ffffffff1660e01b8152600401610a569190610e93565b602060405180830381865afa158015610a71573d5f803e3d5ffd5b505050506040513d601f19601f82011682018060405250810190610a959190610d59565b610acb576040517faba4733900000000000000000000000000000000000000000000000000000000815260040160405180910390fd5b565b5f80fd5b5f819050919050565b610ae381610ad1565b8114610aed575f80fd5b50565b5f81359050610afe81610ada565b92915050565b5f60208284031215610b1957610b18610acd565b5b5f610b2684828501610af0565b91505092915050565b5f73ffffffffffffffffffffffffffffffffffffffff82169050919050565b5f610b5882610b2f565b9050919050565b610b6881610b4e565b82525050565b610b7781610ad1565b82525050565b5f8115159050919050565b610b9181610b7d565b82525050565b5f608082019050610baa5f830187610b5f565b610bb76020830186610b5f565b610bc46040830185610b6e565b610bd16060830184610b88565b95945050505050565b5f819050919050565b5f610bfd610bf8610bf384610b2f565b610bda565b610b2f565b9050919050565b5f610c0e82610be3565b9050919050565b5f610c1f82610c04565b9050919050565b610c2f81610c15565b82525050565b5f602082019050610c485f830184610c26565b92915050565b610c5781610b4e565b8114610c61575f80fd5b50565b5f81359050610c7281610c4e565b92915050565b5f8060408385031215610c8e57610c8d610acd565b5b5f610c9b85828601610c64565b9250506020610cac85828601610af0565b9150509250929050565b5f602082019050610cc95f830184610b6e565b92915050565b5f610cd982610c04565b9050919050565b610ce981610ccf565b82525050565b5f602082019050610d025f830184610ce0565b92915050565b5f604082019050610d1b5f830185610b5f565b610d286020830184610b6e565b9392505050565b610d3881610b7d565b8114610d42575f80fd5b50565b5f81519050610d5381610d2f565b92915050565b5f60208284031215610d6e57610d6d610acd565b5b5f610d7b84828501610d45565b91505092915050565b5f604082019050610d975f830185610b5f565b610da46020830184610b5f565b9392505050565b5f81519050610db981610ada565b92915050565b5f60208284031215610dd457610dd3610acd565b5b5f610de184828501610dab565b91505092915050565b7f4e487b71000000000000000000000000000000000000000000000000000000005f52601160045260245ffd5b5f610e2182610ad1565b91507fffffffffffffffffffffffffffffffffffffffffffffffffffffffffffffffff8203610e5357610e52610dea565b5b600182019050919050565b5f606082019050610e715f830186610b5f565b610e7e6020830185610b5f565b610e8b6040830184610b6e565b949350505050565b5f602082019050610ea65f830184610b5f565b9291505056fea264697066735822122088c96f9d2ed3108bb02ffda0152102ff3fd8bbd03d350122483ae5d09876f59564736f6c634300081a0033","linkReferences":{}},"methodIdentifiers":{"NEXUS_REGISTRY()":"3d558dd9","STABLECOIN()":"93a39776","createEscrow(address,uint256)":"4614874e","escrows(uint256)":"012f52ee","getEscrow(uint256)":"7d19e596","nextEscrowId()":"89cb29dd","release(uint256)":"37bdc99b"},"id":23}