{"abi":[{"type":"constructor","inputs":[],"stateMutability":"nonpayable"},{"type":"function","name":"getRegisteredCount","inputs":[],"outputs":[{"name":"","type":"uint256","internalType":"uint256"}],"stateMutability":"view"},{"type":"function","name":"isRegistered","inputs":[{"name":"","type":"address","internalType":"address"}],"outputs":[{"name":"","type":"bool","internalType":"bool"}],"stateMutability":"view"},{"type":"function","name":"owner","inputs":[],"outputs":[{"name":"","type":"address","internalType":"address"}],"stateMutability":"view"},{"type":"function","name":"registerService","inputs":[{"name":"service","type":"address","internalType":"address"},{"name":"name","type":"string","internalType":"string"}],"outputs":[],"stateMutability":"nonpayable"},{"type":"function","name":"registeredAddresses","inputs":[{"name":"","type":"uint256","internalType":"uint256"}],"outputs":[{"name":"","type":"address","internalType":"address"}],"stateMutability":"view"},{"type":"function","name":"removeService","inputs":[{"name":"service","type":"address","internalType":"address"}],"outputs":[],"stateMutability":"nonpayable"},{"type":"function","name":"transferOwnership","inputs":[{"name":"newOwner","type":"address","internalType":"address"}],"outputs":[],"stateMutability":"nonpayable"},{"type":"event","name":"OwnershipTransferred","inputs":[{"name":"previousOwner","type":"address","indexed":true,"internalType":"address"},{"name":"newOwner","type":"address","indexed":true,"internalType":"address"}],"anonymous":false},{"type":"event","name":"ServiceRegistered","inputs":[{"name":"service","type":"address","indexed":true,"internalType":"address"},{"name":"name","type":"string","indexed":false,"internalType":"string"}],"anonymous":false},{"type":"event","name":"ServiceRemoved","inputs":[{"name":"service","type":"address","indexed":true,"internalType":"address"}],"anonymous":false}],"bytecode":{"object":"0x6080604052348015600e575f80fd5b50335f806101000a81548173ffffffffffffffffffffffffffffffffffffffff021916908373ffffffffffffffffffffffffffffffffffffffff1602179055503373ffffffffffffffffffffffffffffffffffffffff165f73ffffffffffffffffffffffffffffffffffffffff167f8be0079c531659141344cd1fd0a4f28419497f9722a3daafe3b4186f6b6457e060405160405180910390a3610b94806100b55f395ff3fe608060405234801561000f575f80fd5b506004361061007b575f3560e01c806386a699351161005957806386a69935146100e75780638da5cb5b14610105578063c3c5a54714610123578063f2fde38b146101535761007b565b80631b3051731461007f5780632d7402261461009b5780636e9b8555146100b7575b5f80fd5b61009960048036038101906100949190610752565b61016f565b005b6100b560048036038101906100b091906107de565b61029a565b005b6100d160048036038101906100cc919061086e565b6104a3565b6040516100de91906108a8565b60405180910390f35b6100ef6104de565b6040516100fc91906108d0565b60405180910390f35b61010d6104ea565b60405161011a91906108a8565b60405180910390f35b61013d60048036038101906101389190610752565b61050d565b60405161014a9190610903565b60405180910390f35b61016d60048036038101906101689190610752565b61052a565b005b610177610661565b60015f8273ffffffffffffffffffffffffffffffffffffffff1673ffffffffffffffffffffffffffffffffffffffff1681526020019081526020015f205f9054906101000a900460ff16610200576040517f08c379a00000000000000000000000000000000000000000000000000000000081526004016101f790610976565b60405180910390fd5b5f60015f8373ffffffffffffffffffffffffffffffffffffffff1673ffffffffffffffffffffffffffffffffffffffff1681526020019081526020015f205f6101000a81548160ff0219169083151502179055508073ffffffffffffffffffffffffffffffffffffffff167f29d546abb6e94f4f04d5bdccb6682316f597d43776078f47e273f000e77b2a9160405160405180910390a250565b6102a2610661565b5f73ffffffffffffffffffffffffffffffffffffffff168373ffffffffffffffffffffffffffffffffffffffff1603610310576040517f08c379a0000000000000000000000000000000000000000000000000000000008152600401610307906109de565b60405180910390fd5b60015f8473ffffffffffffffffffffffffffffffffffffffff1673ffffffffffffffffffffffffffffffffffffffff1681526020019081526020015f205f9054906101000a900460ff161561039a576040517f08c379a000000000000000000000000000000000000000000000000000000000815260040161039190610a6c565b60405180910390fd5b6001805f8573ffffffffffffffffffffffffffffffffffffffff1673ffffffffffffffffffffffffffffffffffffffff1681526020019081526020015f205f6101000a81548160ff021916908315150217905550600283908060018154018082558091505060019003905f5260205f20015f9091909190916101000a81548173ffffffffffffffffffffffffffffffffffffffff021916908373ffffffffffffffffffffffffffffffffffffffff1602179055508273ffffffffffffffffffffffffffffffffffffffff167f4c76643f3c678c590db6e8ad9fe0bb6e75d36cb853c3bd06c487607ff35e6f718383604051610496929190610ad4565b60405180910390a2505050565b600281815481106104b2575f80fd5b905f5260205f20015f915054906101000a900473ffffffffffffffffffffffffffffffffffffffff1681565b5f600280549050905090565b5f8054906101000a900473ffffffffffffffffffffffffffffffffffffffff1681565b6001602052805f5260405f205f915054906101000a900460ff1681565b610532610661565b5f73ffffffffffffffffffffffffffffffffffffffff168173ffffffffffffffffffffffffffffffffffffffff16036105a0576040517f08c379a0000000000000000000000000000000000000000000000000000000008152600401610597906109de565b60405180910390fd5b5f805f9054906101000a900473ffffffffffffffffffffffffffffffffffffffff169050815f806101000a81548173ffffffffffffffffffffffffffffffffffffffff021916908373ffffffffffffffffffffffffffffffffffffffff1602179055508173ffffffffffffffffffffffffffffffffffffffff168173ffffffffffffffffffffffffffffffffffffffff167f8be0079c531659141344cd1fd0a4f28419497f9722a3daafe3b4186f6b6457e060405160405180910390a35050565b5f8054906101000a900473ffffffffffffffffffffffffffffffffffffffff1673ffffffffffffffffffffffffffffffffffffffff163373ffffffffffffffffffffffffffffffffffffffff16146106ee576040517f08c379a00000000000000000000000000000000000000000000000000000000081526004016106e590610b40565b60405180910390fd5b565b5f80fd5b5f80fd5b5f73ffffffffffffffffffffffffffffffffffffffff82169050919050565b5f610721826106f8565b9050919050565b61073181610717565b811461073b575f80fd5b50565b5f8135905061074c81610728565b92915050565b5f60208284031215610767576107666106f0565b5b5f6107748482850161073e565b91505092915050565b5f80fd5b5f80fd5b5f80fd5b5f8083601f84011261079e5761079d61077d565b5b8235905067ffffffffffffffff8111156107bb576107ba610781565b5b6020830191508360018202830111156107d7576107d6610785565b5b9250929050565b5f805f604084860312156107f5576107f46106f0565b5b5f6108028682870161073e565b935050602084013567ffffffffffffffff811115610823576108226106f4565b5b61082f86828701610789565b92509250509250925092565b5f819050919050565b61084d8161083b565b8114610857575f80fd5b50565b5f8135905061086881610844565b92915050565b5f60208284031215610883576108826106f0565b5b5f6108908482850161085a565b91505092915050565b6108a281610717565b82525050565b5f6020820190506108bb5f830184610899565b92915050565b6108ca8161083b565b82525050565b5f6020820190506108e35f8301846108c1565b92915050565b5f8115159050919050565b6108fd816108e9565b82525050565b5f6020820190506109165f8301846108f4565b92915050565b5f82825260208201905092915050565b7f4e6578757352656769737472793a206e6f7420726567697374657265640000005f82015250565b5f610960601d8361091c565b915061096b8261092c565b602082019050919050565b5f6020820190508181035f83015261098d81610954565b9050919050565b7f4e6578757352656769737472793a207a65726f206164647265737300000000005f82015250565b5f6109c8601b8361091c565b91506109d382610994565b602082019050919050565b5f6020820190508181035f8301526109f5816109bc565b9050919050565b7f4e6578757352656769737472793a20616c7265616479207265676973746572655f8201527f6400000000000000000000000000000000000000000000000000000000000000602082015250565b5f610a5660218361091c565b9150610a61826109fc565b604082019050919050565b5f6020820190508181035f830152610a8381610a4a565b9050919050565b828183375f83830152505050565b5f601f19601f8301169050919050565b5f610ab3838561091c565b9350610ac0838584610a8a565b610ac983610a98565b840190509392505050565b5f6020820190508181035f830152610aed818486610aa8565b90509392505050565b7f4e6578757352656769737472793a206e6f74206f776e657200000000000000005f82015250565b5f610b2a60188361091c565b9150610b3582610af6565b602082019050919050565b5f6020820190508181035f830152610b5781610b1e565b905091905056fea26469706673582212200433bdc11b9d2242d5feb1f10ea216ff66eba8bd7503352c647a7f581a5e775f64736f6c634300081a0033","linkReferences":{}},"methodIdentifiers":{"getRegisteredCount()":"86a69935","isRegistered(address)":"c3c5a547","owner()":"8da5cb5b","registerService(address,string)":"2d740226","registeredAddresses(uint256)":"6e9b8555","removeService(address)":"1b305173","transferOwnership(address)":"f2fde38b"},"id":19}