{"abi":[{"type":"constructor","inputs":[],"stateMutability":"nonpayable"},{"type":"function","name":"getRegisteredCount","inputs":[],"outputs":[{"name":"","type":"uint256","internalType":"uint256"}],"stateMutability":"view"},{"type":"function","name":"isRegistered","inputs":[{"name":"","type":"address","internalType":"address"}],"outputs":[{"name":"","type":"bool","internalType":"bool"}],"stateMutability":"view"},{"type":"function","name":"owner","inputs":[],"outputs":[{"name":"","type":"address","internalType":"address"}],"stateMutability":"view"},{"type":"function","name":"registerService","inputs":[{"name":"service","type":"address","internalType":"address"},{"name":"name","type":"string","internalType":"string"}],"outputs":[],"stateMutability":"nonpayable"},{"type":"function","name":"registeredAddresses","inputs":[{"name":"","type":"uint256","internalType":"uint256"}],"outputs":[{"name":"","type":"address","internalType":"address"}],"stateMutability":"view"},{"type":"function","name":"removeService","inputs":[{"name":"service","type":"address","internalType":"address"}],"outputs":[],"stateMutability":"nonpayable"},{"type":"function","name":"transferOwnership","inputs":[{"name":"newOwner","type":"address","internalType":"address"}],"outputs":[],"stateMutability":"nonpayable"},{"type":"event","name":"OwnershipTransferred","inputs":[{"name":"previousOwner","type":"address","indexed":true,"internalType":"address"},{"name":"newOwner","type":"address","indexed":true,"internalType":"address"}],"anonymous":false},{"type":"event","name":"ServiceRegistered","inputs":[{"name":"service","type":"address","indexed":true,"internalType":"address"},{"name":"name","type":"string","indexed":false,"internalType":"string"}],"anonymous":false},{"type":"event","name":"ServiceRemoved","inputs":[{"name":"service","type":"address","indexed":true,"internalType":"address"}],"anonymous":false}],"bytecode":{"object":"0x6080604052348015600e575f80fd5b50335f806101000a81548173ffffffffffffffffffffffffffffffffffffffff021916908373ffffffffffffffffffffffffffffffffffffffff1602179055503373ffffffffffffffffffffffffffffffffffffffff165f73ffffffffffffffffffffffffffffffffffffffff167f8be0079c531659141344cd1fd0a4f28419497f9722a3daafe3b4186f6b6457e060405160405180910390a3610c94806100b55f395ff3fe608060405234801561000f575f80fd5b506004361061007b575f3560e01c806386a699351161005957806386a69935146100e75780638da5cb5b14610105578063c3c5a54714610123578063f2fde38b146101535761007b565b80631b3051731461007f5780632d7402261461009b5780636e9b8555146100b7575b5f80fd5b61009960048036038101906100949190610852565b61016f565b005b6100b560048036038101906100b091906108de565b61031f565b005b6100d160048036038101906100cc919061096e565b6105ad565b6040516100de91906109a8565b60405180910390f35b6100ef6105e8565b6040516100fc91906109d0565b60405180910390f35b61010d6105f4565b60405161011a91906109a8565b60405180910390f35b61013d60048036038101906101389190610852565b610617565b60405161014a9190610a03565b60405180910390f35b61016d60048036038101906101689190610852565b610634565b005b5f8054906101000a900473ffffffffffffffffffffffffffffffffffffffff1673ffffffffffffffffffffffffffffffffffffffff163373ffffffffffffffffffffffffffffffffffffffff16146101fc576040517f08c379a00000000000000000000000000000000000000000000000000000000081526004016101f390610a76565b60405180910390fd5b60015f8273ffffffffffffffffffffffffffffffffffffffff1673ffffffffffffffffffffffffffffffffffffffff1681526020019081526020015f205f9054906101000a900460ff16610285576040517f08c379a000000000000000000000000000000000000000000000000000000000815260040161027c90610ade565b60405180910390fd5b5f60015f8373ffffffffffffffffffffffffffffffffffffffff1673ffffffffffffffffffffffffffffffffffffffff1681526020019081526020015f205f6101000a81548160ff0219169083151502179055508073ffffffffffffffffffffffffffffffffffffffff167f29d546abb6e94f4f04d5bdccb6682316f597d43776078f47e273f000e77b2a9160405160405180910390a250565b5f8054906101000a900473ffffffffffffffffffffffffffffffffffffffff1673ffffffffffffffffffffffffffffffffffffffff163373ffffffffffffffffffffffffffffffffffffffff16146103ac576040517f08c379a00000000000000000000000000000000000000000000000000000000081526004016103a390610a76565b60405180910390fd5b5f73ffffffffffffffffffffffffffffffffffffffff168373ffffffffffffffffffffffffffffffffffffffff160361041a576040517f08c379a000000000000000000000000000000000000000000000000000000000815260040161041190610b46565b60405180910390fd5b60015f8473ffffffffffffffffffffffffffffffffffffffff1673ffffffffffffffffffffffffffffffffffffffff1681526020019081526020015f205f9054906101000a900460ff16156104a4576040517f08c379a000000000000000000000000000000000000000000000000000000000815260040161049b90610bd4565b60405180910390fd5b6001805f8573ffffffffffffffffffffffffffffffffffffffff1673ffffffffffffffffffffffffffffffffffffffff1681526020019081526020015f205f6101000a81548160ff021916908315150217905550600283908060018154018082558091505060019003905f5260205f20015f9091909190916101000a81548173ffffffffffffffffffffffffffffffffffffffff021916908373ffffffffffffffffffffffffffffffffffffffff1602179055508273ffffffffffffffffffffffffffffffffffffffff167f4c76643f3c678c590db6e8ad9fe0bb6e75d36cb853c3bd06c487607ff35e6f7183836040516105a0929190610c3c565b60405180910390a2505050565b600281815481106105bc575f80fd5b905f5260205f20015f915054906101000a900473ffffffffffffffffffffffffffffffffffffffff1681565b5f600280549050905090565b5f8054906101000a900473ffffffffffffffffffffffffffffffffffffffff1681565b6001602052805f5260405f205f915054906101000a900460ff1681565b5f8054906101000a900473ffffffffffffffffffffffffffffffffffffffff1673ffffffffffffffffffffffffffffffffffffffff163373ffffffffffffffffffffffffffffffffffffffff16146106c1576040517f08c379a00000000000000000000000000000000000000000000000000000000081526004016106b890610a76565b60405180910390fd5b5f73ffffffffffffffffffffffffffffffffffffffff168173ffffffffffffffffffffffffffffffffffffffff160361072f576040517f08c379a000000000000000000000000000000000000000000000000000000000815260040161072690610b46565b60405180910390fd5b5f805f9054906101000a900473ffffffffffffffffffffffffffffffffffffffff169050815f806101000a81548173ffffffffffffffffffffffffffffffffffffffff021916908373ffffffffffffffffffffffffffffffffffffffff1602179055508173ffffffffffffffffffffffffffffffffffffffff168173ffffffffffffffffffffffffffffffffffffffff167f8be0079c531659141344cd1fd0a4f28419497f9722a3daafe3b4186f6b6457e060405160405180910390a35050565b5f80fd5b5f80fd5b5f73ffffffffffffffffffffffffffffffffffffffff82169050919050565b5f610821826107f8565b9050919050565b61083181610817565b811461083b575f80fd5b50565b5f8135905061084c81610828565b92915050565b5f60208284031215610867576108666107f0565b5b5f6108748482850161083e565b91505092915050565b5f80fd5b5f80fd5b5f80fd5b5f8083601f84011261089e5761089d61087d565b5b8235905067ffffffffffffffff8111156108bb576108ba610881565b5b6020830191508360018202830111156108d7576108d6610885565b5b9250929050565b5f805f604084860312156108f5576108f46107f0565b5b5f6109028682870161083e565b935050602084013567ffffffffffffffff811115610923576109226107f4565b5b61092f86828701610889565b92509250509250925092565b5f819050919050565b61094d8161093b565b8114610957575f80fd5b50565b5f8135905061096881610944565b92915050565b5f60208284031215610983576109826107f0565b5b5f6109908482850161095a565b91505092915050565b6109a281610817565b82525050565b5f6020820190506109bb5f830184610999565b92915050565b6109ca8161093b565b82525050565b5f6020820190506109e35f8301846109c1565b92915050565b5f8115159050919050565b6109fd816109e9565b82525050565b5f602082019050610a165f8301846109f4565b92915050565b5f82825260208201905092915050565b7f4e6578757352656769737472793a206e6f74206f776e657200000000000000005f82015250565b5f610a60601883610a1c565b9150610a6b82610a2c565b602082019050919050565b5f6020820190508181035f830152610a8d81610a54565b9050919050565b7f4e6578757352656769737472793a206e6f7420726567697374657265640000005f82015250565b5f610ac8601d83610a1c565b9150610ad382610a94565b602082019050919050565b5f6020820190508181035f830152610af581610abc565b9050919050565b7f4e6578757352656769737472793a207a65726f206164647265737300000000005f82015250565b5f610b30601b83610a1c565b9150610b3b82610afc565b602082019050919050565b5f6020820190508181035f830152610b5d81610b24565b9050919050565b7f4e6578757352656769737472793a20616c7265616479207265676973746572655f8201527f6400000000000000000000000000000000000000000000000000000000000000602082015250565b5f610bbe602183610a1c565b9150610bc982610b64565b604082019050919050565b5f6020820190508181035f830152610beb81610bb2565b9050919050565b828183375f83830152505050565b5f601f19601f8301169050919050565b5f610c1b8385610a1c565b9350610c28838584610bf2565b610c3183610c00565b840190509392505050565b5f6020820190508181035f830152610c55818486610c10565b9050939250505056fea2646970667358221220b0e11841d4a079ecb86c5fda1b6b178c68641b9a7d3b07853b7dd45694b44d9864736f6c634300081a0033","linkReferences":{}},"methodIdentifiers":{"getRegisteredCount()":"86a69935","isRegistered(address)":"c3c5a547","owner()":"8da5cb5b","registerService(address,string)":"2d740226","registeredAddresses(uint256)":"6e9b8555","removeService(address)":"1b305173","transferOwnership(address)":"f2fde38b"},"id":18}