{"abi":[{"type":"constructor","inputs":[{"name":"_nexusRegistry","type":"address","internalType":"address"},{"name":"_stablecoin","type":"address","internalType":"address"}],"stateMutability":"nonpayable"},{"type":"function","name":"NEXUS_REGISTRY","inputs":[],"outputs":[{"name":"","type":"address","internalType":"contract INexusRegistry"}],"stateMutability":"view"},{"type":"function","name":"STABLECOIN","inputs":[],"outputs":[{"name":"","type":"address","internalType":"contract IMockUSDT"}],"stateMutability":"view"},{"type":"function","name":"contribute","inputs":[{"name":"tontineId","type":"uint256","internalType":"uint256"}],"outputs":[],"stateMutability":"nonpayable"},{"type":"function","name":"createTontine","inputs":[{"name":"contributionAmount","type":"uint256","internalType":"uint256"},{"name":"frequencySeconds","type":"uint256","internalType":"uint256"},{"name":"collateralAmount","type":"uint256","internalType":"uint256"},{"name":"serviceProvider","type":"address","internalType":"address"}],"outputs":[{"name":"tontineId","type":"uint256","internalType":"uint256"}],"stateMutability":"nonpayable"},{"type":"function","name":"emergencyRefund","inputs":[{"name":"escrowId","type":"uint256","internalType":"uint256"}],"outputs":[],"stateMutability":"nonpayable"},{"type":"function","name":"escrows","inputs":[{"name":"","type":"uint256","internalType":"uint256"}],"outputs":[{"name":"tontineId","type":"uint256","internalType":"uint256"},{"name":"winner","type":"address","internalType":"address"},{"name":"provider","type":"address","internalType":"address"},{"name":"amount","type":"uint256","internalType":"uint256"},{"name":"released","type":"bool","internalType":"bool"}],"stateMutability":"view"},{"type":"function","name":"getEscrow","inputs":[{"name":"escrowId","type":"uint256","internalType":"uint256"}],"outputs":[{"name":"tontineId","type":"uint256","internalType":"uint256"},{"name":"winner","type":"address","internalType":"address"},{"name":"provider","type":"address","internalType":"address"},{"name":"amount","type":"uint256","internalType":"uint256"},{"name":"released","type":"bool","internalType":"bool"}],"stateMutability":"view"},{"type":"function","name":"isMember","inputs":[{"name":"","type":"uint256","internalType":"uint256"},{"name":"","type":"address","internalType":"address"}],"outputs":[{"name":"","type":"bool","internalType":"bool"}],"stateMutability":"view"},{"type":"function","name":"joinTontine","inputs":[{"name":"tontineId","type":"uint256","internalType":"uint256"}],"outputs":[],"stateMutability":"nonpayable"},{"type":"function","name":"lastPaidAt","inputs":[{"name":"","type":"uint256","internalType":"uint256"},{"name":"","type":"address","internalType":"address"}],"outputs":[{"name":"","type":"uint256","internalType":"uint256"}],"stateMutability":"view"},{"type":"function","name":"nextEscrowId","inputs":[],"outputs":[{"name":"","type":"uint256","internalType":"uint256"}],"stateMutability":"view"},{"type":"function","name":"nextTontineId","inputs":[],"outputs":[{"name":"","type":"uint256","internalType":"uint256"}],"stateMutability":"view"},{"type":"function","name":"owner","inputs":[],"outputs":[{"name":"","type":"address","internalType":"address"}],"stateMutability":"view"},{"type":"function","name":"pendingWithdrawals","inputs":[{"name":"","type":"address","internalType":"address"}],"outputs":[{"name":"","type":"uint256","internalType":"uint256"}],"stateMutability":"view"},{"type":"function","name":"releaseFunds","inputs":[{"name":"escrowId","type":"uint256","internalType":"uint256"}],"outputs":[],"stateMutability":"nonpayable"},{"type":"function","name":"slashCollateral","inputs":[{"name":"tontineId","type":"uint256","internalType":"uint256"},{"name":"member","type":"address","internalType":"address"}],"outputs":[],"stateMutability":"nonpayable"},{"type":"function","name":"tontineGroups","inputs":[{"name":"","type":"uint256","internalType":"uint256"}],"outputs":[{"name":"contributionAmount","type":"uint256","internalType":"uint256"},{"name":"frequencySeconds","type":"uint256","internalType":"uint256"},{"name":"collateralAmount","type":"uint256","internalType":"uint256"},{"name":"serviceProvider","type":"address","internalType":"address"},{"name":"currentTurnIndex","type":"uint256","internalType":"uint256"},{"name":"createdAt","type":"uint256","internalType":"uint256"},{"name":"nextDueAt","type":"uint256","internalType":"uint256"},{"name":"active","type":"bool","internalType":"bool"}],"stateMutability":"view"},{"type":"function","name":"tontineMembers","inputs":[{"name":"","type":"uint256","internalType":"uint256"},{"name":"","type":"uint256","internalType":"uint256"}],"outputs":[{"name":"","type":"address","internalType":"address"}],"stateMutability":"view"},{"type":"function","name":"transferOwnership","inputs":[{"name":"newOwner","type":"address","internalType":"address"}],"outputs":[],"stateMutability":"nonpayable"},{"type":"function","name":"withdraw","inputs":[],"outputs":[],"stateMutability":"nonpayable"},{"type":"event","name":"CollateralSlashed","inputs":[{"name":"tontineId","type":"uint256","indexed":true,"internalType":"uint256"},{"name":"member","type":"address","indexed":true,"internalType":"address"},{"name":"amount","type":"uint256","indexed":false,"internalType":"uint256"}],"anonymous":false},{"type":"event","name":"ContributionPaid","inputs":[{"name":"tontineId","type":"uint256","indexed":true,"internalType":"uint256"},{"name":"member","type":"address","indexed":true,"internalType":"address"},{"name":"amount","type":"uint256","indexed":false,"internalType":"uint256"},{"name":"turnIndex","type":"uint256","indexed":false,"internalType":"uint256"}],"anonymous":false},{"type":"event","name":"EmergencyRefund","inputs":[{"name":"escrowId","type":"uint256","indexed":true,"internalType":"uint256"},{"name":"to","type":"address","indexed":true,"internalType":"address"},{"name":"amount","type":"uint256","indexed":false,"internalType":"uint256"}],"anonymous":false},{"type":"event","name":"EscrowCreated","inputs":[{"name":"escrowId","type":"uint256","indexed":true,"internalType":"uint256"},{"name":"tontineId","type":"uint256","indexed":true,"internalType":"uint256"},{"name":"winner","type":"address","indexed":true,"internalType":"address"},{"name":"provider","type":"address","indexed":false,"internalType":"address"},{"name":"amount","type":"uint256","indexed":false,"internalType":"uint256"}],"anonymous":false},{"type":"event","name":"FundsReleased","inputs":[{"name":"escrowId","type":"uint256","indexed":true,"internalType":"uint256"},{"name":"provider","type":"address","indexed":true,"internalType":"address"},{"name":"amount","type":"uint256","indexed":false,"internalType":"uint256"}],"anonymous":false},{"type":"event","name":"MemberJoined","inputs":[{"name":"tontineId","type":"uint256","indexed":true,"internalType":"uint256"},{"name":"member","type":"address","indexed":true,"internalType":"address"},{"name":"turnPosition","type":"uint256","indexed":false,"internalType":"uint256"}],"anonymous":false},{"type":"event","name":"OwnershipTransferred","inputs":[{"name":"previousOwner","type":"address","indexed":true,"internalType":"address"},{"name":"newOwner","type":"address","indexed":true,"internalType":"address"}],"anonymous":false},{"type":"event","name":"PayoutSent","inputs":[{"name":"tontineId","type":"uint256","indexed":true,"internalType":"uint256"},{"name":"beneficiary","type":"address","indexed":true,"internalType":"address"},{"name":"amount","type":"uint256","indexed":false,"internalType":"uint256"}],"anonymous":false},{"type":"event","name":"TontineCreated","inputs":[{"name":"tontineId","type":"uint256","indexed":true,"internalType":"uint256"},{"name":"contributionAmount","type":"uint256","indexed":false,"internalType":"uint256"},{"name":"frequencySeconds","type":"uint256","indexed":false,"internalType":"uint256"},{"name":"collateralAmount","type":"uint256","indexed":false,"internalType":"uint256"},{"name":"serviceProvider","type":"address","indexed":false,"internalType":"address"}],"anonymous":false},{"type":"event","name":"Withdrawal","inputs":[{"name":"user","type":"address","indexed":true,"internalType":"address"},{"name":"amount","type":"uint256","indexed":false,"internalType":"uint256"}],"anonymous":false},{"type":"error","name":"AlreadyMember","inputs":[]},{"type":"error","name":"AlreadyReleased","inputs":[]},{"type":"error","name":"EscrowNotFound","inputs":[]},{"type":"error","name":"InsufficientAllowance","inputs":[]},{"type":"error","name":"InvalidTontine","inputs":[]},{"type":"error","name":"NotMember","inputs":[]},{"type":"error","name":"NotRegisteredService","inputs":[]},{"type":"error","name":"NotWinner","inputs":[]},{"type":"error","name":"NotYourTurn","inputs":[]},{"type":"error","name":"ReentrancyGuardReentrantCall","inputs":[]},{"type":"error","name":"TontineNotActive","inputs":[]},{"type":"error","name":"TooEarly","inputs":[]},{"type":"error","name":"TransferFailed","inputs":[]}],"bytecode":{"object":"0x60c060405234801561000f575f80fd5b506040516128583803806128588339818101604052810190610031919061019f565b335f806101000a81548173ffffffffffffffffffffffffffffffffffffffff021916908373ffffffffffffffffffffffffffffffffffffffff1602179055503373ffffffffffffffffffffffffffffffffffffffff165f73ffffffffffffffffffffffffffffffffffffffff167f8be0079c531659141344cd1fd0a4f28419497f9722a3daafe3b4186f6b6457e060405160405180910390a38173ffffffffffffffffffffffffffffffffffffffff1660808173ffffffffffffffffffffffffffffffffffffffff16815250508073ffffffffffffffffffffffffffffffffffffffff1660a08173ffffffffffffffffffffffffffffffffffffffff1681525050600160098190555050506101dd565b5f80fd5b5f73ffffffffffffffffffffffffffffffffffffffff82169050919050565b5f61016e82610145565b9050919050565b61017e81610164565b8114610188575f80fd5b50565b5f8151905061019981610175565b92915050565b5f80604083850312156101b5576101b4610141565b5b5f6101c28582860161018b565b92505060206101d38582860161018b565b9150509250929050565b60805160a0516126306102285f395f81816106d70152818161097801528181610bc50152818161100d0152818161138301526114a701525f818161080e015261188101526126305ff3fe608060405234801561000f575f80fd5b506004361061012a575f3560e01c8063831fe39b116100ab578063c1cbbca71161006f578063c1cbbca714610336578063ee98e55e14610352578063f134055c14610382578063f2fde38b146103b9578063f3f43703146103d55761012a565b8063831fe39b146102a457806389cb29dd146102c05780638da5cb5b146102de57806393a39776146102fc578063a7bedfdf1461031a5761012a565b80634d68282f116100f25780634d68282f146101d857806370e5deb9146101f457806374fdfce0146102105780637d19e596146102405780637d9e10f5146102745761012a565b8063012f52ee1461012e5780632a4d480e14610162578063386b6ede146101925780633ccfd60b146101b05780633d558dd9146101ba575b5f80fd5b61014860048036038101906101439190611dbf565b610405565b604051610159959493929190611e52565b60405180910390f35b61017c60048036038101906101779190611ecd565b610481565b6040516101899190611f31565b60405180910390f35b61019a610601565b6040516101a79190611f31565b60405180910390f35b6101b8610607565b005b6101c261080c565b6040516101cf9190611fa5565b60405180910390f35b6101f260048036038101906101ed9190611dbf565b610830565b005b61020e60048036038101906102099190611dbf565b610afd565b005b61022a60048036038101906102259190611fbe565b610d4a565b6040516102379190611f31565b60405180910390f35b61025a60048036038101906102559190611dbf565b610d6a565b60405161026b959493929190611e52565b60405180910390f35b61028e60048036038101906102899190611fbe565b610df9565b60405161029b9190611ffc565b60405180910390f35b6102be60048036038101906102b99190611fbe565b610e23565b005b6102c8610fe2565b6040516102d59190611f31565b60405180910390f35b6102e6610fe8565b6040516102f39190612015565b60405180910390f35b61030461100b565b604051610311919061204e565b60405180910390f35b610334600480360381019061032f9190611dbf565b61102f565b005b610350600480360381019061034b9190611dbf565b611270565b005b61036c60048036038101906103679190612067565b6115ed565b6040516103799190612015565b60405180910390f35b61039c60048036038101906103979190611dbf565b611635565b6040516103b09897969594939291906120a5565b60405180910390f35b6103d360048036038101906103ce9190612121565b6116a4565b005b6103ef60048036038101906103ea9190612121565b6117db565b6040516103fc9190611f31565b60405180910390f35b6008602052805f5260405f205f91509050805f015490806001015f9054906101000a900473ffffffffffffffffffffffffffffffffffffffff1690806002015f9054906101000a900473ffffffffffffffffffffffffffffffffffffffff1690806003015490806004015f9054906101000a900460ff16905085565b5f61048a6117f0565b61049261187f565b60065f8154809291906104a490612179565b9190505590506040518061010001604052808681526020018581526020018481526020018373ffffffffffffffffffffffffffffffffffffffff1681526020015f815260200142815260200185426104fc91906121c0565b81526020016001151581525060015f8381526020019081526020015f205f820151815f015560208201518160010155604082015181600201556060820151816003015f6101000a81548173ffffffffffffffffffffffffffffffffffffffff021916908373ffffffffffffffffffffffffffffffffffffffff1602179055506080820151816004015560a0820151816005015560c0820151816006015560e0820151816007015f6101000a81548160ff021916908315150217905550905050807ff08c1e3e0a2e736a41e96c079b1f07d69377ab0d703b47098932eb2ae4ca8908868686866040516105f194939291906121f3565b60405180910390a2949350505050565b60065481565b61060f61194f565b5f60055f3373ffffffffffffffffffffffffffffffffffffffff1673ffffffffffffffffffffffffffffffffffffffff1681526020019081526020015f205490505f8111610692576040517f08c379a0000000000000000000000000000000000000000000000000000000008152600401610689906122b6565b60405180910390fd5b5f60055f3373ffffffffffffffffffffffffffffffffffffffff1673ffffffffffffffffffffffffffffffffffffffff1681526020019081526020015f20819055505f7f000000000000000000000000000000000000000000000000000000000000000073ffffffffffffffffffffffffffffffffffffffff1663a9059cbb33846040518363ffffffff1660e01b81526004016107309291906122d4565b6020604051808303815f875af115801561074c573d5f803e3d5ffd5b505050506040513d601f19601f820116820180604052508101906107709190612325565b9050806107b2576040517f08c379a00000000000000000000000000000000000000000000000000000000081526004016107a99061239a565b60405180910390fd5b3373ffffffffffffffffffffffffffffffffffffffff167f7fcf532c15f0a6db0bd6d0e038bea71d30d808c7d98cb3bf7268a95bf5081b65836040516107f89190611f31565b60405180910390a2505061080a611995565b565b7f000000000000000000000000000000000000000000000000000000000000000081565b61083861194f565b5f60085f8381526020019081526020015f2090505f816003015403610889576040517ff1d80ab100000000000000000000000000000000000000000000000000000000815260040160405180910390fd5b806004015f9054906101000a900460ff16156108d1576040517f63b4904e00000000000000000000000000000000000000000000000000000000815260040160405180910390fd5b806001015f9054906101000a900473ffffffffffffffffffffffffffffffffffffffff1673ffffffffffffffffffffffffffffffffffffffff163373ffffffffffffffffffffffffffffffffffffffff1614610959576040517f618c724200000000000000000000000000000000000000000000000000000000815260040160405180910390fd5b6001816004015f6101000a81548160ff0219169083151502179055505f7f000000000000000000000000000000000000000000000000000000000000000073ffffffffffffffffffffffffffffffffffffffff1663a9059cbb836002015f9054906101000a900473ffffffffffffffffffffffffffffffffffffffff1684600301546040518363ffffffff1660e01b81526004016109f89291906122d4565b6020604051808303815f875af1158015610a14573d5f803e3d5ffd5b505050506040513d601f19601f82011682018060405250810190610a389190612325565b905080610a7a576040517f08c379a0000000000000000000000000000000000000000000000000000000008152600401610a719061239a565b60405180910390fd5b816002015f9054906101000a900473ffffffffffffffffffffffffffffffffffffffff1673ffffffffffffffffffffffffffffffffffffffff16837f6e3c6096795c8298a218b2cfb8bde42726ff7c9a3d27b4d3ba41ab7f74feb5fb8460030154604051610ae89190611f31565b60405180910390a35050610afa611995565b50565b610b056117f0565b610b0d61194f565b5f60085f8381526020019081526020015f2090505f816003015403610b5e576040517ff1d80ab100000000000000000000000000000000000000000000000000000000815260040160405180910390fd5b806004015f9054906101000a900460ff1615610ba6576040517f63b4904e00000000000000000000000000000000000000000000000000000000815260040160405180910390fd5b6001816004015f6101000a81548160ff0219169083151502179055505f7f000000000000000000000000000000000000000000000000000000000000000073ffffffffffffffffffffffffffffffffffffffff1663a9059cbb836001015f9054906101000a900473ffffffffffffffffffffffffffffffffffffffff1684600301546040518363ffffffff1660e01b8152600401610c459291906122d4565b6020604051808303815f875af1158015610c61573d5f803e3d5ffd5b505050506040513d601f19601f82011682018060405250810190610c859190612325565b905080610cc7576040517f08c379a0000000000000000000000000000000000000000000000000000000008152600401610cbe9061239a565b60405180910390fd5b816001015f9054906101000a900473ffffffffffffffffffffffffffffffffffffffff1673ffffffffffffffffffffffffffffffffffffffff16837fbd634c7bdf536d4ef89dad94ea8933d03e5fbb8be4f85fc7699f5859497d793f8460030154604051610d359190611f31565b60405180910390a35050610d47611995565b50565b6004602052815f5260405f20602052805f5260405f205f91509150505481565b5f805f805f8060085f8881526020019081526020015f209050805f0154816001015f9054906101000a900473ffffffffffffffffffffffffffffffffffffffff16826002015f9054906101000a900473ffffffffffffffffffffffffffffffffffffffff168360030154846004015f9054906101000a900460ff16955095509550955095505091939590929450565b6003602052815f5260405f20602052805f5260405f205f915091509054906101000a900460ff1681565b610e2b6117f0565b610e3361187f565b5f60015f8481526020019081526020015f20905060065483101580610e665750806007015f9054906101000a900460ff16155b15610e9d576040517fe0c64bab00000000000000000000000000000000000000000000000000000000815260040160405180910390fd5b60035f8481526020019081526020015f205f8373ffffffffffffffffffffffffffffffffffffffff1673ffffffffffffffffffffffffffffffffffffffff1681526020019081526020015f205f9054906101000a900460ff16610f2c576040517f291fc44200000000000000000000000000000000000000000000000000000000815260040160405180910390fd5b806006015460045f8581526020019081526020015f205f8473ffffffffffffffffffffffffffffffffffffffff1673ffffffffffffffffffffffffffffffffffffffff1681526020019081526020015f205410610f895750610fde565b8173ffffffffffffffffffffffffffffffffffffffff16837f1e12c8aa9742cc69262e1c709fa52dc0828be06572e7f0842352890292373d2f8360020154604051610fd49190611f31565b60405180910390a3505b5050565b60075481565b5f8054906101000a900473ffffffffffffffffffffffffffffffffffffffff1681565b7f000000000000000000000000000000000000000000000000000000000000000081565b61103761187f565b5f60015f8381526020019081526020015f2090506006548210158061106a5750806007015f9054906101000a900460ff16155b156110a1576040517fe0c64bab00000000000000000000000000000000000000000000000000000000815260040160405180910390fd5b60035f8381526020019081526020015f205f3373ffffffffffffffffffffffffffffffffffffffff1673ffffffffffffffffffffffffffffffffffffffff1681526020019081526020015f205f9054906101000a900460ff1615611131576040517f810074be00000000000000000000000000000000000000000000000000000000815260040160405180910390fd5b5f60025f8481526020019081526020015f2080549050905060025f8481526020019081526020015f2033908060018154018082558091505060019003905f5260205f20015f9091909190916101000a81548173ffffffffffffffffffffffffffffffffffffffff021916908373ffffffffffffffffffffffffffffffffffffffff160217905550600160035f8581526020019081526020015f205f3373ffffffffffffffffffffffffffffffffffffffff1673ffffffffffffffffffffffffffffffffffffffff1681526020019081526020015f205f6101000a81548160ff0219169083151502179055503373ffffffffffffffffffffffffffffffffffffffff16837ff4f82575ee84a81aac4be52b6a368e9ba9df524b4f5cf8177d7cfbabe861820c836040516112639190611f31565b60405180910390a3505050565b61127861187f565b61128061194f565b5f60015f8381526020019081526020015f209050600654821015806112b35750806007015f9054906101000a900460ff16155b156112ea576040517fe0c64bab00000000000000000000000000000000000000000000000000000000815260040160405180910390fd5b60035f8381526020019081526020015f205f3373ffffffffffffffffffffffffffffffffffffffff1673ffffffffffffffffffffffffffffffffffffffff1681526020019081526020015f205f9054906101000a900460ff16611379576040517f291fc44200000000000000000000000000000000000000000000000000000000815260040160405180910390fd5b5f815f01549050807f000000000000000000000000000000000000000000000000000000000000000073ffffffffffffffffffffffffffffffffffffffff1663dd62ed3e33306040518363ffffffff1660e01b81526004016113dc9291906123b8565b602060405180830381865afa1580156113f7573d5f803e3d5ffd5b505050506040513d601f19601f8201168201806040525081019061141b91906123f3565b1015611453576040517f13be252b00000000000000000000000000000000000000000000000000000000815260040160405180910390fd5b4260045f8581526020019081526020015f205f3373ffffffffffffffffffffffffffffffffffffffff1673ffffffffffffffffffffffffffffffffffffffff1681526020019081526020015f20819055505f7f000000000000000000000000000000000000000000000000000000000000000073ffffffffffffffffffffffffffffffffffffffff166323b872dd3330856040518463ffffffff1660e01b81526004016115029392919061241e565b6020604051808303815f875af115801561151e573d5f803e3d5ffd5b505050506040513d601f19601f820116820180604052508101906115429190612325565b90508061157b576040517f90b8ec1800000000000000000000000000000000000000000000000000000000815260040160405180910390fd5b5f836004015490503373ffffffffffffffffffffffffffffffffffffffff16857f7f20fe5080bd7a6de86197c87491108691614d098da9edc0f3e2a9f0c52e374085846040516115cc929190612453565b60405180910390a36115de858461199f565b505050506115ea611995565b50565b6002602052815f5260405f208181548110611606575f80fd5b905f5260205f20015f915091509054906101000a900473ffffffffffffffffffffffffffffffffffffffff1681565b6001602052805f5260405f205f91509050805f015490806001015490806002015490806003015f9054906101000a900473ffffffffffffffffffffffffffffffffffffffff1690806004015490806005015490806006015490806007015f9054906101000a900460ff16905088565b6116ac6117f0565b5f73ffffffffffffffffffffffffffffffffffffffff168173ffffffffffffffffffffffffffffffffffffffff160361171a576040517f08c379a0000000000000000000000000000000000000000000000000000000008152600401611711906124ea565b60405180910390fd5b5f805f9054906101000a900473ffffffffffffffffffffffffffffffffffffffff169050815f806101000a81548173ffffffffffffffffffffffffffffffffffffffff021916908373ffffffffffffffffffffffffffffffffffffffff1602179055508173ffffffffffffffffffffffffffffffffffffffff168173ffffffffffffffffffffffffffffffffffffffff167f8be0079c531659141344cd1fd0a4f28419497f9722a3daafe3b4186f6b6457e060405160405180910390a35050565b6005602052805f5260405f205f915090505481565b3373ffffffffffffffffffffffffffffffffffffffff165f8054906101000a900473ffffffffffffffffffffffffffffffffffffffff1673ffffffffffffffffffffffffffffffffffffffff161461187d576040517f08c379a000000000000000000000000000000000000000000000000000000000815260040161187490612552565b60405180910390fd5b565b7f000000000000000000000000000000000000000000000000000000000000000073ffffffffffffffffffffffffffffffffffffffff1663c3c5a547306040518263ffffffff1660e01b81526004016118d89190612015565b602060405180830381865afa1580156118f3573d5f803e3d5ffd5b505050506040513d601f19601f820116820180604052508101906119179190612325565b61194d576040517fd91ed6e200000000000000000000000000000000000000000000000000000000815260040160405180910390fd5b565b60026009540361198b576040517f3ee5aeb500000000000000000000000000000000000000000000000000000000815260040160405180910390fd5b6002600981905550565b6001600981905550565b5f60015f8481526020019081526020015f2090505f60025f8581526020019081526020015f2090505f8180549050036119d9575050611d84565b5f818360040154815481106119f1576119f0612570565b5b905f5260205f20015f9054906101000a900473ffffffffffffffffffffffffffffffffffffffff1690505f73ffffffffffffffffffffffffffffffffffffffff16836003015f9054906101000a900473ffffffffffffffffffffffffffffffffffffffff1673ffffffffffffffffffffffffffffffffffffffff1603611b18578360055f8373ffffffffffffffffffffffffffffffffffffffff1673ffffffffffffffffffffffffffffffffffffffff1681526020019081526020015f205f828254611abd91906121c0565b925050819055508073ffffffffffffffffffffffffffffffffffffffff16857fac496bf04b429bf7a6bb179271f3194066e9462a4f0d8afac065edd1f2be36b886604051611b0b9190611f31565b60405180910390a3611d40565b5f60075f815480929190611b2b90612179565b9190505590506040518060a001604052808781526020018373ffffffffffffffffffffffffffffffffffffffff168152602001856003015f9054906101000a900473ffffffffffffffffffffffffffffffffffffffff1673ffffffffffffffffffffffffffffffffffffffff1681526020018681526020015f151581525060085f8381526020019081526020015f205f820151815f01556020820151816001015f6101000a81548173ffffffffffffffffffffffffffffffffffffffff021916908373ffffffffffffffffffffffffffffffffffffffff1602179055506040820151816002015f6101000a81548173ffffffffffffffffffffffffffffffffffffffff021916908373ffffffffffffffffffffffffffffffffffffffff160217905550606082015181600301556080820151816004015f6101000a81548160ff0219169083151502179055509050508173ffffffffffffffffffffffffffffffffffffffff1686827fa96863da5e2cb895c2d739ef4b0a2bf93464d7bb3a3bf098c0af12c1b404c43a876003015f9054906101000a900473ffffffffffffffffffffffffffffffffffffffff1689604051611ce79291906122d4565b60405180910390a48173ffffffffffffffffffffffffffffffffffffffff16867fac496bf04b429bf7a6bb179271f3194066e9462a4f0d8afac065edd1f2be36b887604051611d369190611f31565b60405180910390a3505b818054905060018460040154611d5691906121c0565b611d6091906125ca565b8360040181905550826001015442611d7891906121c0565b83600601819055505050505b5050565b5f80fd5b5f819050919050565b611d9e81611d8c565b8114611da8575f80fd5b50565b5f81359050611db981611d95565b92915050565b5f60208284031215611dd457611dd3611d88565b5b5f611de184828501611dab565b91505092915050565b611df381611d8c565b82525050565b5f73ffffffffffffffffffffffffffffffffffffffff82169050919050565b5f611e2282611df9565b9050919050565b611e3281611e18565b82525050565b5f8115159050919050565b611e4c81611e38565b82525050565b5f60a082019050611e655f830188611dea565b611e726020830187611e29565b611e7f6040830186611e29565b611e8c6060830185611dea565b611e996080830184611e43565b9695505050505050565b611eac81611e18565b8114611eb6575f80fd5b50565b5f81359050611ec781611ea3565b92915050565b5f805f8060808587031215611ee557611ee4611d88565b5b5f611ef287828801611dab565b9450506020611f0387828801611dab565b9350506040611f1487828801611dab565b9250506060611f2587828801611eb9565b91505092959194509250565b5f602082019050611f445f830184611dea565b92915050565b5f819050919050565b5f611f6d611f68611f6384611df9565b611f4a565b611df9565b9050919050565b5f611f7e82611f53565b9050919050565b5f611f8f82611f74565b9050919050565b611f9f81611f85565b82525050565b5f602082019050611fb85f830184611f96565b92915050565b5f8060408385031215611fd457611fd3611d88565b5b5f611fe185828601611dab565b9250506020611ff285828601611eb9565b9150509250929050565b5f60208201905061200f5f830184611e43565b92915050565b5f6020820190506120285f830184611e29565b92915050565b5f61203882611f74565b9050919050565b6120488161202e565b82525050565b5f6020820190506120615f83018461203f565b92915050565b5f806040838503121561207d5761207c611d88565b5b5f61208a85828601611dab565b925050602061209b85828601611dab565b9150509250929050565b5f610100820190506120b95f83018b611dea565b6120c6602083018a611dea565b6120d36040830189611dea565b6120e06060830188611e29565b6120ed6080830187611dea565b6120fa60a0830186611dea565b61210760c0830185611dea565b61211460e0830184611e43565b9998505050505050505050565b5f6020828403121561213657612135611d88565b5b5f61214384828501611eb9565b91505092915050565b7f4e487b71000000000000000000000000000000000000000000000000000000005f52601160045260245ffd5b5f61218382611d8c565b91507fffffffffffffffffffffffffffffffffffffffffffffffffffffffffffffffff82036121b5576121b461214c565b5b600182019050919050565b5f6121ca82611d8c565b91506121d583611d8c565b92508282019050808211156121ed576121ec61214c565b5b92915050565b5f6080820190506122065f830187611dea565b6122136020830186611dea565b6122206040830185611dea565b61222d6060830184611e29565b95945050505050565b5f82825260208201905092915050565b7f546f6e74696e65457363726f773a206e6f7468696e6720746f207769746864725f8201527f6177000000000000000000000000000000000000000000000000000000000000602082015250565b5f6122a0602283612236565b91506122ab82612246565b604082019050919050565b5f6020820190508181035f8301526122cd81612294565b9050919050565b5f6040820190506122e75f830185611e29565b6122f46020830184611dea565b9392505050565b61230481611e38565b811461230e575f80fd5b50565b5f8151905061231f816122fb565b92915050565b5f6020828403121561233a57612339611d88565b5b5f61234784828501612311565b91505092915050565b7f546f6e74696e65457363726f773a207472616e73666572206661696c656400005f82015250565b5f612384601e83612236565b915061238f82612350565b602082019050919050565b5f6020820190508181035f8301526123b181612378565b9050919050565b5f6040820190506123cb5f830185611e29565b6123d86020830184611e29565b9392505050565b5f815190506123ed81611d95565b92915050565b5f6020828403121561240857612407611d88565b5b5f612415848285016123df565b91505092915050565b5f6060820190506124315f830186611e29565b61243e6020830185611e29565b61244b6040830184611dea565b949350505050565b5f6040820190506124665f830185611dea565b6124736020830184611dea565b9392505050565b7f4f776e61626c653a206e6577206f776e657220697320746865207a65726f20615f8201527f6464726573730000000000000000000000000000000000000000000000000000602082015250565b5f6124d4602683612236565b91506124df8261247a565b604082019050919050565b5f6020820190508181035f830152612501816124c8565b9050919050565b7f4f776e61626c653a2063616c6c6572206973206e6f7420746865206f776e65725f82015250565b5f61253c602083612236565b915061254782612508565b602082019050919050565b5f6020820190508181035f83015261256981612530565b9050919050565b7f4e487b71000000000000000000000000000000000000000000000000000000005f52603260045260245ffd5b7f4e487b71000000000000000000000000000000000000000000000000000000005f52601260045260245ffd5b5f6125d482611d8c565b91506125df83611d8c565b9250826125ef576125ee61259d565b5b82820690509291505056fea26469706673582212203197ff9e834cfb1421dd9f923e7539e6b8efeda10bf16af941941f85609da4e064736f6c634300081a0033","linkReferences":{}},"methodIdentifiers":{"NEXUS_REGISTRY()":"3d558dd9","STABLECOIN()":"93a39776","contribute(uint256)":"c1cbbca7","createTontine(uint256,uint256,uint256,address)":"2a4d480e","emergencyRefund(uint256)":"70e5deb9","escrows(uint256)":"012f52ee","getEscrow(uint256)":"7d19e596","isMember(uint256,address)":"7d9e10f5","joinTontine(uint256)":"a7bedfdf","lastPaidAt(uint256,address)":"74fdfce0","nextEscrowId()":"89cb29dd","nextTontineId()":"386b6ede","owner()":"8da5cb5b","pendingWithdrawals(address)":"f3f43703","releaseFunds(uint256)":"4d68282f","slashCollateral(uint256,address)":"831fe39b","tontineGroups(uint256)":"f134055c","tontineMembers(uint256,uint256)":"ee98e55e","transferOwnership(address)":"f2fde38b","withdraw()":"3ccfd60b"},"id":27}