{"abi":[{"type":"constructor","inputs":[{"name":"_nexusRegistry","type":"address","internalType":"address"},{"name":"_stablecoin","type":"address","internalType":"address"}],"stateMutability":"nonpayable"},{"type":"function","name":"NEXUS_REGISTRY","inputs":[],"outputs":[{"name":"","type":"address","internalType":"contract INexusRegistry"}],"stateMutability":"view"},{"type":"function","name":"STABLECOIN","inputs":[],"outputs":[{"name":"","type":"address","internalType":"contract IMockUSDT"}],"stateMutability":"view"},{"type":"function","name":"contribute","inputs":[{"name":"tontineId","type":"uint256","internalType":"uint256"}],"outputs":[],"stateMutability":"nonpayable"},{"type":"function","name":"createTontine","inputs":[{"name":"contributionAmount","type":"uint256","internalType":"uint256"},{"name":"frequencySeconds","type":"uint256","internalType":"uint256"},{"name":"collateralAmount","type":"uint256","internalType":"uint256"},{"name":"serviceProvider","type":"address","internalType":"address"}],"outputs":[{"name":"tontineId","type":"uint256","internalType":"uint256"}],"stateMutability":"nonpayable"},{"type":"function","name":"emergencyRefund","inputs":[{"name":"escrowId","type":"uint256","internalType":"uint256"}],"outputs":[],"stateMutability":"nonpayable"},{"type":"function","name":"escrows","inputs":[{"name":"","type":"uint256","internalType":"uint256"}],"outputs":[{"name":"tontineId","type":"uint256","internalType":"uint256"},{"name":"winner","type":"address","internalType":"address"},{"name":"provider","type":"address","internalType":"address"},{"name":"amount","type":"uint256","internalType":"uint256"},{"name":"released","type":"bool","internalType":"bool"}],"stateMutability":"view"},{"type":"function","name":"getEscrow","inputs":[{"name":"escrowId","type":"uint256","internalType":"uint256"}],"outputs":[{"name":"tontineId","type":"uint256","internalType":"uint256"},{"name":"winner","type":"address","internalType":"address"},{"name":"provider","type":"address","internalType":"address"},{"name":"amount","type":"uint256","internalType":"uint256"},{"name":"released","type":"bool","internalType":"bool"}],"stateMutability":"view"},{"type":"function","name":"isMember","inputs":[{"name":"","type":"uint256","internalType":"uint256"},{"name":"","type":"address","internalType":"address"}],"outputs":[{"name":"","type":"bool","internalType":"bool"}],"stateMutability":"view"},{"type":"function","name":"joinTontine","inputs":[{"name":"tontineId","type":"uint256","internalType":"uint256"}],"outputs":[],"stateMutability":"nonpayable"},{"type":"function","name":"lastPaidAt","inputs":[{"name":"","type":"uint256","internalType":"uint256"},{"name":"","type":"address","internalType":"address"}],"outputs":[{"name":"","type":"uint256","internalType":"uint256"}],"stateMutability":"view"},{"type":"function","name":"nextEscrowId","inputs":[],"outputs":[{"name":"","type":"uint256","internalType":"uint256"}],"stateMutability":"view"},{"type":"function","name":"nextTontineId","inputs":[],"outputs":[{"name":"","type":"uint256","internalType":"uint256"}],"stateMutability":"view"},{"type":"function","name":"owner","inputs":[],"outputs":[{"name":"","type":"address","internalType":"address"}],"stateMutability":"view"},{"type":"function","name":"pendingWithdrawals","inputs":[{"name":"","type":"address","internalType":"address"}],"outputs":[{"name":"","type":"uint256","internalType":"uint256"}],"stateMutability":"view"},{"type":"function","name":"releaseFunds","inputs":[{"name":"escrowId","type":"uint256","internalType":"uint256"}],"outputs":[],"stateMutability":"nonpayable"},{"type":"function","name":"slashCollateral","inputs":[{"name":"tontineId","type":"uint256","internalType":"uint256"},{"name":"member","type":"address","internalType":"address"}],"outputs":[],"stateMutability":"nonpayable"},{"type":"function","name":"tontineGroups","inputs":[{"name":"","type":"uint256","internalType":"uint256"}],"outputs":[{"name":"contributionAmount","type":"uint256","internalType":"uint256"},{"name":"frequencySeconds","type":"uint256","internalType":"uint256"},{"name":"collateralAmount","type":"uint256","internalType":"uint256"},{"name":"serviceProvider","type":"address","internalType":"address"},{"name":"currentTurnIndex","type":"uint256","internalType":"uint256"},{"name":"createdAt","type":"uint256","internalType":"uint256"},{"name":"nextDueAt","type":"uint256","internalType":"uint256"},{"name":"active","type":"bool","internalType":"bool"}],"stateMutability":"view"},{"type":"function","name":"tontineMembers","inputs":[{"name":"","type":"uint256","internalType":"uint256"},{"name":"","type":"uint256","internalType":"uint256"}],"outputs":[{"name":"","type":"address","internalType":"address"}],"stateMutability":"view"},{"type":"function","name":"transferOwnership","inputs":[{"name":"newOwner","type":"address","internalType":"address"}],"outputs":[],"stateMutability":"nonpayable"},{"type":"function","name":"withdraw","inputs":[],"outputs":[],"stateMutability":"nonpayable"},{"type":"event","name":"CollateralSlashed","inputs":[{"name":"tontineId","type":"uint256","indexed":true,"internalType":"uint256"},{"name":"member","type":"address","indexed":true,"internalType":"address"},{"name":"amount","type":"uint256","indexed":false,"internalType":"uint256"}],"anonymous":false},{"type":"event","name":"ContributionPaid","inputs":[{"name":"tontineId","type":"uint256","indexed":true,"internalType":"uint256"},{"name":"member","type":"address","indexed":true,"internalType":"address"},{"name":"amount","type":"uint256","indexed":false,"internalType":"uint256"},{"name":"turnIndex","type":"uint256","indexed":false,"internalType":"uint256"}],"anonymous":false},{"type":"event","name":"EmergencyRefund","inputs":[{"name":"escrowId","type":"uint256","indexed":true,"internalType":"uint256"},{"name":"to","type":"address","indexed":true,"internalType":"address"},{"name":"amount","type":"uint256","indexed":false,"internalType":"uint256"}],"anonymous":false},{"type":"event","name":"EscrowCreated","inputs":[{"name":"escrowId","type":"uint256","indexed":true,"internalType":"uint256"},{"name":"tontineId","type":"uint256","indexed":true,"internalType":"uint256"},{"name":"winner","type":"address","indexed":true,"internalType":"address"},{"name":"provider","type":"address","indexed":false,"internalType":"address"},{"name":"amount","type":"uint256","indexed":false,"internalType":"uint256"}],"anonymous":false},{"type":"event","name":"FundsReleased","inputs":[{"name":"escrowId","type":"uint256","indexed":true,"internalType":"uint256"},{"name":"provider","type":"address","indexed":true,"internalType":"address"},{"name":"amount","type":"uint256","indexed":false,"internalType":"uint256"}],"anonymous":false},{"type":"event","name":"MemberJoined","inputs":[{"name":"tontineId","type":"uint256","indexed":true,"internalType":"uint256"},{"name":"member","type":"address","indexed":true,"internalType":"address"},{"name":"turnPosition","type":"uint256","indexed":false,"internalType":"uint256"}],"anonymous":false},{"type":"event","name":"OwnershipTransferred","inputs":[{"name":"previousOwner","type":"address","indexed":true,"internalType":"address"},{"name":"newOwner","type":"address","indexed":true,"internalType":"address"}],"anonymous":false},{"type":"event","name":"PayoutSent","inputs":[{"name":"tontineId","type":"uint256","indexed":true,"internalType":"uint256"},{"name":"beneficiary","type":"address","indexed":true,"internalType":"address"},{"name":"amount","type":"uint256","indexed":false,"internalType":"uint256"}],"anonymous":false},{"type":"event","name":"TontineCreated","inputs":[{"name":"tontineId","type":"uint256","indexed":true,"internalType":"uint256"},{"name":"contributionAmount","type":"uint256","indexed":false,"internalType":"uint256"},{"name":"frequencySeconds","type":"uint256","indexed":false,"internalType":"uint256"},{"name":"collateralAmount","type":"uint256","indexed":false,"internalType":"uint256"},{"name":"serviceProvider","type":"address","indexed":false,"internalType":"address"}],"anonymous":false},{"type":"event","name":"Withdrawal","inputs":[{"name":"user","type":"address","indexed":true,"internalType":"address"},{"name":"amount","type":"uint256","indexed":false,"internalType":"uint256"}],"anonymous":false},{"type":"error","name":"AlreadyMember","inputs":[]},{"type":"error","name":"AlreadyReleased","inputs":[]},{"type":"error","name":"EscrowNotFound","inputs":[]},{"type":"error","name":"InsufficientAllowance","inputs":[]},{"type":"error","name":"InvalidTontine","inputs":[]},{"type":"error","name":"NotMember","inputs":[]},{"type":"error","name":"NotRegisteredService","inputs":[]},{"type":"error","name":"NotWinner","inputs":[]},{"type":"error","name":"NotYourTurn","inputs":[]},{"type":"error","name":"ReentrancyGuardReentrantCall","inputs":[]},{"type":"error","name":"TontineNotActive","inputs":[]},{"type":"error","name":"TooEarly","inputs":[]},{"type":"error","name":"TransferFailed","inputs":[]}],"bytecode":{"object":"0x60c060405234801561000f575f80fd5b506040516128503803806128508339818101604052810190610031919061019f565b335f806101000a81548173ffffffffffffffffffffffffffffffffffffffff021916908373ffffffffffffffffffffffffffffffffffffffff1602179055503373ffffffffffffffffffffffffffffffffffffffff165f73ffffffffffffffffffffffffffffffffffffffff167f8be0079c531659141344cd1fd0a4f28419497f9722a3daafe3b4186f6b6457e060405160405180910390a38173ffffffffffffffffffffffffffffffffffffffff1660808173ffffffffffffffffffffffffffffffffffffffff16815250508073ffffffffffffffffffffffffffffffffffffffff1660a08173ffffffffffffffffffffffffffffffffffffffff1681525050600160098190555050506101dd565b5f80fd5b5f73ffffffffffffffffffffffffffffffffffffffff82169050919050565b5f61016e82610145565b9050919050565b61017e81610164565b8114610188575f80fd5b50565b5f8151905061019981610175565b92915050565b5f80604083850312156101b5576101b4610141565b5b5f6101c28582860161018b565b92505060206101d38582860161018b565b9150509250929050565b60805160a0516126286102285f395f81816106cf0152818161097001528181610bbd015281816110050152818161137b015261149f01525f818161080601526117ea01526126285ff3fe608060405234801561000f575f80fd5b506004361061012a575f3560e01c8063831fe39b116100ab578063c1cbbca71161006f578063c1cbbca714610336578063ee98e55e14610352578063f134055c14610382578063f2fde38b146103b9578063f3f43703146103d55761012a565b8063831fe39b146102a457806389cb29dd146102c05780638da5cb5b146102de57806393a39776146102fc578063a7bedfdf1461031a5761012a565b80634d68282f116100f25780634d68282f146101d857806370e5deb9146101f457806374fdfce0146102105780637d19e596146102405780637d9e10f5146102745761012a565b8063012f52ee1461012e5780632a4d480e14610162578063386b6ede146101925780633ccfd60b146101b05780633d558dd9146101ba575b5f80fd5b61014860048036038101906101439190611db7565b610405565b604051610159959493929190611e4a565b60405180910390f35b61017c60048036038101906101779190611ec5565b610481565b6040516101899190611f29565b60405180910390f35b61019a6105f9565b6040516101a79190611f29565b60405180910390f35b6101b86105ff565b005b6101c2610804565b6040516101cf9190611f9d565b60405180910390f35b6101f260048036038101906101ed9190611db7565b610828565b005b61020e60048036038101906102099190611db7565b610af5565b005b61022a60048036038101906102259190611fb6565b610d42565b6040516102379190611f29565b60405180910390f35b61025a60048036038101906102559190611db7565b610d62565b60405161026b959493929190611e4a565b60405180910390f35b61028e60048036038101906102899190611fb6565b610df1565b60405161029b9190611ff4565b60405180910390f35b6102be60048036038101906102b99190611fb6565b610e1b565b005b6102c8610fda565b6040516102d59190611f29565b60405180910390f35b6102e6610fe0565b6040516102f3919061200d565b60405180910390f35b610304611003565b6040516103119190612046565b60405180910390f35b610334600480360381019061032f9190611db7565b611027565b005b610350600480360381019061034b9190611db7565b611268565b005b61036c6004803603810190610367919061205f565b6115e5565b604051610379919061200d565b60405180910390f35b61039c60048036038101906103979190611db7565b61162d565b6040516103b098979695949392919061209d565b60405180910390f35b6103d360048036038101906103ce9190612119565b61169c565b005b6103ef60048036038101906103ea9190612119565b6117d3565b6040516103fc9190611f29565b60405180910390f35b6008602052805f5260405f205f91509050805f015490806001015f9054906101000a900473ffffffffffffffffffffffffffffffffffffffff1690806002015f9054906101000a900473ffffffffffffffffffffffffffffffffffffffff1690806003015490806004015f9054906101000a900460ff16905085565b5f61048a6117e8565b60065f81548092919061049c90612171565b9190505590506040518061010001604052808681526020018581526020018481526020018373ffffffffffffffffffffffffffffffffffffffff1681526020015f815260200142815260200185426104f491906121b8565b81526020016001151581525060015f8381526020019081526020015f205f820151815f015560208201518160010155604082015181600201556060820151816003015f6101000a81548173ffffffffffffffffffffffffffffffffffffffff021916908373ffffffffffffffffffffffffffffffffffffffff1602179055506080820151816004015560a0820151816005015560c0820151816006015560e0820151816007015f6101000a81548160ff021916908315150217905550905050807ff08c1e3e0a2e736a41e96c079b1f07d69377ab0d703b47098932eb2ae4ca8908868686866040516105e994939291906121eb565b60405180910390a2949350505050565b60065481565b6106076118b8565b5f60055f3373ffffffffffffffffffffffffffffffffffffffff1673ffffffffffffffffffffffffffffffffffffffff1681526020019081526020015f205490505f811161068a576040517f08c379a0000000000000000000000000000000000000000000000000000000008152600401610681906122ae565b60405180910390fd5b5f60055f3373ffffffffffffffffffffffffffffffffffffffff1673ffffffffffffffffffffffffffffffffffffffff1681526020019081526020015f20819055505f7f000000000000000000000000000000000000000000000000000000000000000073ffffffffffffffffffffffffffffffffffffffff1663a9059cbb33846040518363ffffffff1660e01b81526004016107289291906122cc565b6020604051808303815f875af1158015610744573d5f803e3d5ffd5b505050506040513d601f19601f82011682018060405250810190610768919061231d565b9050806107aa576040517f08c379a00000000000000000000000000000000000000000000000000000000081526004016107a190612392565b60405180910390fd5b3373ffffffffffffffffffffffffffffffffffffffff167f7fcf532c15f0a6db0bd6d0e038bea71d30d808c7d98cb3bf7268a95bf5081b65836040516107f09190611f29565b60405180910390a250506108026118fe565b565b7f000000000000000000000000000000000000000000000000000000000000000081565b6108306118b8565b5f60085f8381526020019081526020015f2090505f816003015403610881576040517ff1d80ab100000000000000000000000000000000000000000000000000000000815260040160405180910390fd5b806004015f9054906101000a900460ff16156108c9576040517f63b4904e00000000000000000000000000000000000000000000000000000000815260040160405180910390fd5b806001015f9054906101000a900473ffffffffffffffffffffffffffffffffffffffff1673ffffffffffffffffffffffffffffffffffffffff163373ffffffffffffffffffffffffffffffffffffffff1614610951576040517f618c724200000000000000000000000000000000000000000000000000000000815260040160405180910390fd5b6001816004015f6101000a81548160ff0219169083151502179055505f7f000000000000000000000000000000000000000000000000000000000000000073ffffffffffffffffffffffffffffffffffffffff1663a9059cbb836002015f9054906101000a900473ffffffffffffffffffffffffffffffffffffffff1684600301546040518363ffffffff1660e01b81526004016109f09291906122cc565b6020604051808303815f875af1158015610a0c573d5f803e3d5ffd5b505050506040513d601f19601f82011682018060405250810190610a30919061231d565b905080610a72576040517f08c379a0000000000000000000000000000000000000000000000000000000008152600401610a6990612392565b60405180910390fd5b816002015f9054906101000a900473ffffffffffffffffffffffffffffffffffffffff1673ffffffffffffffffffffffffffffffffffffffff16837f6e3c6096795c8298a218b2cfb8bde42726ff7c9a3d27b4d3ba41ab7f74feb5fb8460030154604051610ae09190611f29565b60405180910390a35050610af26118fe565b50565b610afd611908565b610b056118b8565b5f60085f8381526020019081526020015f2090505f816003015403610b56576040517ff1d80ab100000000000000000000000000000000000000000000000000000000815260040160405180910390fd5b806004015f9054906101000a900460ff1615610b9e576040517f63b4904e00000000000000000000000000000000000000000000000000000000815260040160405180910390fd5b6001816004015f6101000a81548160ff0219169083151502179055505f7f000000000000000000000000000000000000000000000000000000000000000073ffffffffffffffffffffffffffffffffffffffff1663a9059cbb836001015f9054906101000a900473ffffffffffffffffffffffffffffffffffffffff1684600301546040518363ffffffff1660e01b8152600401610c3d9291906122cc565b6020604051808303815f875af1158015610c59573d5f803e3d5ffd5b505050506040513d601f19601f82011682018060405250810190610c7d919061231d565b905080610cbf576040517f08c379a0000000000000000000000000000000000000000000000000000000008152600401610cb690612392565b60405180910390fd5b816001015f9054906101000a900473ffffffffffffffffffffffffffffffffffffffff1673ffffffffffffffffffffffffffffffffffffffff16837fbd634c7bdf536d4ef89dad94ea8933d03e5fbb8be4f85fc7699f5859497d793f8460030154604051610d2d9190611f29565b60405180910390a35050610d3f6118fe565b50565b6004602052815f5260405f20602052805f5260405f205f91509150505481565b5f805f805f8060085f8881526020019081526020015f209050805f0154816001015f9054906101000a900473ffffffffffffffffffffffffffffffffffffffff16826002015f9054906101000a900473ffffffffffffffffffffffffffffffffffffffff168360030154846004015f9054906101000a900460ff16955095509550955095505091939590929450565b6003602052815f5260405f20602052805f5260405f205f915091509054906101000a900460ff1681565b610e23611908565b610e2b6117e8565b5f60015f8481526020019081526020015f20905060065483101580610e5e5750806007015f9054906101000a900460ff16155b15610e95576040517fe0c64bab00000000000000000000000000000000000000000000000000000000815260040160405180910390fd5b60035f8481526020019081526020015f205f8373ffffffffffffffffffffffffffffffffffffffff1673ffffffffffffffffffffffffffffffffffffffff1681526020019081526020015f205f9054906101000a900460ff16610f24576040517f291fc44200000000000000000000000000000000000000000000000000000000815260040160405180910390fd5b806006015460045f8581526020019081526020015f205f8473ffffffffffffffffffffffffffffffffffffffff1673ffffffffffffffffffffffffffffffffffffffff1681526020019081526020015f205410610f815750610fd6565b8173ffffffffffffffffffffffffffffffffffffffff16837f1e12c8aa9742cc69262e1c709fa52dc0828be06572e7f0842352890292373d2f8360020154604051610fcc9190611f29565b60405180910390a3505b5050565b60075481565b5f8054906101000a900473ffffffffffffffffffffffffffffffffffffffff1681565b7f000000000000000000000000000000000000000000000000000000000000000081565b61102f6117e8565b5f60015f8381526020019081526020015f209050600654821015806110625750806007015f9054906101000a900460ff16155b15611099576040517fe0c64bab00000000000000000000000000000000000000000000000000000000815260040160405180910390fd5b60035f8381526020019081526020015f205f3373ffffffffffffffffffffffffffffffffffffffff1673ffffffffffffffffffffffffffffffffffffffff1681526020019081526020015f205f9054906101000a900460ff1615611129576040517f810074be00000000000000000000000000000000000000000000000000000000815260040160405180910390fd5b5f60025f8481526020019081526020015f2080549050905060025f8481526020019081526020015f2033908060018154018082558091505060019003905f5260205f20015f9091909190916101000a81548173ffffffffffffffffffffffffffffffffffffffff021916908373ffffffffffffffffffffffffffffffffffffffff160217905550600160035f8581526020019081526020015f205f3373ffffffffffffffffffffffffffffffffffffffff1673ffffffffffffffffffffffffffffffffffffffff1681526020019081526020015f205f6101000a81548160ff0219169083151502179055503373ffffffffffffffffffffffffffffffffffffffff16837ff4f82575ee84a81aac4be52b6a368e9ba9df524b4f5cf8177d7cfbabe861820c8360405161125b9190611f29565b60405180910390a3505050565b6112706117e8565b6112786118b8565b5f60015f8381526020019081526020015f209050600654821015806112ab5750806007015f9054906101000a900460ff16155b156112e2576040517fe0c64bab00000000000000000000000000000000000000000000000000000000815260040160405180910390fd5b60035f8381526020019081526020015f205f3373ffffffffffffffffffffffffffffffffffffffff1673ffffffffffffffffffffffffffffffffffffffff1681526020019081526020015f205f9054906101000a900460ff16611371576040517f291fc44200000000000000000000000000000000000000000000000000000000815260040160405180910390fd5b5f815f01549050807f000000000000000000000000000000000000000000000000000000000000000073ffffffffffffffffffffffffffffffffffffffff1663dd62ed3e33306040518363ffffffff1660e01b81526004016113d49291906123b0565b602060405180830381865afa1580156113ef573d5f803e3d5ffd5b505050506040513d601f19601f8201168201806040525081019061141391906123eb565b101561144b576040517f13be252b00000000000000000000000000000000000000000000000000000000815260040160405180910390fd5b4260045f8581526020019081526020015f205f3373ffffffffffffffffffffffffffffffffffffffff1673ffffffffffffffffffffffffffffffffffffffff1681526020019081526020015f20819055505f7f000000000000000000000000000000000000000000000000000000000000000073ffffffffffffffffffffffffffffffffffffffff166323b872dd3330856040518463ffffffff1660e01b81526004016114fa93929190612416565b6020604051808303815f875af1158015611516573d5f803e3d5ffd5b505050506040513d601f19601f8201168201806040525081019061153a919061231d565b905080611573576040517f90b8ec1800000000000000000000000000000000000000000000000000000000815260040160405180910390fd5b5f836004015490503373ffffffffffffffffffffffffffffffffffffffff16857f7f20fe5080bd7a6de86197c87491108691614d098da9edc0f3e2a9f0c52e374085846040516115c492919061244b565b60405180910390a36115d68584611997565b505050506115e26118fe565b50565b6002602052815f5260405f2081815481106115fe575f80fd5b905f5260205f20015f915091509054906101000a900473ffffffffffffffffffffffffffffffffffffffff1681565b6001602052805f5260405f205f91509050805f015490806001015490806002015490806003015f9054906101000a900473ffffffffffffffffffffffffffffffffffffffff1690806004015490806005015490806006015490806007015f9054906101000a900460ff16905088565b6116a4611908565b5f73ffffffffffffffffffffffffffffffffffffffff168173ffffffffffffffffffffffffffffffffffffffff1603611712576040517f08c379a0000000000000000000000000000000000000000000000000000000008152600401611709906124e2565b60405180910390fd5b5f805f9054906101000a900473ffffffffffffffffffffffffffffffffffffffff169050815f806101000a81548173ffffffffffffffffffffffffffffffffffffffff021916908373ffffffffffffffffffffffffffffffffffffffff1602179055508173ffffffffffffffffffffffffffffffffffffffff168173ffffffffffffffffffffffffffffffffffffffff167f8be0079c531659141344cd1fd0a4f28419497f9722a3daafe3b4186f6b6457e060405160405180910390a35050565b6005602052805f5260405f205f915090505481565b7f000000000000000000000000000000000000000000000000000000000000000073ffffffffffffffffffffffffffffffffffffffff1663c3c5a547306040518263ffffffff1660e01b8152600401611841919061200d565b602060405180830381865afa15801561185c573d5f803e3d5ffd5b505050506040513d601f19601f82011682018060405250810190611880919061231d565b6118b6576040517fd91ed6e200000000000000000000000000000000000000000000000000000000815260040160405180910390fd5b565b6002600954036118f4576040517f3ee5aeb500000000000000000000000000000000000000000000000000000000815260040160405180910390fd5b6002600981905550565b6001600981905550565b3373ffffffffffffffffffffffffffffffffffffffff165f8054906101000a900473ffffffffffffffffffffffffffffffffffffffff1673ffffffffffffffffffffffffffffffffffffffff1614611995576040517f08c379a000000000000000000000000000000000000000000000000000000000815260040161198c9061254a565b60405180910390fd5b565b5f60015f8481526020019081526020015f2090505f60025f8581526020019081526020015f2090505f8180549050036119d1575050611d7c565b5f818360040154815481106119e9576119e8612568565b5b905f5260205f20015f9054906101000a900473ffffffffffffffffffffffffffffffffffffffff1690505f73ffffffffffffffffffffffffffffffffffffffff16836003015f9054906101000a900473ffffffffffffffffffffffffffffffffffffffff1673ffffffffffffffffffffffffffffffffffffffff1603611b10578360055f8373ffffffffffffffffffffffffffffffffffffffff1673ffffffffffffffffffffffffffffffffffffffff1681526020019081526020015f205f828254611ab591906121b8565b925050819055508073ffffffffffffffffffffffffffffffffffffffff16857fac496bf04b429bf7a6bb179271f3194066e9462a4f0d8afac065edd1f2be36b886604051611b039190611f29565b60405180910390a3611d38565b5f60075f815480929190611b2390612171565b9190505590506040518060a001604052808781526020018373ffffffffffffffffffffffffffffffffffffffff168152602001856003015f9054906101000a900473ffffffffffffffffffffffffffffffffffffffff1673ffffffffffffffffffffffffffffffffffffffff1681526020018681526020015f151581525060085f8381526020019081526020015f205f820151815f01556020820151816001015f6101000a81548173ffffffffffffffffffffffffffffffffffffffff021916908373ffffffffffffffffffffffffffffffffffffffff1602179055506040820151816002015f6101000a81548173ffffffffffffffffffffffffffffffffffffffff021916908373ffffffffffffffffffffffffffffffffffffffff160217905550606082015181600301556080820151816004015f6101000a81548160ff0219169083151502179055509050508173ffffffffffffffffffffffffffffffffffffffff1686827fa96863da5e2cb895c2d739ef4b0a2bf93464d7bb3a3bf098c0af12c1b404c43a876003015f9054906101000a900473ffffffffffffffffffffffffffffffffffffffff1689604051611cdf9291906122cc565b60405180910390a48173ffffffffffffffffffffffffffffffffffffffff16867fac496bf04b429bf7a6bb179271f3194066e9462a4f0d8afac065edd1f2be36b887604051611d2e9190611f29565b60405180910390a3505b818054905060018460040154611d4e91906121b8565b611d5891906125c2565b8360040181905550826001015442611d7091906121b8565b83600601819055505050505b5050565b5f80fd5b5f819050919050565b611d9681611d84565b8114611da0575f80fd5b50565b5f81359050611db181611d8d565b92915050565b5f60208284031215611dcc57611dcb611d80565b5b5f611dd984828501611da3565b91505092915050565b611deb81611d84565b82525050565b5f73ffffffffffffffffffffffffffffffffffffffff82169050919050565b5f611e1a82611df1565b9050919050565b611e2a81611e10565b82525050565b5f8115159050919050565b611e4481611e30565b82525050565b5f60a082019050611e5d5f830188611de2565b611e6a6020830187611e21565b611e776040830186611e21565b611e846060830185611de2565b611e916080830184611e3b565b9695505050505050565b611ea481611e10565b8114611eae575f80fd5b50565b5f81359050611ebf81611e9b565b92915050565b5f805f8060808587031215611edd57611edc611d80565b5b5f611eea87828801611da3565b9450506020611efb87828801611da3565b9350506040611f0c87828801611da3565b9250506060611f1d87828801611eb1565b91505092959194509250565b5f602082019050611f3c5f830184611de2565b92915050565b5f819050919050565b5f611f65611f60611f5b84611df1565b611f42565b611df1565b9050919050565b5f611f7682611f4b565b9050919050565b5f611f8782611f6c565b9050919050565b611f9781611f7d565b82525050565b5f602082019050611fb05f830184611f8e565b92915050565b5f8060408385031215611fcc57611fcb611d80565b5b5f611fd985828601611da3565b9250506020611fea85828601611eb1565b9150509250929050565b5f6020820190506120075f830184611e3b565b92915050565b5f6020820190506120205f830184611e21565b92915050565b5f61203082611f6c565b9050919050565b61204081612026565b82525050565b5f6020820190506120595f830184612037565b92915050565b5f806040838503121561207557612074611d80565b5b5f61208285828601611da3565b925050602061209385828601611da3565b9150509250929050565b5f610100820190506120b15f83018b611de2565b6120be602083018a611de2565b6120cb6040830189611de2565b6120d86060830188611e21565b6120e56080830187611de2565b6120f260a0830186611de2565b6120ff60c0830185611de2565b61210c60e0830184611e3b565b9998505050505050505050565b5f6020828403121561212e5761212d611d80565b5b5f61213b84828501611eb1565b91505092915050565b7f4e487b71000000000000000000000000000000000000000000000000000000005f52601160045260245ffd5b5f61217b82611d84565b91507fffffffffffffffffffffffffffffffffffffffffffffffffffffffffffffffff82036121ad576121ac612144565b5b600182019050919050565b5f6121c282611d84565b91506121cd83611d84565b92508282019050808211156121e5576121e4612144565b5b92915050565b5f6080820190506121fe5f830187611de2565b61220b6020830186611de2565b6122186040830185611de2565b6122256060830184611e21565b95945050505050565b5f82825260208201905092915050565b7f546f6e74696e65457363726f773a206e6f7468696e6720746f207769746864725f8201527f6177000000000000000000000000000000000000000000000000000000000000602082015250565b5f61229860228361222e565b91506122a38261223e565b604082019050919050565b5f6020820190508181035f8301526122c58161228c565b9050919050565b5f6040820190506122df5f830185611e21565b6122ec6020830184611de2565b9392505050565b6122fc81611e30565b8114612306575f80fd5b50565b5f81519050612317816122f3565b92915050565b5f6020828403121561233257612331611d80565b5b5f61233f84828501612309565b91505092915050565b7f546f6e74696e65457363726f773a207472616e73666572206661696c656400005f82015250565b5f61237c601e8361222e565b915061238782612348565b602082019050919050565b5f6020820190508181035f8301526123a981612370565b9050919050565b5f6040820190506123c35f830185611e21565b6123d06020830184611e21565b9392505050565b5f815190506123e581611d8d565b92915050565b5f60208284031215612400576123ff611d80565b5b5f61240d848285016123d7565b91505092915050565b5f6060820190506124295f830186611e21565b6124366020830185611e21565b6124436040830184611de2565b949350505050565b5f60408201905061245e5f830185611de2565b61246b6020830184611de2565b9392505050565b7f4f776e61626c653a206e6577206f776e657220697320746865207a65726f20615f8201527f6464726573730000000000000000000000000000000000000000000000000000602082015250565b5f6124cc60268361222e565b91506124d782612472565b604082019050919050565b5f6020820190508181035f8301526124f9816124c0565b9050919050565b7f4f776e61626c653a2063616c6c6572206973206e6f7420746865206f776e65725f82015250565b5f61253460208361222e565b915061253f82612500565b602082019050919050565b5f6020820190508181035f83015261256181612528565b9050919050565b7f4e487b71000000000000000000000000000000000000000000000000000000005f52603260045260245ffd5b7f4e487b71000000000000000000000000000000000000000000000000000000005f52601260045260245ffd5b5f6125cc82611d84565b91506125d783611d84565b9250826125e7576125e6612595565b5b82820690509291505056fea2646970667358221220a3e65c8cc8046c1146773346b949b8651f396c7efa2ed190c64672e682cf6a1964736f6c634300081a0033","linkReferences":{}},"methodIdentifiers":{"NEXUS_REGISTRY()":"3d558dd9","STABLECOIN()":"93a39776","contribute(uint256)":"c1cbbca7","createTontine(uint256,uint256,uint256,address)":"2a4d480e","emergencyRefund(uint256)":"70e5deb9","escrows(uint256)":"012f52ee","getEscrow(uint256)":"7d19e596","isMember(uint256,address)":"7d9e10f5","joinTontine(uint256)":"a7bedfdf","lastPaidAt(uint256,address)":"74fdfce0","nextEscrowId()":"89cb29dd","nextTontineId()":"386b6ede","owner()":"8da5cb5b","pendingWithdrawals(address)":"f3f43703","releaseFunds(uint256)":"4d68282f","slashCollateral(uint256,address)":"831fe39b","tontineGroups(uint256)":"f134055c","tontineMembers(uint256,uint256)":"ee98e55e","transferOwnership(address)":"f2fde38b","withdraw()":"3ccfd60b"},"id":20}