{"abi":[{"type":"constructor","inputs":[{"name":"_nexusRegistry","type":"address","internalType":"address"},{"name":"_stablecoin","type":"address","internalType":"address"}],"stateMutability":"nonpayable"},{"type":"function","name":"NEXUS_REGISTRY","inputs":[],"outputs":[{"name":"","type":"address","internalType":"contract INexusRegistry"}],"stateMutability":"view"},{"type":"function","name":"STABLECOIN","inputs":[],"outputs":[{"name":"","type":"address","internalType":"contract IMockUSDT"}],"stateMutability":"view"},{"type":"function","name":"createTontine","inputs":[{"name":"contributionAmount","type":"uint256","internalType":"uint256"},{"name":"frequencySeconds","type":"uint256","internalType":"uint256"},{"name":"collateralAmount","type":"uint256","internalType":"uint256"}],"outputs":[{"name":"tontineId","type":"uint256","internalType":"uint256"}],"stateMutability":"nonpayable"},{"type":"function","name":"isMember","inputs":[{"name":"","type":"uint256","internalType":"uint256"},{"name":"","type":"address","internalType":"address"}],"outputs":[{"name":"","type":"bool","internalType":"bool"}],"stateMutability":"view"},{"type":"function","name":"joinTontine","inputs":[{"name":"tontineId","type":"uint256","internalType":"uint256"}],"outputs":[],"stateMutability":"nonpayable"},{"type":"function","name":"lastPaidAt","inputs":[{"name":"","type":"uint256","internalType":"uint256"},{"name":"","type":"address","internalType":"address"}],"outputs":[{"name":"","type":"uint256","internalType":"uint256"}],"stateMutability":"view"},{"type":"function","name":"nextTontineId","inputs":[],"outputs":[{"name":"","type":"uint256","internalType":"uint256"}],"stateMutability":"view"},{"type":"function","name":"owner","inputs":[],"outputs":[{"name":"","type":"address","internalType":"address"}],"stateMutability":"view"},{"type":"function","name":"payContribution","inputs":[{"name":"tontineId","type":"uint256","internalType":"uint256"}],"outputs":[],"stateMutability":"nonpayable"},{"type":"function","name":"pendingWithdrawals","inputs":[{"name":"","type":"address","internalType":"address"}],"outputs":[{"name":"","type":"uint256","internalType":"uint256"}],"stateMutability":"view"},{"type":"function","name":"recordPaymentSuccess","inputs":[{"name":"user","type":"address","internalType":"address"}],"outputs":[],"stateMutability":"nonpayable"},{"type":"function","name":"slashCollateral","inputs":[{"name":"tontineId","type":"uint256","internalType":"uint256"},{"name":"member","type":"address","internalType":"address"}],"outputs":[],"stateMutability":"nonpayable"},{"type":"function","name":"tontineGroups","inputs":[{"name":"","type":"uint256","internalType":"uint256"}],"outputs":[{"name":"contributionAmount","type":"uint256","internalType":"uint256"},{"name":"frequencySeconds","type":"uint256","internalType":"uint256"},{"name":"collateralAmount","type":"uint256","internalType":"uint256"},{"name":"currentTurnIndex","type":"uint256","internalType":"uint256"},{"name":"createdAt","type":"uint256","internalType":"uint256"},{"name":"nextDueAt","type":"uint256","internalType":"uint256"},{"name":"active","type":"bool","internalType":"bool"}],"stateMutability":"view"},{"type":"function","name":"tontineMembers","inputs":[{"name":"","type":"uint256","internalType":"uint256"},{"name":"","type":"uint256","internalType":"uint256"}],"outputs":[{"name":"","type":"address","internalType":"address"}],"stateMutability":"view"},{"type":"function","name":"transferOwnership","inputs":[{"name":"newOwner","type":"address","internalType":"address"}],"outputs":[],"stateMutability":"nonpayable"},{"type":"function","name":"withdraw","inputs":[],"outputs":[],"stateMutability":"nonpayable"},{"type":"event","name":"CollateralSlashed","inputs":[{"name":"tontineId","type":"uint256","indexed":true,"internalType":"uint256"},{"name":"member","type":"address","indexed":true,"internalType":"address"},{"name":"amount","type":"uint256","indexed":false,"internalType":"uint256"}],"anonymous":false},{"type":"event","name":"ContributionPaid","inputs":[{"name":"tontineId","type":"uint256","indexed":true,"internalType":"uint256"},{"name":"member","type":"address","indexed":true,"internalType":"address"},{"name":"amount","type":"uint256","indexed":false,"internalType":"uint256"},{"name":"turnIndex","type":"uint256","indexed":false,"internalType":"uint256"}],"anonymous":false},{"type":"event","name":"MemberJoined","inputs":[{"name":"tontineId","type":"uint256","indexed":true,"internalType":"uint256"},{"name":"member","type":"address","indexed":true,"internalType":"address"},{"name":"turnPosition","type":"uint256","indexed":false,"internalType":"uint256"}],"anonymous":false},{"type":"event","name":"OwnershipTransferred","inputs":[{"name":"previousOwner","type":"address","indexed":true,"internalType":"address"},{"name":"newOwner","type":"address","indexed":true,"internalType":"address"}],"anonymous":false},{"type":"event","name":"PaymentSuccessRecorded","inputs":[{"name":"user","type":"address","indexed":true,"internalType":"address"}],"anonymous":false},{"type":"event","name":"PayoutSent","inputs":[{"name":"tontineId","type":"uint256","indexed":true,"internalType":"uint256"},{"name":"beneficiary","type":"address","indexed":true,"internalType":"address"},{"name":"amount","type":"uint256","indexed":false,"internalType":"uint256"}],"anonymous":false},{"type":"event","name":"TontineCreated","inputs":[{"name":"tontineId","type":"uint256","indexed":true,"internalType":"uint256"},{"name":"contributionAmount","type":"uint256","indexed":false,"internalType":"uint256"},{"name":"frequencySeconds","type":"uint256","indexed":false,"internalType":"uint256"},{"name":"collateralAmount","type":"uint256","indexed":false,"internalType":"uint256"}],"anonymous":false},{"type":"event","name":"Withdrawal","inputs":[{"name":"user","type":"address","indexed":true,"internalType":"address"},{"name":"amount","type":"uint256","indexed":false,"internalType":"uint256"}],"anonymous":false},{"type":"error","name":"AlreadyMember","inputs":[]},{"type":"error","name":"InsufficientAllowance","inputs":[]},{"type":"error","name":"InvalidTontine","inputs":[]},{"type":"error","name":"NotMember","inputs":[]},{"type":"error","name":"NotRegisteredService","inputs":[]},{"type":"error","name":"NotYourTurn","inputs":[]},{"type":"error","name":"TontineNotActive","inputs":[]},{"type":"error","name":"TooEarly","inputs":[]},{"type":"error","name":"TransferFailed","inputs":[]}],"bytecode":{"object":"0x60c060405234801561000f575f80fd5b50604051611dc0380380611dc083398181016040528101906100319190610197565b335f806101000a81548173ffffffffffffffffffffffffffffffffffffffff021916908373ffffffffffffffffffffffffffffffffffffffff1602179055503373ffffffffffffffffffffffffffffffffffffffff165f73ffffffffffffffffffffffffffffffffffffffff167f8be0079c531659141344cd1fd0a4f28419497f9722a3daafe3b4186f6b6457e060405160405180910390a38173ffffffffffffffffffffffffffffffffffffffff1660808173ffffffffffffffffffffffffffffffffffffffff16815250508073ffffffffffffffffffffffffffffffffffffffff1660a08173ffffffffffffffffffffffffffffffffffffffff168152505050506101d5565b5f80fd5b5f73ffffffffffffffffffffffffffffffffffffffff82169050919050565b5f6101668261013d565b9050919050565b6101768161015c565b8114610180575f80fd5b50565b5f815190506101918161016d565b92915050565b5f80604083850312156101ad576101ac610139565b5b5f6101ba85828601610183565b92505060206101cb85828601610183565b9150509250929050565b60805160a051611bae6102125f395f818161055b0152818161067f015281816108ce0152610c5201525f81816109fd015261117a0152611bae5ff3fe608060405234801561000f575f80fd5b50600436106100fe575f3560e01c80638da5cb5b11610095578063ee98e55e11610064578063ee98e55e14610284578063f134055c146102b4578063f2fde38b146102ea578063f3f4370314610306576100fe565b80638da5cb5b1461021057806393a397761461022e578063a7bedfdf1461024c578063b91b1e2b14610268576100fe565b80633d558dd9116100d15780633d558dd91461017657806374fdfce0146101945780637d9e10f5146101c4578063831fe39b146101f4576100fe565b806316ecf2c7146101025780632009844b14610132578063386b6ede1461014e5780633ccfd60b1461016c575b5f80fd5b61011c600480360381019061011791906113e5565b610336565b6040516101299190611444565b60405180910390f35b61014c6004803603810190610147919061145d565b610450565b005b610156610800565b6040516101639190611444565b60405180910390f35b610174610806565b005b61017e6109fb565b60405161018b9190611502565b60405180910390f35b6101ae60048036038101906101a99190611556565b610a1f565b6040516101bb9190611444565b60405180910390f35b6101de60048036038101906101d99190611556565b610a3f565b6040516101eb91906115ae565b60405180910390f35b61020e60048036038101906102099190611556565b610a69565b005b610218610c2d565b60405161022591906115d6565b60405180910390f35b610236610c50565b604051610243919061160f565b60405180910390f35b6102666004803603810190610261919061145d565b610c74565b005b610282600480360381019061027d9190611628565b610eb5565b005b61029e60048036038101906102999190611653565b610f0b565b6040516102ab91906115d6565b60405180910390f35b6102ce60048036038101906102c9919061145d565b610f53565b6040516102e19796959493929190611691565b60405180910390f35b61030460048036038101906102ff9190611628565b610f9d565b005b610320600480360381019061031b9190611628565b6110d4565b60405161032d9190611444565b60405180910390f35b5f61033f6110e9565b610347611178565b60025f8154809291906103599061172b565b9190505590506040518060e001604052808581526020018481526020018381526020015f815260200142815260200184426103949190611772565b81526020016001151581525060015f8381526020019081526020015f205f820151815f01556020820151816001015560408201518160020155606082015181600301556080820151816004015560a0820151816005015560c0820151816006015f6101000a81548160ff021916908315150217905550905050807f31ecbd3bac3663f9b707030b8d889ca4cd4cd81bd2d6fac571bc739ccf1fd9ce858585604051610441939291906117a5565b60405180910390a29392505050565b610458611178565b5f60015f8381526020019081526020015f2090506002548210158061048b5750806006015f9054906101000a900460ff16155b156104c2576040517fe0c64bab00000000000000000000000000000000000000000000000000000000815260040160405180910390fd5b60045f8381526020019081526020015f205f3373ffffffffffffffffffffffffffffffffffffffff1673ffffffffffffffffffffffffffffffffffffffff1681526020019081526020015f205f9054906101000a900460ff16610551576040517f291fc44200000000000000000000000000000000000000000000000000000000815260040160405180910390fd5b5f815f01549050807f000000000000000000000000000000000000000000000000000000000000000073ffffffffffffffffffffffffffffffffffffffff1663dd62ed3e33306040518363ffffffff1660e01b81526004016105b49291906117da565b602060405180830381865afa1580156105cf573d5f803e3d5ffd5b505050506040513d601f19601f820116820180604052508101906105f39190611815565b101561062b576040517f13be252b00000000000000000000000000000000000000000000000000000000815260040160405180910390fd5b4260055f8581526020019081526020015f205f3373ffffffffffffffffffffffffffffffffffffffff1673ffffffffffffffffffffffffffffffffffffffff1681526020019081526020015f20819055505f7f000000000000000000000000000000000000000000000000000000000000000073ffffffffffffffffffffffffffffffffffffffff166323b872dd3330856040518463ffffffff1660e01b81526004016106da93929190611840565b6020604051808303815f875af11580156106f6573d5f803e3d5ffd5b505050506040513d601f19601f8201168201806040525081019061071a919061189f565b905080610753576040517f90b8ec1800000000000000000000000000000000000000000000000000000000815260040160405180910390fd5b5f836003015490503373ffffffffffffffffffffffffffffffffffffffff16857f7f20fe5080bd7a6de86197c87491108691614d098da9edc0f3e2a9f0c52e374085846040516107a49291906118ca565b60405180910390a33373ffffffffffffffffffffffffffffffffffffffff167f981f52eb3058a0fee1dcc5381da9edcc553e1ed579f212bec867f238d41ecef460405160405180910390a26107f98584611248565b5050505050565b60025481565b5f60065f3373ffffffffffffffffffffffffffffffffffffffff1673ffffffffffffffffffffffffffffffffffffffff1681526020019081526020015f205490505f8111610889576040517f08c379a00000000000000000000000000000000000000000000000000000000081526004016108809061194b565b60405180910390fd5b5f60065f3373ffffffffffffffffffffffffffffffffffffffff1673ffffffffffffffffffffffffffffffffffffffff1681526020019081526020015f20819055505f7f000000000000000000000000000000000000000000000000000000000000000073ffffffffffffffffffffffffffffffffffffffff1663a9059cbb33846040518363ffffffff1660e01b8152600401610927929190611969565b6020604051808303815f875af1158015610943573d5f803e3d5ffd5b505050506040513d601f19601f82011682018060405250810190610967919061189f565b9050806109a9576040517f08c379a00000000000000000000000000000000000000000000000000000000081526004016109a0906119da565b60405180910390fd5b3373ffffffffffffffffffffffffffffffffffffffff167f7fcf532c15f0a6db0bd6d0e038bea71d30d808c7d98cb3bf7268a95bf5081b65836040516109ef9190611444565b60405180910390a25050565b7f000000000000000000000000000000000000000000000000000000000000000081565b6005602052815f5260405f20602052805f5260405f205f91509150505481565b6004602052815f5260405f20602052805f5260405f205f915091509054906101000a900460ff1681565b610a716110e9565b610a79611178565b5f60015f8481526020019081526020015f20905060025483101580610aac5750806006015f9054906101000a900460ff16155b15610ae3576040517fe0c64bab00000000000000000000000000000000000000000000000000000000815260040160405180910390fd5b60045f8481526020019081526020015f205f8373ffffffffffffffffffffffffffffffffffffffff1673ffffffffffffffffffffffffffffffffffffffff1681526020019081526020015f205f9054906101000a900460ff16610b72576040517f291fc44200000000000000000000000000000000000000000000000000000000815260040160405180910390fd5b806005015460055f8581526020019081526020015f205f8473ffffffffffffffffffffffffffffffffffffffff1673ffffffffffffffffffffffffffffffffffffffff1681526020019081526020015f205410610bcf5750610c29565b5f816002015490508273ffffffffffffffffffffffffffffffffffffffff16847f1e12c8aa9742cc69262e1c709fa52dc0828be06572e7f0842352890292373d2f83604051610c1e9190611444565b60405180910390a350505b5050565b5f8054906101000a900473ffffffffffffffffffffffffffffffffffffffff1681565b7f000000000000000000000000000000000000000000000000000000000000000081565b610c7c611178565b5f60015f8381526020019081526020015f20905060025482101580610caf5750806006015f9054906101000a900460ff16155b15610ce6576040517fe0c64bab00000000000000000000000000000000000000000000000000000000815260040160405180910390fd5b60045f8381526020019081526020015f205f3373ffffffffffffffffffffffffffffffffffffffff1673ffffffffffffffffffffffffffffffffffffffff1681526020019081526020015f205f9054906101000a900460ff1615610d76576040517f810074be00000000000000000000000000000000000000000000000000000000815260040160405180910390fd5b5f60035f8481526020019081526020015f2080549050905060035f8481526020019081526020015f2033908060018154018082558091505060019003905f5260205f20015f9091909190916101000a81548173ffffffffffffffffffffffffffffffffffffffff021916908373ffffffffffffffffffffffffffffffffffffffff160217905550600160045f8581526020019081526020015f205f3373ffffffffffffffffffffffffffffffffffffffff1673ffffffffffffffffffffffffffffffffffffffff1681526020019081526020015f205f6101000a81548160ff0219169083151502179055503373ffffffffffffffffffffffffffffffffffffffff16837ff4f82575ee84a81aac4be52b6a368e9ba9df524b4f5cf8177d7cfbabe861820c83604051610ea89190611444565b60405180910390a3505050565b610ebd6110e9565b610ec5611178565b8073ffffffffffffffffffffffffffffffffffffffff167f981f52eb3058a0fee1dcc5381da9edcc553e1ed579f212bec867f238d41ecef460405160405180910390a250565b6003602052815f5260405f208181548110610f24575f80fd5b905f5260205f20015f915091509054906101000a900473ffffffffffffffffffffffffffffffffffffffff1681565b6001602052805f5260405f205f91509050805f015490806001015490806002015490806003015490806004015490806005015490806006015f9054906101000a900460ff16905087565b610fa56110e9565b5f73ffffffffffffffffffffffffffffffffffffffff168173ffffffffffffffffffffffffffffffffffffffff1603611013576040517f08c379a000000000000000000000000000000000000000000000000000000000815260040161100a90611a68565b60405180910390fd5b5f805f9054906101000a900473ffffffffffffffffffffffffffffffffffffffff169050815f806101000a81548173ffffffffffffffffffffffffffffffffffffffff021916908373ffffffffffffffffffffffffffffffffffffffff1602179055508173ffffffffffffffffffffffffffffffffffffffff168173ffffffffffffffffffffffffffffffffffffffff167f8be0079c531659141344cd1fd0a4f28419497f9722a3daafe3b4186f6b6457e060405160405180910390a35050565b6006602052805f5260405f205f915090505481565b3373ffffffffffffffffffffffffffffffffffffffff165f8054906101000a900473ffffffffffffffffffffffffffffffffffffffff1673ffffffffffffffffffffffffffffffffffffffff1614611176576040517f08c379a000000000000000000000000000000000000000000000000000000000815260040161116d90611ad0565b60405180910390fd5b565b7f000000000000000000000000000000000000000000000000000000000000000073ffffffffffffffffffffffffffffffffffffffff1663c3c5a547306040518263ffffffff1660e01b81526004016111d191906115d6565b602060405180830381865afa1580156111ec573d5f803e3d5ffd5b505050506040513d601f19601f82011682018060405250810190611210919061189f565b611246576040517fd91ed6e200000000000000000000000000000000000000000000000000000000815260040160405180910390fd5b565b5f60015f8481526020019081526020015f2090505f60035f8581526020019081526020015f2090505f8180549050036112825750506113aa565b5f8183600301548154811061129a57611299611aee565b5b905f5260205f20015f9054906101000a900473ffffffffffffffffffffffffffffffffffffffff1690508360065f8373ffffffffffffffffffffffffffffffffffffffff1673ffffffffffffffffffffffffffffffffffffffff1681526020019081526020015f205f8282546113109190611772565b925050819055508073ffffffffffffffffffffffffffffffffffffffff16857fac496bf04b429bf7a6bb179271f3194066e9462a4f0d8afac065edd1f2be36b88660405161135e9190611444565b60405180910390a381805490506001846003015461137c9190611772565b6113869190611b48565b836003018190555082600101544261139e9190611772565b83600501819055505050505b5050565b5f80fd5b5f819050919050565b6113c4816113b2565b81146113ce575f80fd5b50565b5f813590506113df816113bb565b92915050565b5f805f606084860312156113fc576113fb6113ae565b5b5f611409868287016113d1565b935050602061141a868287016113d1565b925050604061142b868287016113d1565b9150509250925092565b61143e816113b2565b82525050565b5f6020820190506114575f830184611435565b92915050565b5f60208284031215611472576114716113ae565b5b5f61147f848285016113d1565b91505092915050565b5f73ffffffffffffffffffffffffffffffffffffffff82169050919050565b5f819050919050565b5f6114ca6114c56114c084611488565b6114a7565b611488565b9050919050565b5f6114db826114b0565b9050919050565b5f6114ec826114d1565b9050919050565b6114fc816114e2565b82525050565b5f6020820190506115155f8301846114f3565b92915050565b5f61152582611488565b9050919050565b6115358161151b565b811461153f575f80fd5b50565b5f813590506115508161152c565b92915050565b5f806040838503121561156c5761156b6113ae565b5b5f611579858286016113d1565b925050602061158a85828601611542565b9150509250929050565b5f8115159050919050565b6115a881611594565b82525050565b5f6020820190506115c15f83018461159f565b92915050565b6115d08161151b565b82525050565b5f6020820190506115e95f8301846115c7565b92915050565b5f6115f9826114d1565b9050919050565b611609816115ef565b82525050565b5f6020820190506116225f830184611600565b92915050565b5f6020828403121561163d5761163c6113ae565b5b5f61164a84828501611542565b91505092915050565b5f8060408385031215611669576116686113ae565b5b5f611676858286016113d1565b9250506020611687858286016113d1565b9150509250929050565b5f60e0820190506116a45f83018a611435565b6116b16020830189611435565b6116be6040830188611435565b6116cb6060830187611435565b6116d86080830186611435565b6116e560a0830185611435565b6116f260c083018461159f565b98975050505050505050565b7f4e487b71000000000000000000000000000000000000000000000000000000005f52601160045260245ffd5b5f611735826113b2565b91507fffffffffffffffffffffffffffffffffffffffffffffffffffffffffffffffff8203611767576117666116fe565b5b600182019050919050565b5f61177c826113b2565b9150611787836113b2565b925082820190508082111561179f5761179e6116fe565b5b92915050565b5f6060820190506117b85f830186611435565b6117c56020830185611435565b6117d26040830184611435565b949350505050565b5f6040820190506117ed5f8301856115c7565b6117fa60208301846115c7565b9392505050565b5f8151905061180f816113bb565b92915050565b5f6020828403121561182a576118296113ae565b5b5f61183784828501611801565b91505092915050565b5f6060820190506118535f8301866115c7565b61186060208301856115c7565b61186d6040830184611435565b949350505050565b61187e81611594565b8114611888575f80fd5b50565b5f8151905061189981611875565b92915050565b5f602082840312156118b4576118b36113ae565b5b5f6118c18482850161188b565b91505092915050565b5f6040820190506118dd5f830185611435565b6118ea6020830184611435565b9392505050565b5f82825260208201905092915050565b7f546f6e74696e653a206e6f7468696e6720746f207769746864726177000000005f82015250565b5f611935601c836118f1565b915061194082611901565b602082019050919050565b5f6020820190508181035f83015261196281611929565b9050919050565b5f60408201905061197c5f8301856115c7565b6119896020830184611435565b9392505050565b7f546f6e74696e653a207472616e73666572206661696c656400000000000000005f82015250565b5f6119c46018836118f1565b91506119cf82611990565b602082019050919050565b5f6020820190508181035f8301526119f1816119b8565b9050919050565b7f4f776e61626c653a206e6577206f776e657220697320746865207a65726f20615f8201527f6464726573730000000000000000000000000000000000000000000000000000602082015250565b5f611a526026836118f1565b9150611a5d826119f8565b604082019050919050565b5f6020820190508181035f830152611a7f81611a46565b9050919050565b7f4f776e61626c653a2063616c6c6572206973206e6f7420746865206f776e65725f82015250565b5f611aba6020836118f1565b9150611ac582611a86565b602082019050919050565b5f6020820190508181035f830152611ae781611aae565b9050919050565b7f4e487b71000000000000000000000000000000000000000000000000000000005f52603260045260245ffd5b7f4e487b71000000000000000000000000000000000000000000000000000000005f52601260045260245ffd5b5f611b52826113b2565b9150611b5d836113b2565b925082611b6d57611b6c611b1b565b5b82820690509291505056fea264697066735822122078ee54617366dfc42b4da3446ae4106c2b110af02541e3caaa16081152160b8164736f6c634300081a0033","linkReferences":{}},"methodIdentifiers":{"NEXUS_REGISTRY()":"3d558dd9","STABLECOIN()":"93a39776","createTontine(uint256,uint256,uint256)":"16ecf2c7","isMember(uint256,address)":"7d9e10f5","joinTontine(uint256)":"a7bedfdf","lastPaidAt(uint256,address)":"74fdfce0","nextTontineId()":"386b6ede","owner()":"8da5cb5b","payContribution(uint256)":"2009844b","pendingWithdrawals(address)":"f3f43703","recordPaymentSuccess(address)":"b91b1e2b","slashCollateral(uint256,address)":"831fe39b","tontineGroups(uint256)":"f134055c","tontineMembers(uint256,uint256)":"ee98e55e","transferOwnership(address)":"f2fde38b","withdraw()":"3ccfd60b"},"id":28}