{"abi":[{"type":"constructor","inputs":[{"name":"_nexusRegistry","type":"address","internalType":"address"},{"name":"_stablecoin","type":"address","internalType":"address"}],"stateMutability":"nonpayable"},{"type":"function","name":"createTontine","inputs":[{"name":"contributionAmount","type":"uint256","internalType":"uint256"},{"name":"frequencySeconds","type":"uint256","internalType":"uint256"},{"name":"collateralAmount","type":"uint256","internalType":"uint256"}],"outputs":[{"name":"tontineId","type":"uint256","internalType":"uint256"}],"stateMutability":"nonpayable"},{"type":"function","name":"isMember","inputs":[{"name":"","type":"uint256","internalType":"uint256"},{"name":"","type":"address","internalType":"address"}],"outputs":[{"name":"","type":"bool","internalType":"bool"}],"stateMutability":"view"},{"type":"function","name":"joinTontine","inputs":[{"name":"tontineId","type":"uint256","internalType":"uint256"}],"outputs":[],"stateMutability":"nonpayable"},{"type":"function","name":"lastPaidAt","inputs":[{"name":"","type":"uint256","internalType":"uint256"},{"name":"","type":"address","internalType":"address"}],"outputs":[{"name":"","type":"uint256","internalType":"uint256"}],"stateMutability":"view"},{"type":"function","name":"nextTontineId","inputs":[],"outputs":[{"name":"","type":"uint256","internalType":"uint256"}],"stateMutability":"view"},{"type":"function","name":"nexusRegistry","inputs":[],"outputs":[{"name":"","type":"address","internalType":"contract INexusRegistry"}],"stateMutability":"view"},{"type":"function","name":"owner","inputs":[],"outputs":[{"name":"","type":"address","internalType":"address"}],"stateMutability":"view"},{"type":"function","name":"payContribution","inputs":[{"name":"tontineId","type":"uint256","internalType":"uint256"}],"outputs":[],"stateMutability":"nonpayable"},{"type":"function","name":"pendingWithdrawals","inputs":[{"name":"","type":"address","internalType":"address"}],"outputs":[{"name":"","type":"uint256","internalType":"uint256"}],"stateMutability":"view"},{"type":"function","name":"recordPaymentSuccess","inputs":[{"name":"user","type":"address","internalType":"address"}],"outputs":[],"stateMutability":"nonpayable"},{"type":"function","name":"slashCollateral","inputs":[{"name":"tontineId","type":"uint256","internalType":"uint256"},{"name":"member","type":"address","internalType":"address"}],"outputs":[],"stateMutability":"nonpayable"},{"type":"function","name":"stablecoin","inputs":[],"outputs":[{"name":"","type":"address","internalType":"contract IMockUSDT"}],"stateMutability":"view"},{"type":"function","name":"tontineGroups","inputs":[{"name":"","type":"uint256","internalType":"uint256"}],"outputs":[{"name":"contributionAmount","type":"uint256","internalType":"uint256"},{"name":"frequencySeconds","type":"uint256","internalType":"uint256"},{"name":"collateralAmount","type":"uint256","internalType":"uint256"},{"name":"currentTurnIndex","type":"uint256","internalType":"uint256"},{"name":"createdAt","type":"uint256","internalType":"uint256"},{"name":"nextDueAt","type":"uint256","internalType":"uint256"},{"name":"active","type":"bool","internalType":"bool"}],"stateMutability":"view"},{"type":"function","name":"tontineMembers","inputs":[{"name":"","type":"uint256","internalType":"uint256"},{"name":"","type":"uint256","internalType":"uint256"}],"outputs":[{"name":"","type":"address","internalType":"address"}],"stateMutability":"view"},{"type":"function","name":"transferOwnership","inputs":[{"name":"newOwner","type":"address","internalType":"address"}],"outputs":[],"stateMutability":"nonpayable"},{"type":"function","name":"withdraw","inputs":[],"outputs":[],"stateMutability":"nonpayable"},{"type":"event","name":"CollateralSlashed","inputs":[{"name":"tontineId","type":"uint256","indexed":true,"internalType":"uint256"},{"name":"member","type":"address","indexed":true,"internalType":"address"},{"name":"amount","type":"uint256","indexed":false,"internalType":"uint256"}],"anonymous":false},{"type":"event","name":"ContributionPaid","inputs":[{"name":"tontineId","type":"uint256","indexed":true,"internalType":"uint256"},{"name":"member","type":"address","indexed":true,"internalType":"address"},{"name":"amount","type":"uint256","indexed":false,"internalType":"uint256"},{"name":"turnIndex","type":"uint256","indexed":false,"internalType":"uint256"}],"anonymous":false},{"type":"event","name":"MemberJoined","inputs":[{"name":"tontineId","type":"uint256","indexed":true,"internalType":"uint256"},{"name":"member","type":"address","indexed":true,"internalType":"address"},{"name":"turnPosition","type":"uint256","indexed":false,"internalType":"uint256"}],"anonymous":false},{"type":"event","name":"OwnershipTransferred","inputs":[{"name":"previousOwner","type":"address","indexed":true,"internalType":"address"},{"name":"newOwner","type":"address","indexed":true,"internalType":"address"}],"anonymous":false},{"type":"event","name":"PaymentSuccessRecorded","inputs":[{"name":"user","type":"address","indexed":true,"internalType":"address"}],"anonymous":false},{"type":"event","name":"PayoutSent","inputs":[{"name":"tontineId","type":"uint256","indexed":true,"internalType":"uint256"},{"name":"beneficiary","type":"address","indexed":true,"internalType":"address"},{"name":"amount","type":"uint256","indexed":false,"internalType":"uint256"}],"anonymous":false},{"type":"event","name":"TontineCreated","inputs":[{"name":"tontineId","type":"uint256","indexed":true,"internalType":"uint256"},{"name":"contributionAmount","type":"uint256","indexed":false,"internalType":"uint256"},{"name":"frequencySeconds","type":"uint256","indexed":false,"internalType":"uint256"},{"name":"collateralAmount","type":"uint256","indexed":false,"internalType":"uint256"}],"anonymous":false},{"type":"event","name":"Withdrawal","inputs":[{"name":"user","type":"address","indexed":true,"internalType":"address"},{"name":"amount","type":"uint256","indexed":false,"internalType":"uint256"}],"anonymous":false},{"type":"error","name":"AlreadyMember","inputs":[]},{"type":"error","name":"InsufficientAllowance","inputs":[]},{"type":"error","name":"InvalidTontine","inputs":[]},{"type":"error","name":"NotMember","inputs":[]},{"type":"error","name":"NotRegisteredService","inputs":[]},{"type":"error","name":"NotYourTurn","inputs":[]},{"type":"error","name":"TontineNotActive","inputs":[]},{"type":"error","name":"TooEarly","inputs":[]},{"type":"error","name":"TransferFailed","inputs":[]}],"bytecode":{"object":"0x60c060405234801561000f575f80fd5b5060405161226f38038061226f83398181016040528101906100319190610197565b335f806101000a81548173ffffffffffffffffffffffffffffffffffffffff021916908373ffffffffffffffffffffffffffffffffffffffff1602179055503373ffffffffffffffffffffffffffffffffffffffff165f73ffffffffffffffffffffffffffffffffffffffff167f8be0079c531659141344cd1fd0a4f28419497f9722a3daafe3b4186f6b6457e060405160405180910390a38173ffffffffffffffffffffffffffffffffffffffff1660808173ffffffffffffffffffffffffffffffffffffffff16815250508073ffffffffffffffffffffffffffffffffffffffff1660a08173ffffffffffffffffffffffffffffffffffffffff168152505050506101d5565b5f80fd5b5f73ffffffffffffffffffffffffffffffffffffffff82169050919050565b5f6101668261013d565b9050919050565b6101768161015c565b8114610180575f80fd5b50565b5f815190506101918161016d565b92915050565b5f80604083850312156101ad576101ac610139565b5b5f6101ba85828601610183565b92505060206101cb85828601610183565b9150509250929050565b60805160a05161204161022e5f395f818161076c0152818161089001528181610adf015261145601525f81816103c60152818161059d01528181610ce501528181610f8a01528181610fae015261134201526120415ff3fe608060405234801561000f575f80fd5b50600436106100fe575f3560e01c8063911394b111610095578063ee98e55e11610064578063ee98e55e14610284578063f134055c146102b4578063f2fde38b146102ea578063f3f4370314610306576100fe565b8063911394b114610210578063a7bedfdf1461022e578063b91b1e2b1461024a578063e9cbd82214610266576100fe565b806374fdfce0116100d157806374fdfce0146101765780637d9e10f5146101a6578063831fe39b146101d65780638da5cb5b146101f2576100fe565b806316ecf2c7146101025780632009844b14610132578063386b6ede1461014e5780633ccfd60b1461016c575b5f80fd5b61011c60048036038101906101179190611878565b610336565b60405161012991906118d7565b60405180910390f35b61014c600480360381019061014791906118f0565b61059b565b005b610156610a11565b60405161016391906118d7565b60405180910390f35b610174610a17565b005b610190600480360381019061018b9190611975565b610c0c565b60405161019d91906118d7565b60405180910390f35b6101c060048036038101906101bb9190611975565b610c2c565b6040516101cd91906119cd565b60405180910390f35b6101f060048036038101906101eb9190611975565b610c56565b005b6101fa610f65565b60405161020791906119f5565b60405180910390f35b610218610f88565b6040516102259190611a69565b60405180910390f35b610248600480360381019061024391906118f0565b610fac565b005b610264600480360381019061025f9190611a82565b6112b3565b005b61026e611454565b60405161027b9190611acd565b60405180910390f35b61029e60048036038101906102999190611ae6565b611478565b6040516102ab91906119f5565b60405180910390f35b6102ce60048036038101906102c991906118f0565b6114c0565b6040516102e19796959493929190611b24565b60405180910390f35b61030460048036038101906102ff9190611a82565b61150a565b005b610320600480360381019061031b9190611a82565b6116c6565b60405161032d91906118d7565b60405180910390f35b5f3373ffffffffffffffffffffffffffffffffffffffff165f8054906101000a900473ffffffffffffffffffffffffffffffffffffffff1673ffffffffffffffffffffffffffffffffffffffff16146103c4576040517f08c379a00000000000000000000000000000000000000000000000000000000081526004016103bb90611beb565b60405180910390fd5b7f000000000000000000000000000000000000000000000000000000000000000073ffffffffffffffffffffffffffffffffffffffff1663c3c5a547306040518263ffffffff1660e01b815260040161041d91906119f5565b602060405180830381865afa158015610438573d5f803e3d5ffd5b505050506040513d601f19601f8201168201806040525081019061045c9190611c33565b610492576040517fd91ed6e200000000000000000000000000000000000000000000000000000000815260040160405180910390fd5b60025f8154809291906104a490611c8b565b9190505590506040518060e001604052808581526020018481526020018381526020015f815260200142815260200184426104df9190611cd2565b81526020016001151581525060015f8381526020019081526020015f205f820151815f01556020820151816001015560408201518160020155606082015181600301556080820151816004015560a0820151816005015560c0820151816006015f6101000a81548160ff021916908315150217905550905050807f31ecbd3bac3663f9b707030b8d889ca4cd4cd81bd2d6fac571bc739ccf1fd9ce85858560405161058c93929190611d05565b60405180910390a29392505050565b7f000000000000000000000000000000000000000000000000000000000000000073ffffffffffffffffffffffffffffffffffffffff1663c3c5a547306040518263ffffffff1660e01b81526004016105f491906119f5565b602060405180830381865afa15801561060f573d5f803e3d5ffd5b505050506040513d601f19601f820116820180604052508101906106339190611c33565b610669576040517fd91ed6e200000000000000000000000000000000000000000000000000000000815260040160405180910390fd5b5f60015f8381526020019081526020015f2090506002548210158061069c5750806006015f9054906101000a900460ff16155b156106d3576040517fe0c64bab00000000000000000000000000000000000000000000000000000000815260040160405180910390fd5b60045f8381526020019081526020015f205f3373ffffffffffffffffffffffffffffffffffffffff1673ffffffffffffffffffffffffffffffffffffffff1681526020019081526020015f205f9054906101000a900460ff16610762576040517f291fc44200000000000000000000000000000000000000000000000000000000815260040160405180910390fd5b5f815f01549050807f000000000000000000000000000000000000000000000000000000000000000073ffffffffffffffffffffffffffffffffffffffff1663dd62ed3e33306040518363ffffffff1660e01b81526004016107c5929190611d3a565b602060405180830381865afa1580156107e0573d5f803e3d5ffd5b505050506040513d601f19601f820116820180604052508101906108049190611d75565b101561083c576040517f13be252b00000000000000000000000000000000000000000000000000000000815260040160405180910390fd5b4260055f8581526020019081526020015f205f3373ffffffffffffffffffffffffffffffffffffffff1673ffffffffffffffffffffffffffffffffffffffff1681526020019081526020015f20819055505f7f000000000000000000000000000000000000000000000000000000000000000073ffffffffffffffffffffffffffffffffffffffff166323b872dd3330856040518463ffffffff1660e01b81526004016108eb93929190611da0565b6020604051808303815f875af1158015610907573d5f803e3d5ffd5b505050506040513d601f19601f8201168201806040525081019061092b9190611c33565b905080610964576040517f90b8ec1800000000000000000000000000000000000000000000000000000000815260040160405180910390fd5b5f836003015490503373ffffffffffffffffffffffffffffffffffffffff16857f7f20fe5080bd7a6de86197c87491108691614d098da9edc0f3e2a9f0c52e374085846040516109b5929190611dd5565b60405180910390a33373ffffffffffffffffffffffffffffffffffffffff167f981f52eb3058a0fee1dcc5381da9edcc553e1ed579f212bec867f238d41ecef460405160405180910390a2610a0a85846116db565b5050505050565b60025481565b5f60065f3373ffffffffffffffffffffffffffffffffffffffff1673ffffffffffffffffffffffffffffffffffffffff1681526020019081526020015f205490505f8111610a9a576040517f08c379a0000000000000000000000000000000000000000000000000000000008152600401610a9190611e46565b60405180910390fd5b5f60065f3373ffffffffffffffffffffffffffffffffffffffff1673ffffffffffffffffffffffffffffffffffffffff1681526020019081526020015f20819055505f7f000000000000000000000000000000000000000000000000000000000000000073ffffffffffffffffffffffffffffffffffffffff1663a9059cbb33846040518363ffffffff1660e01b8152600401610b38929190611e64565b6020604051808303815f875af1158015610b54573d5f803e3d5ffd5b505050506040513d601f19601f82011682018060405250810190610b789190611c33565b905080610bba576040517f08c379a0000000000000000000000000000000000000000000000000000000008152600401610bb190611ed5565b60405180910390fd5b3373ffffffffffffffffffffffffffffffffffffffff167f7fcf532c15f0a6db0bd6d0e038bea71d30d808c7d98cb3bf7268a95bf5081b6583604051610c0091906118d7565b60405180910390a25050565b6005602052815f5260405f20602052805f5260405f205f91509150505481565b6004602052815f5260405f20602052805f5260405f205f915091509054906101000a900460ff1681565b3373ffffffffffffffffffffffffffffffffffffffff165f8054906101000a900473ffffffffffffffffffffffffffffffffffffffff1673ffffffffffffffffffffffffffffffffffffffff1614610ce3576040517f08c379a0000000000000000000000000000000000000000000000000000000008152600401610cda90611beb565b60405180910390fd5b7f000000000000000000000000000000000000000000000000000000000000000073ffffffffffffffffffffffffffffffffffffffff1663c3c5a547306040518263ffffffff1660e01b8152600401610d3c91906119f5565b602060405180830381865afa158015610d57573d5f803e3d5ffd5b505050506040513d601f19601f82011682018060405250810190610d7b9190611c33565b610db1576040517fd91ed6e200000000000000000000000000000000000000000000000000000000815260040160405180910390fd5b5f60015f8481526020019081526020015f20905060025483101580610de45750806006015f9054906101000a900460ff16155b15610e1b576040517fe0c64bab00000000000000000000000000000000000000000000000000000000815260040160405180910390fd5b60045f8481526020019081526020015f205f8373ffffffffffffffffffffffffffffffffffffffff1673ffffffffffffffffffffffffffffffffffffffff1681526020019081526020015f205f9054906101000a900460ff16610eaa576040517f291fc44200000000000000000000000000000000000000000000000000000000815260040160405180910390fd5b806005015460055f8581526020019081526020015f205f8473ffffffffffffffffffffffffffffffffffffffff1673ffffffffffffffffffffffffffffffffffffffff1681526020019081526020015f205410610f075750610f61565b5f816002015490508273ffffffffffffffffffffffffffffffffffffffff16847f1e12c8aa9742cc69262e1c709fa52dc0828be06572e7f0842352890292373d2f83604051610f5691906118d7565b60405180910390a350505b5050565b5f8054906101000a900473ffffffffffffffffffffffffffffffffffffffff1681565b7f000000000000000000000000000000000000000000000000000000000000000081565b7f000000000000000000000000000000000000000000000000000000000000000073ffffffffffffffffffffffffffffffffffffffff1663c3c5a547306040518263ffffffff1660e01b815260040161100591906119f5565b602060405180830381865afa158015611020573d5f803e3d5ffd5b505050506040513d601f19601f820116820180604052508101906110449190611c33565b61107a576040517fd91ed6e200000000000000000000000000000000000000000000000000000000815260040160405180910390fd5b5f60015f8381526020019081526020015f209050600254821015806110ad5750806006015f9054906101000a900460ff16155b156110e4576040517fe0c64bab00000000000000000000000000000000000000000000000000000000815260040160405180910390fd5b60045f8381526020019081526020015f205f3373ffffffffffffffffffffffffffffffffffffffff1673ffffffffffffffffffffffffffffffffffffffff1681526020019081526020015f205f9054906101000a900460ff1615611174576040517f810074be00000000000000000000000000000000000000000000000000000000815260040160405180910390fd5b5f60035f8481526020019081526020015f2080549050905060035f8481526020019081526020015f2033908060018154018082558091505060019003905f5260205f20015f9091909190916101000a81548173ffffffffffffffffffffffffffffffffffffffff021916908373ffffffffffffffffffffffffffffffffffffffff160217905550600160045f8581526020019081526020015f205f3373ffffffffffffffffffffffffffffffffffffffff1673ffffffffffffffffffffffffffffffffffffffff1681526020019081526020015f205f6101000a81548160ff0219169083151502179055503373ffffffffffffffffffffffffffffffffffffffff16837ff4f82575ee84a81aac4be52b6a368e9ba9df524b4f5cf8177d7cfbabe861820c836040516112a691906118d7565b60405180910390a3505050565b3373ffffffffffffffffffffffffffffffffffffffff165f8054906101000a900473ffffffffffffffffffffffffffffffffffffffff1673ffffffffffffffffffffffffffffffffffffffff1614611340576040517f08c379a000000000000000000000000000000000000000000000000000000000815260040161133790611beb565b60405180910390fd5b7f000000000000000000000000000000000000000000000000000000000000000073ffffffffffffffffffffffffffffffffffffffff1663c3c5a547306040518263ffffffff1660e01b815260040161139991906119f5565b602060405180830381865afa1580156113b4573d5f803e3d5ffd5b505050506040513d601f19601f820116820180604052508101906113d89190611c33565b61140e576040517fd91ed6e200000000000000000000000000000000000000000000000000000000815260040160405180910390fd5b8073ffffffffffffffffffffffffffffffffffffffff167f981f52eb3058a0fee1dcc5381da9edcc553e1ed579f212bec867f238d41ecef460405160405180910390a250565b7f000000000000000000000000000000000000000000000000000000000000000081565b6003602052815f5260405f208181548110611491575f80fd5b905f5260205f20015f915091509054906101000a900473ffffffffffffffffffffffffffffffffffffffff1681565b6001602052805f5260405f205f91509050805f015490806001015490806002015490806003015490806004015490806005015490806006015f9054906101000a900460ff16905087565b3373ffffffffffffffffffffffffffffffffffffffff165f8054906101000a900473ffffffffffffffffffffffffffffffffffffffff1673ffffffffffffffffffffffffffffffffffffffff1614611597576040517f08c379a000000000000000000000000000000000000000000000000000000000815260040161158e90611beb565b60405180910390fd5b5f73ffffffffffffffffffffffffffffffffffffffff168173ffffffffffffffffffffffffffffffffffffffff1603611605576040517f08c379a00000000000000000000000000000000000000000000000000000000081526004016115fc90611f63565b60405180910390fd5b5f805f9054906101000a900473ffffffffffffffffffffffffffffffffffffffff169050815f806101000a81548173ffffffffffffffffffffffffffffffffffffffff021916908373ffffffffffffffffffffffffffffffffffffffff1602179055508173ffffffffffffffffffffffffffffffffffffffff168173ffffffffffffffffffffffffffffffffffffffff167f8be0079c531659141344cd1fd0a4f28419497f9722a3daafe3b4186f6b6457e060405160405180910390a35050565b6006602052805f5260405f205f915090505481565b5f60015f8481526020019081526020015f2090505f60035f8581526020019081526020015f2090505f81805490500361171557505061183d565b5f8183600301548154811061172d5761172c611f81565b5b905f5260205f20015f9054906101000a900473ffffffffffffffffffffffffffffffffffffffff1690508360065f8373ffffffffffffffffffffffffffffffffffffffff1673ffffffffffffffffffffffffffffffffffffffff1681526020019081526020015f205f8282546117a39190611cd2565b925050819055508073ffffffffffffffffffffffffffffffffffffffff16857fac496bf04b429bf7a6bb179271f3194066e9462a4f0d8afac065edd1f2be36b8866040516117f191906118d7565b60405180910390a381805490506001846003015461180f9190611cd2565b6118199190611fdb565b83600301819055508260010154426118319190611cd2565b83600501819055505050505b5050565b5f80fd5b5f819050919050565b61185781611845565b8114611861575f80fd5b50565b5f813590506118728161184e565b92915050565b5f805f6060848603121561188f5761188e611841565b5b5f61189c86828701611864565b93505060206118ad86828701611864565b92505060406118be86828701611864565b9150509250925092565b6118d181611845565b82525050565b5f6020820190506118ea5f8301846118c8565b92915050565b5f6020828403121561190557611904611841565b5b5f61191284828501611864565b91505092915050565b5f73ffffffffffffffffffffffffffffffffffffffff82169050919050565b5f6119448261191b565b9050919050565b6119548161193a565b811461195e575f80fd5b50565b5f8135905061196f8161194b565b92915050565b5f806040838503121561198b5761198a611841565b5b5f61199885828601611864565b92505060206119a985828601611961565b9150509250929050565b5f8115159050919050565b6119c7816119b3565b82525050565b5f6020820190506119e05f8301846119be565b92915050565b6119ef8161193a565b82525050565b5f602082019050611a085f8301846119e6565b92915050565b5f819050919050565b5f611a31611a2c611a278461191b565b611a0e565b61191b565b9050919050565b5f611a4282611a17565b9050919050565b5f611a5382611a38565b9050919050565b611a6381611a49565b82525050565b5f602082019050611a7c5f830184611a5a565b92915050565b5f60208284031215611a9757611a96611841565b5b5f611aa484828501611961565b91505092915050565b5f611ab782611a38565b9050919050565b611ac781611aad565b82525050565b5f602082019050611ae05f830184611abe565b92915050565b5f8060408385031215611afc57611afb611841565b5b5f611b0985828601611864565b9250506020611b1a85828601611864565b9150509250929050565b5f60e082019050611b375f83018a6118c8565b611b4460208301896118c8565b611b5160408301886118c8565b611b5e60608301876118c8565b611b6b60808301866118c8565b611b7860a08301856118c8565b611b8560c08301846119be565b98975050505050505050565b5f82825260208201905092915050565b7f4f776e61626c653a2063616c6c6572206973206e6f7420746865206f776e65725f82015250565b5f611bd5602083611b91565b9150611be082611ba1565b602082019050919050565b5f6020820190508181035f830152611c0281611bc9565b9050919050565b611c12816119b3565b8114611c1c575f80fd5b50565b5f81519050611c2d81611c09565b92915050565b5f60208284031215611c4857611c47611841565b5b5f611c5584828501611c1f565b91505092915050565b7f4e487b71000000000000000000000000000000000000000000000000000000005f52601160045260245ffd5b5f611c9582611845565b91507fffffffffffffffffffffffffffffffffffffffffffffffffffffffffffffffff8203611cc757611cc6611c5e565b5b600182019050919050565b5f611cdc82611845565b9150611ce783611845565b9250828201905080821115611cff57611cfe611c5e565b5b92915050565b5f606082019050611d185f8301866118c8565b611d2560208301856118c8565b611d3260408301846118c8565b949350505050565b5f604082019050611d4d5f8301856119e6565b611d5a60208301846119e6565b9392505050565b5f81519050611d6f8161184e565b92915050565b5f60208284031215611d8a57611d89611841565b5b5f611d9784828501611d61565b91505092915050565b5f606082019050611db35f8301866119e6565b611dc060208301856119e6565b611dcd60408301846118c8565b949350505050565b5f604082019050611de85f8301856118c8565b611df560208301846118c8565b9392505050565b7f546f6e74696e653a206e6f7468696e6720746f207769746864726177000000005f82015250565b5f611e30601c83611b91565b9150611e3b82611dfc565b602082019050919050565b5f6020820190508181035f830152611e5d81611e24565b9050919050565b5f604082019050611e775f8301856119e6565b611e8460208301846118c8565b9392505050565b7f546f6e74696e653a207472616e73666572206661696c656400000000000000005f82015250565b5f611ebf601883611b91565b9150611eca82611e8b565b602082019050919050565b5f6020820190508181035f830152611eec81611eb3565b9050919050565b7f4f776e61626c653a206e6577206f776e657220697320746865207a65726f20615f8201527f6464726573730000000000000000000000000000000000000000000000000000602082015250565b5f611f4d602683611b91565b9150611f5882611ef3565b604082019050919050565b5f6020820190508181035f830152611f7a81611f41565b9050919050565b7f4e487b71000000000000000000000000000000000000000000000000000000005f52603260045260245ffd5b7f4e487b71000000000000000000000000000000000000000000000000000000005f52601260045260245ffd5b5f611fe582611845565b9150611ff083611845565b92508261200057611fff611fae565b5b82820690509291505056fea2646970667358221220f439a64f10ea258edb0d1c1e57b73278e8773550ad69c711d70cfbbe1e36b5a364736f6c634300081a0033","linkReferences":{}},"methodIdentifiers":{"createTontine(uint256,uint256,uint256)":"16ecf2c7","isMember(uint256,address)":"7d9e10f5","joinTontine(uint256)":"a7bedfdf","lastPaidAt(uint256,address)":"74fdfce0","nextTontineId()":"386b6ede","nexusRegistry()":"911394b1","owner()":"8da5cb5b","payContribution(uint256)":"2009844b","pendingWithdrawals(address)":"f3f43703","recordPaymentSuccess(address)":"b91b1e2b","slashCollateral(uint256,address)":"831fe39b","stablecoin()":"e9cbd822","tontineGroups(uint256)":"f134055c","tontineMembers(uint256,uint256)":"ee98e55e","transferOwnership(address)":"f2fde38b","withdraw()":"3ccfd60b"},"id":20}