{"abi":[{"type":"constructor","inputs":[{"name":"_nexusRegistry","type":"address","internalType":"address"},{"name":"_stablecoin","type":"address","internalType":"address"}],"stateMutability":"nonpayable"},{"type":"function","name":"NEXUS_REGISTRY","inputs":[],"outputs":[{"name":"","type":"address","internalType":"contract INexusRegistry"}],"stateMutability":"view"},{"type":"function","name":"STABLECOIN","inputs":[],"outputs":[{"name":"","type":"address","internalType":"contract IMockUSDT"}],"stateMutability":"view"},{"type":"function","name":"createTontine","inputs":[{"name":"contributionAmount","type":"uint256","internalType":"uint256"},{"name":"frequencySeconds","type":"uint256","internalType":"uint256"},{"name":"collateralAmount","type":"uint256","internalType":"uint256"}],"outputs":[{"name":"tontineId","type":"uint256","internalType":"uint256"}],"stateMutability":"nonpayable"},{"type":"function","name":"isMember","inputs":[{"name":"","type":"uint256","internalType":"uint256"},{"name":"","type":"address","internalType":"address"}],"outputs":[{"name":"","type":"bool","internalType":"bool"}],"stateMutability":"view"},{"type":"function","name":"joinTontine","inputs":[{"name":"tontineId","type":"uint256","internalType":"uint256"}],"outputs":[],"stateMutability":"nonpayable"},{"type":"function","name":"lastPaidAt","inputs":[{"name":"","type":"uint256","internalType":"uint256"},{"name":"","type":"address","internalType":"address"}],"outputs":[{"name":"","type":"uint256","internalType":"uint256"}],"stateMutability":"view"},{"type":"function","name":"nextTontineId","inputs":[],"outputs":[{"name":"","type":"uint256","internalType":"uint256"}],"stateMutability":"view"},{"type":"function","name":"owner","inputs":[],"outputs":[{"name":"","type":"address","internalType":"address"}],"stateMutability":"view"},{"type":"function","name":"payContribution","inputs":[{"name":"tontineId","type":"uint256","internalType":"uint256"}],"outputs":[],"stateMutability":"nonpayable"},{"type":"function","name":"pendingWithdrawals","inputs":[{"name":"","type":"address","internalType":"address"}],"outputs":[{"name":"","type":"uint256","internalType":"uint256"}],"stateMutability":"view"},{"type":"function","name":"recordPaymentSuccess","inputs":[{"name":"user","type":"address","internalType":"address"}],"outputs":[],"stateMutability":"nonpayable"},{"type":"function","name":"slashCollateral","inputs":[{"name":"tontineId","type":"uint256","internalType":"uint256"},{"name":"member","type":"address","internalType":"address"}],"outputs":[],"stateMutability":"nonpayable"},{"type":"function","name":"tontineGroups","inputs":[{"name":"","type":"uint256","internalType":"uint256"}],"outputs":[{"name":"contributionAmount","type":"uint256","internalType":"uint256"},{"name":"frequencySeconds","type":"uint256","internalType":"uint256"},{"name":"collateralAmount","type":"uint256","internalType":"uint256"},{"name":"currentTurnIndex","type":"uint256","internalType":"uint256"},{"name":"createdAt","type":"uint256","internalType":"uint256"},{"name":"nextDueAt","type":"uint256","internalType":"uint256"},{"name":"active","type":"bool","internalType":"bool"}],"stateMutability":"view"},{"type":"function","name":"tontineMembers","inputs":[{"name":"","type":"uint256","internalType":"uint256"},{"name":"","type":"uint256","internalType":"uint256"}],"outputs":[{"name":"","type":"address","internalType":"address"}],"stateMutability":"view"},{"type":"function","name":"transferOwnership","inputs":[{"name":"newOwner","type":"address","internalType":"address"}],"outputs":[],"stateMutability":"nonpayable"},{"type":"function","name":"withdraw","inputs":[],"outputs":[],"stateMutability":"nonpayable"},{"type":"event","name":"CollateralSlashed","inputs":[{"name":"tontineId","type":"uint256","indexed":true,"internalType":"uint256"},{"name":"member","type":"address","indexed":true,"internalType":"address"},{"name":"amount","type":"uint256","indexed":false,"internalType":"uint256"}],"anonymous":false},{"type":"event","name":"ContributionPaid","inputs":[{"name":"tontineId","type":"uint256","indexed":true,"internalType":"uint256"},{"name":"member","type":"address","indexed":true,"internalType":"address"},{"name":"amount","type":"uint256","indexed":false,"internalType":"uint256"},{"name":"turnIndex","type":"uint256","indexed":false,"internalType":"uint256"}],"anonymous":false},{"type":"event","name":"MemberJoined","inputs":[{"name":"tontineId","type":"uint256","indexed":true,"internalType":"uint256"},{"name":"member","type":"address","indexed":true,"internalType":"address"},{"name":"turnPosition","type":"uint256","indexed":false,"internalType":"uint256"}],"anonymous":false},{"type":"event","name":"OwnershipTransferred","inputs":[{"name":"previousOwner","type":"address","indexed":true,"internalType":"address"},{"name":"newOwner","type":"address","indexed":true,"internalType":"address"}],"anonymous":false},{"type":"event","name":"PaymentSuccessRecorded","inputs":[{"name":"user","type":"address","indexed":true,"internalType":"address"}],"anonymous":false},{"type":"event","name":"PayoutSent","inputs":[{"name":"tontineId","type":"uint256","indexed":true,"internalType":"uint256"},{"name":"beneficiary","type":"address","indexed":true,"internalType":"address"},{"name":"amount","type":"uint256","indexed":false,"internalType":"uint256"}],"anonymous":false},{"type":"event","name":"TontineCreated","inputs":[{"name":"tontineId","type":"uint256","indexed":true,"internalType":"uint256"},{"name":"contributionAmount","type":"uint256","indexed":false,"internalType":"uint256"},{"name":"frequencySeconds","type":"uint256","indexed":false,"internalType":"uint256"},{"name":"collateralAmount","type":"uint256","indexed":false,"internalType":"uint256"}],"anonymous":false},{"type":"event","name":"Withdrawal","inputs":[{"name":"user","type":"address","indexed":true,"internalType":"address"},{"name":"amount","type":"uint256","indexed":false,"internalType":"uint256"}],"anonymous":false},{"type":"error","name":"AlreadyMember","inputs":[]},{"type":"error","name":"InsufficientAllowance","inputs":[]},{"type":"error","name":"InvalidTontine","inputs":[]},{"type":"error","name":"NotMember","inputs":[]},{"type":"error","name":"NotRegisteredService","inputs":[]},{"type":"error","name":"NotYourTurn","inputs":[]},{"type":"error","name":"TontineNotActive","inputs":[]},{"type":"error","name":"TooEarly","inputs":[]},{"type":"error","name":"TransferFailed","inputs":[]}],"bytecode":{"object":"0x60c060405234801561000f575f80fd5b50604051611db8380380611db883398181016040528101906100319190610197565b335f806101000a81548173ffffffffffffffffffffffffffffffffffffffff021916908373ffffffffffffffffffffffffffffffffffffffff1602179055503373ffffffffffffffffffffffffffffffffffffffff165f73ffffffffffffffffffffffffffffffffffffffff167f8be0079c531659141344cd1fd0a4f28419497f9722a3daafe3b4186f6b6457e060405160405180910390a38173ffffffffffffffffffffffffffffffffffffffff1660808173ffffffffffffffffffffffffffffffffffffffff16815250508073ffffffffffffffffffffffffffffffffffffffff1660a08173ffffffffffffffffffffffffffffffffffffffff168152505050506101d5565b5f80fd5b5f73ffffffffffffffffffffffffffffffffffffffff82169050919050565b5f6101668261013d565b9050919050565b6101768161015c565b8114610180575f80fd5b50565b5f815190506101918161016d565b92915050565b5f80604083850312156101ad576101ac610139565b5b5f6101ba85828601610183565b92505060206101cb85828601610183565b9150509250929050565b60805160a051611ba66102125f395f818161055301528181610677015281816108c60152610c4a01525f81816109f501526110e30152611ba65ff3fe608060405234801561000f575f80fd5b50600436106100fe575f3560e01c80638da5cb5b11610095578063ee98e55e11610064578063ee98e55e14610284578063f134055c146102b4578063f2fde38b146102ea578063f3f4370314610306576100fe565b80638da5cb5b1461021057806393a397761461022e578063a7bedfdf1461024c578063b91b1e2b14610268576100fe565b80633d558dd9116100d15780633d558dd91461017657806374fdfce0146101945780637d9e10f5146101c4578063831fe39b146101f4576100fe565b806316ecf2c7146101025780632009844b14610132578063386b6ede1461014e5780633ccfd60b1461016c575b5f80fd5b61011c600480360381019061011791906113dd565b610336565b604051610129919061143c565b60405180910390f35b61014c60048036038101906101479190611455565b610448565b005b6101566107f8565b604051610163919061143c565b60405180910390f35b6101746107fe565b005b61017e6109f3565b60405161018b91906114fa565b60405180910390f35b6101ae60048036038101906101a9919061154e565b610a17565b6040516101bb919061143c565b60405180910390f35b6101de60048036038101906101d9919061154e565b610a37565b6040516101eb91906115a6565b60405180910390f35b61020e6004803603810190610209919061154e565b610a61565b005b610218610c25565b60405161022591906115ce565b60405180910390f35b610236610c48565b6040516102439190611607565b60405180910390f35b61026660048036038101906102619190611455565b610c6c565b005b610282600480360381019061027d9190611620565b610ead565b005b61029e6004803603810190610299919061164b565b610f03565b6040516102ab91906115ce565b60405180910390f35b6102ce60048036038101906102c99190611455565b610f4b565b6040516102e19796959493929190611689565b60405180910390f35b61030460048036038101906102ff9190611620565b610f95565b005b610320600480360381019061031b9190611620565b6110cc565b60405161032d919061143c565b60405180910390f35b5f61033f6110e1565b60025f81548092919061035190611723565b9190505590506040518060e001604052808581526020018481526020018381526020015f8152602001428152602001844261038c919061176a565b81526020016001151581525060015f8381526020019081526020015f205f820151815f01556020820151816001015560408201518160020155606082015181600301556080820151816004015560a0820151816005015560c0820151816006015f6101000a81548160ff021916908315150217905550905050807f31ecbd3bac3663f9b707030b8d889ca4cd4cd81bd2d6fac571bc739ccf1fd9ce8585856040516104399392919061179d565b60405180910390a29392505050565b6104506110e1565b5f60015f8381526020019081526020015f209050600254821015806104835750806006015f9054906101000a900460ff16155b156104ba576040517fe0c64bab00000000000000000000000000000000000000000000000000000000815260040160405180910390fd5b60045f8381526020019081526020015f205f3373ffffffffffffffffffffffffffffffffffffffff1673ffffffffffffffffffffffffffffffffffffffff1681526020019081526020015f205f9054906101000a900460ff16610549576040517f291fc44200000000000000000000000000000000000000000000000000000000815260040160405180910390fd5b5f815f01549050807f000000000000000000000000000000000000000000000000000000000000000073ffffffffffffffffffffffffffffffffffffffff1663dd62ed3e33306040518363ffffffff1660e01b81526004016105ac9291906117d2565b602060405180830381865afa1580156105c7573d5f803e3d5ffd5b505050506040513d601f19601f820116820180604052508101906105eb919061180d565b1015610623576040517f13be252b00000000000000000000000000000000000000000000000000000000815260040160405180910390fd5b4260055f8581526020019081526020015f205f3373ffffffffffffffffffffffffffffffffffffffff1673ffffffffffffffffffffffffffffffffffffffff1681526020019081526020015f20819055505f7f000000000000000000000000000000000000000000000000000000000000000073ffffffffffffffffffffffffffffffffffffffff166323b872dd3330856040518463ffffffff1660e01b81526004016106d293929190611838565b6020604051808303815f875af11580156106ee573d5f803e3d5ffd5b505050506040513d601f19601f820116820180604052508101906107129190611897565b90508061074b576040517f90b8ec1800000000000000000000000000000000000000000000000000000000815260040160405180910390fd5b5f836003015490503373ffffffffffffffffffffffffffffffffffffffff16857f7f20fe5080bd7a6de86197c87491108691614d098da9edc0f3e2a9f0c52e3740858460405161079c9291906118c2565b60405180910390a33373ffffffffffffffffffffffffffffffffffffffff167f981f52eb3058a0fee1dcc5381da9edcc553e1ed579f212bec867f238d41ecef460405160405180910390a26107f185846111b1565b5050505050565b60025481565b5f60065f3373ffffffffffffffffffffffffffffffffffffffff1673ffffffffffffffffffffffffffffffffffffffff1681526020019081526020015f205490505f8111610881576040517f08c379a000000000000000000000000000000000000000000000000000000000815260040161087890611943565b60405180910390fd5b5f60065f3373ffffffffffffffffffffffffffffffffffffffff1673ffffffffffffffffffffffffffffffffffffffff1681526020019081526020015f20819055505f7f000000000000000000000000000000000000000000000000000000000000000073ffffffffffffffffffffffffffffffffffffffff1663a9059cbb33846040518363ffffffff1660e01b815260040161091f929190611961565b6020604051808303815f875af115801561093b573d5f803e3d5ffd5b505050506040513d601f19601f8201168201806040525081019061095f9190611897565b9050806109a1576040517f08c379a0000000000000000000000000000000000000000000000000000000008152600401610998906119d2565b60405180910390fd5b3373ffffffffffffffffffffffffffffffffffffffff167f7fcf532c15f0a6db0bd6d0e038bea71d30d808c7d98cb3bf7268a95bf5081b65836040516109e7919061143c565b60405180910390a25050565b7f000000000000000000000000000000000000000000000000000000000000000081565b6005602052815f5260405f20602052805f5260405f205f91509150505481565b6004602052815f5260405f20602052805f5260405f205f915091509054906101000a900460ff1681565b610a69611317565b610a716110e1565b5f60015f8481526020019081526020015f20905060025483101580610aa45750806006015f9054906101000a900460ff16155b15610adb576040517fe0c64bab00000000000000000000000000000000000000000000000000000000815260040160405180910390fd5b60045f8481526020019081526020015f205f8373ffffffffffffffffffffffffffffffffffffffff1673ffffffffffffffffffffffffffffffffffffffff1681526020019081526020015f205f9054906101000a900460ff16610b6a576040517f291fc44200000000000000000000000000000000000000000000000000000000815260040160405180910390fd5b806005015460055f8581526020019081526020015f205f8473ffffffffffffffffffffffffffffffffffffffff1673ffffffffffffffffffffffffffffffffffffffff1681526020019081526020015f205410610bc75750610c21565b5f816002015490508273ffffffffffffffffffffffffffffffffffffffff16847f1e12c8aa9742cc69262e1c709fa52dc0828be06572e7f0842352890292373d2f83604051610c16919061143c565b60405180910390a350505b5050565b5f8054906101000a900473ffffffffffffffffffffffffffffffffffffffff1681565b7f000000000000000000000000000000000000000000000000000000000000000081565b610c746110e1565b5f60015f8381526020019081526020015f20905060025482101580610ca75750806006015f9054906101000a900460ff16155b15610cde576040517fe0c64bab00000000000000000000000000000000000000000000000000000000815260040160405180910390fd5b60045f8381526020019081526020015f205f3373ffffffffffffffffffffffffffffffffffffffff1673ffffffffffffffffffffffffffffffffffffffff1681526020019081526020015f205f9054906101000a900460ff1615610d6e576040517f810074be00000000000000000000000000000000000000000000000000000000815260040160405180910390fd5b5f60035f8481526020019081526020015f2080549050905060035f8481526020019081526020015f2033908060018154018082558091505060019003905f5260205f20015f9091909190916101000a81548173ffffffffffffffffffffffffffffffffffffffff021916908373ffffffffffffffffffffffffffffffffffffffff160217905550600160045f8581526020019081526020015f205f3373ffffffffffffffffffffffffffffffffffffffff1673ffffffffffffffffffffffffffffffffffffffff1681526020019081526020015f205f6101000a81548160ff0219169083151502179055503373ffffffffffffffffffffffffffffffffffffffff16837ff4f82575ee84a81aac4be52b6a368e9ba9df524b4f5cf8177d7cfbabe861820c83604051610ea0919061143c565b60405180910390a3505050565b610eb5611317565b610ebd6110e1565b8073ffffffffffffffffffffffffffffffffffffffff167f981f52eb3058a0fee1dcc5381da9edcc553e1ed579f212bec867f238d41ecef460405160405180910390a250565b6003602052815f5260405f208181548110610f1c575f80fd5b905f5260205f20015f915091509054906101000a900473ffffffffffffffffffffffffffffffffffffffff1681565b6001602052805f5260405f205f91509050805f015490806001015490806002015490806003015490806004015490806005015490806006015f9054906101000a900460ff16905087565b610f9d611317565b5f73ffffffffffffffffffffffffffffffffffffffff168173ffffffffffffffffffffffffffffffffffffffff160361100b576040517f08c379a000000000000000000000000000000000000000000000000000000000815260040161100290611a60565b60405180910390fd5b5f805f9054906101000a900473ffffffffffffffffffffffffffffffffffffffff169050815f806101000a81548173ffffffffffffffffffffffffffffffffffffffff021916908373ffffffffffffffffffffffffffffffffffffffff1602179055508173ffffffffffffffffffffffffffffffffffffffff168173ffffffffffffffffffffffffffffffffffffffff167f8be0079c531659141344cd1fd0a4f28419497f9722a3daafe3b4186f6b6457e060405160405180910390a35050565b6006602052805f5260405f205f915090505481565b7f000000000000000000000000000000000000000000000000000000000000000073ffffffffffffffffffffffffffffffffffffffff1663c3c5a547306040518263ffffffff1660e01b815260040161113a91906115ce565b602060405180830381865afa158015611155573d5f803e3d5ffd5b505050506040513d601f19601f820116820180604052508101906111799190611897565b6111af576040517fd91ed6e200000000000000000000000000000000000000000000000000000000815260040160405180910390fd5b565b5f60015f8481526020019081526020015f2090505f60035f8581526020019081526020015f2090505f8180549050036111eb575050611313565b5f8183600301548154811061120357611202611a7e565b5b905f5260205f20015f9054906101000a900473ffffffffffffffffffffffffffffffffffffffff1690508360065f8373ffffffffffffffffffffffffffffffffffffffff1673ffffffffffffffffffffffffffffffffffffffff1681526020019081526020015f205f828254611279919061176a565b925050819055508073ffffffffffffffffffffffffffffffffffffffff16857fac496bf04b429bf7a6bb179271f3194066e9462a4f0d8afac065edd1f2be36b8866040516112c7919061143c565b60405180910390a38180549050600184600301546112e5919061176a565b6112ef9190611ad8565b8360030181905550826001015442611307919061176a565b83600501819055505050505b5050565b3373ffffffffffffffffffffffffffffffffffffffff165f8054906101000a900473ffffffffffffffffffffffffffffffffffffffff1673ffffffffffffffffffffffffffffffffffffffff16146113a4576040517f08c379a000000000000000000000000000000000000000000000000000000000815260040161139b90611b52565b60405180910390fd5b565b5f80fd5b5f819050919050565b6113bc816113aa565b81146113c6575f80fd5b50565b5f813590506113d7816113b3565b92915050565b5f805f606084860312156113f4576113f36113a6565b5b5f611401868287016113c9565b9350506020611412868287016113c9565b9250506040611423868287016113c9565b9150509250925092565b611436816113aa565b82525050565b5f60208201905061144f5f83018461142d565b92915050565b5f6020828403121561146a576114696113a6565b5b5f611477848285016113c9565b91505092915050565b5f73ffffffffffffffffffffffffffffffffffffffff82169050919050565b5f819050919050565b5f6114c26114bd6114b884611480565b61149f565b611480565b9050919050565b5f6114d3826114a8565b9050919050565b5f6114e4826114c9565b9050919050565b6114f4816114da565b82525050565b5f60208201905061150d5f8301846114eb565b92915050565b5f61151d82611480565b9050919050565b61152d81611513565b8114611537575f80fd5b50565b5f8135905061154881611524565b92915050565b5f8060408385031215611564576115636113a6565b5b5f611571858286016113c9565b92505060206115828582860161153a565b9150509250929050565b5f8115159050919050565b6115a08161158c565b82525050565b5f6020820190506115b95f830184611597565b92915050565b6115c881611513565b82525050565b5f6020820190506115e15f8301846115bf565b92915050565b5f6115f1826114c9565b9050919050565b611601816115e7565b82525050565b5f60208201905061161a5f8301846115f8565b92915050565b5f60208284031215611635576116346113a6565b5b5f6116428482850161153a565b91505092915050565b5f8060408385031215611661576116606113a6565b5b5f61166e858286016113c9565b925050602061167f858286016113c9565b9150509250929050565b5f60e08201905061169c5f83018a61142d565b6116a9602083018961142d565b6116b6604083018861142d565b6116c3606083018761142d565b6116d0608083018661142d565b6116dd60a083018561142d565b6116ea60c0830184611597565b98975050505050505050565b7f4e487b71000000000000000000000000000000000000000000000000000000005f52601160045260245ffd5b5f61172d826113aa565b91507fffffffffffffffffffffffffffffffffffffffffffffffffffffffffffffffff820361175f5761175e6116f6565b5b600182019050919050565b5f611774826113aa565b915061177f836113aa565b9250828201905080821115611797576117966116f6565b5b92915050565b5f6060820190506117b05f83018661142d565b6117bd602083018561142d565b6117ca604083018461142d565b949350505050565b5f6040820190506117e55f8301856115bf565b6117f260208301846115bf565b9392505050565b5f81519050611807816113b3565b92915050565b5f60208284031215611822576118216113a6565b5b5f61182f848285016117f9565b91505092915050565b5f60608201905061184b5f8301866115bf565b61185860208301856115bf565b611865604083018461142d565b949350505050565b6118768161158c565b8114611880575f80fd5b50565b5f815190506118918161186d565b92915050565b5f602082840312156118ac576118ab6113a6565b5b5f6118b984828501611883565b91505092915050565b5f6040820190506118d55f83018561142d565b6118e2602083018461142d565b9392505050565b5f82825260208201905092915050565b7f546f6e74696e653a206e6f7468696e6720746f207769746864726177000000005f82015250565b5f61192d601c836118e9565b9150611938826118f9565b602082019050919050565b5f6020820190508181035f83015261195a81611921565b9050919050565b5f6040820190506119745f8301856115bf565b611981602083018461142d565b9392505050565b7f546f6e74696e653a207472616e73666572206661696c656400000000000000005f82015250565b5f6119bc6018836118e9565b91506119c782611988565b602082019050919050565b5f6020820190508181035f8301526119e9816119b0565b9050919050565b7f4f776e61626c653a206e6577206f776e657220697320746865207a65726f20615f8201527f6464726573730000000000000000000000000000000000000000000000000000602082015250565b5f611a4a6026836118e9565b9150611a55826119f0565b604082019050919050565b5f6020820190508181035f830152611a7781611a3e565b9050919050565b7f4e487b71000000000000000000000000000000000000000000000000000000005f52603260045260245ffd5b7f4e487b71000000000000000000000000000000000000000000000000000000005f52601260045260245ffd5b5f611ae2826113aa565b9150611aed836113aa565b925082611afd57611afc611aab565b5b828206905092915050565b7f4f776e61626c653a2063616c6c6572206973206e6f7420746865206f776e65725f82015250565b5f611b3c6020836118e9565b9150611b4782611b08565b602082019050919050565b5f6020820190508181035f830152611b6981611b30565b905091905056fea26469706673582212203fc3f997617313580f8bf3cc39a3d9de736cbf8ec20028602750c347aa1a7d4c64736f6c634300081a0033","linkReferences":{}},"methodIdentifiers":{"NEXUS_REGISTRY()":"3d558dd9","STABLECOIN()":"93a39776","createTontine(uint256,uint256,uint256)":"16ecf2c7","isMember(uint256,address)":"7d9e10f5","joinTontine(uint256)":"a7bedfdf","lastPaidAt(uint256,address)":"74fdfce0","nextTontineId()":"386b6ede","owner()":"8da5cb5b","payContribution(uint256)":"2009844b","pendingWithdrawals(address)":"f3f43703","recordPaymentSuccess(address)":"b91b1e2b","slashCollateral(uint256,address)":"831fe39b","tontineGroups(uint256)":"f134055c","tontineMembers(uint256,uint256)":"ee98e55e","transferOwnership(address)":"f2fde38b","withdraw()":"3ccfd60b"},"id":22}