{"abi":[{"type":"constructor","inputs":[],"stateMutability":"nonpayable"},{"type":"function","name":"allowance","inputs":[{"name":"","type":"address","internalType":"address"},{"name":"","type":"address","internalType":"address"}],"outputs":[{"name":"","type":"uint256","internalType":"uint256"}],"stateMutability":"view"},{"type":"function","name":"approve","inputs":[{"name":"spender","type":"address","internalType":"address"},{"name":"amount","type":"uint256","internalType":"uint256"}],"outputs":[{"name":"","type":"bool","internalType":"bool"}],"stateMutability":"nonpayable"},{"type":"function","name":"balanceOf","inputs":[{"name":"","type":"address","internalType":"address"}],"outputs":[{"name":"","type":"uint256","internalType":"uint256"}],"stateMutability":"view"},{"type":"function","name":"burn","inputs":[{"name":"from","type":"address","internalType":"address"},{"name":"amount","type":"uint256","internalType":"uint256"}],"outputs":[],"stateMutability":"nonpayable"},{"type":"function","name":"decimals","inputs":[],"outputs":[{"name":"","type":"uint8","internalType":"uint8"}],"stateMutability":"view"},{"type":"function","name":"mint","inputs":[{"name":"to","type":"address","internalType":"address"},{"name":"amount","type":"uint256","internalType":"uint256"}],"outputs":[],"stateMutability":"nonpayable"},{"type":"function","name":"minter","inputs":[],"outputs":[{"name":"","type":"address","internalType":"address"}],"stateMutability":"view"},{"type":"function","name":"name","inputs":[],"outputs":[{"name":"","type":"string","internalType":"string"}],"stateMutability":"view"},{"type":"function","name":"symbol","inputs":[],"outputs":[{"name":"","type":"string","internalType":"string"}],"stateMutability":"view"},{"type":"function","name":"totalSupply","inputs":[],"outputs":[{"name":"","type":"uint256","internalType":"uint256"}],"stateMutability":"view"},{"type":"function","name":"transfer","inputs":[{"name":"to","type":"address","internalType":"address"},{"name":"amount","type":"uint256","internalType":"uint256"}],"outputs":[{"name":"","type":"bool","internalType":"bool"}],"stateMutability":"nonpayable"},{"type":"function","name":"transferFrom","inputs":[{"name":"from","type":"address","internalType":"address"},{"name":"to","type":"address","internalType":"address"},{"name":"amount","type":"uint256","internalType":"uint256"}],"outputs":[{"name":"","type":"bool","internalType":"bool"}],"stateMutability":"nonpayable"},{"type":"event","name":"Approval","inputs":[{"name":"owner","type":"address","indexed":true,"internalType":"address"},{"name":"spender","type":"address","indexed":true,"internalType":"address"},{"name":"value","type":"uint256","indexed":false,"internalType":"uint256"}],"anonymous":false},{"type":"event","name":"Transfer","inputs":[{"name":"from","type":"address","indexed":true,"internalType":"address"},{"name":"to","type":"address","indexed":true,"internalType":"address"},{"name":"value","type":"uint256","indexed":false,"internalType":"uint256"}],"anonymous":false}],"bytecode":{"object":"0x60806040526040518060400160405280600981526020017f4d6f636b205553445400000000000000000000000000000000000000000000008152505f90816100479190610333565b506040518060400160405280600481526020017f55534454000000000000000000000000000000000000000000000000000000008152506001908161008c9190610333565b50600660025f6101000a81548160ff021916908360ff1602179055503480156100b3575f80fd5b503360065f6101000a81548173ffffffffffffffffffffffffffffffffffffffff021916908373ffffffffffffffffffffffffffffffffffffffff160217905550610402565b5f81519050919050565b7f4e487b71000000000000000000000000000000000000000000000000000000005f52604160045260245ffd5b7f4e487b71000000000000000000000000000000000000000000000000000000005f52602260045260245ffd5b5f600282049050600182168061017457607f821691505b60208210810361018757610186610130565b5b50919050565b5f819050815f5260205f209050919050565b5f6020601f8301049050919050565b5f82821b905092915050565b5f600883026101e97fffffffffffffffffffffffffffffffffffffffffffffffffffffffffffffffff826101ae565b6101f386836101ae565b95508019841693508086168417925050509392505050565b5f819050919050565b5f819050919050565b5f61023761023261022d8461020b565b610214565b61020b565b9050919050565b5f819050919050565b6102508361021d565b61026461025c8261023e565b8484546101ba565b825550505050565b5f90565b61027861026c565b610283818484610247565b505050565b5b818110156102a65761029b5f82610270565b600181019050610289565b5050565b601f8211156102eb576102bc8161018d565b6102c58461019f565b810160208510156102d4578190505b6102e86102e08561019f565b830182610288565b50505b505050565b5f82821c905092915050565b5f61030b5f19846008026102f0565b1980831691505092915050565b5f61032383836102fc565b9150826002028217905092915050565b61033c826100f9565b67ffffffffffffffff81111561035557610354610103565b5b61035f825461015d565b61036a8282856102aa565b5f60209050601f83116001811461039b575f8415610389578287015190505b6103938582610318565b8655506103fa565b601f1984166103a98661018d565b5f5b828110156103d0578489015182556001820191506020850194506020810190506103ab565b868310156103ed57848901516103e9601f8916826102fc565b8355505b6001600288020188555050505b505050505050565b610fd48061040f5f395ff3fe608060405234801561000f575f80fd5b50600436106100b2575f3560e01c806340c10f191161006f57806340c10f191461018e57806370a08231146101aa57806395d89b41146101da5780639dc29fac146101f8578063a9059cbb14610214578063dd62ed3e14610244576100b2565b806306fdde03146100b657806307546172146100d4578063095ea7b3146100f257806318160ddd1461012257806323b872dd14610140578063313ce56714610170575b5f80fd5b6100be610274565b6040516100cb9190610b17565b60405180910390f35b6100dc6102ff565b6040516100e99190610b76565b60405180910390f35b61010c60048036038101906101079190610bf0565b610324565b6040516101199190610c48565b60405180910390f35b61012a610411565b6040516101379190610c70565b60405180910390f35b61015a60048036038101906101559190610c89565b610417565b6040516101679190610c48565b60405180910390f35b61017861056d565b6040516101859190610cf4565b60405180910390f35b6101a860048036038101906101a39190610bf0565b61057f565b005b6101c460048036038101906101bf9190610d0d565b61065b565b6040516101d19190610c70565b60405180910390f35b6101e2610670565b6040516101ef9190610b17565b60405180910390f35b610212600480360381019061020d9190610bf0565b6106fc565b005b61022e60048036038101906102299190610bf0565b610850565b60405161023b9190610c48565b60405180910390f35b61025e60048036038101906102599190610d38565b610866565b60405161026b9190610c70565b60405180910390f35b5f805461028090610da3565b80601f01602080910402602001604051908101604052809291908181526020018280546102ac90610da3565b80156102f75780601f106102ce576101008083540402835291602001916102f7565b820191905f5260205f20905b8154815290600101906020018083116102da57829003601f168201915b505050505081565b60065f9054906101000a900473ffffffffffffffffffffffffffffffffffffffff1681565b5f8160055f3373ffffffffffffffffffffffffffffffffffffffff1673ffffffffffffffffffffffffffffffffffffffff1681526020019081526020015f205f8573ffffffffffffffffffffffffffffffffffffffff1673ffffffffffffffffffffffffffffffffffffffff1681526020019081526020015f20819055508273ffffffffffffffffffffffffffffffffffffffff163373ffffffffffffffffffffffffffffffffffffffff167f8c5be1e5ebec7d5bd14f71427d1e84f3dd0314c0f7b2291e5b200ac8c7c3b925846040516103ff9190610c70565b60405180910390a36001905092915050565b60035481565b5f8060055f8673ffffffffffffffffffffffffffffffffffffffff1673ffffffffffffffffffffffffffffffffffffffff1681526020019081526020015f205f3373ffffffffffffffffffffffffffffffffffffffff1673ffffffffffffffffffffffffffffffffffffffff1681526020019081526020015f20549050828110156104d7576040517f08c379a00000000000000000000000000000000000000000000000000000000081526004016104ce90610e1d565b60405180910390fd5b82810360055f8773ffffffffffffffffffffffffffffffffffffffff1673ffffffffffffffffffffffffffffffffffffffff1681526020019081526020015f205f3373ffffffffffffffffffffffffffffffffffffffff1673ffffffffffffffffffffffffffffffffffffffff1681526020019081526020015f2081905550610561858585610886565b60019150509392505050565b60025f9054906101000a900460ff1681565b610587610a16565b8060035f8282546105989190610e68565b925050819055508060045f8473ffffffffffffffffffffffffffffffffffffffff1673ffffffffffffffffffffffffffffffffffffffff1681526020019081526020015f205f8282546105eb9190610e68565b925050819055508173ffffffffffffffffffffffffffffffffffffffff165f73ffffffffffffffffffffffffffffffffffffffff167fddf252ad1be2c89b69c2b068fc378daa952ba7f163c4a11628f55a4df523b3ef8360405161064f9190610c70565b60405180910390a35050565b6004602052805f5260405f205f915090505481565b6001805461067d90610da3565b80601f01602080910402602001604051908101604052809291908181526020018280546106a990610da3565b80156106f45780601f106106cb576101008083540402835291602001916106f4565b820191905f5260205f20905b8154815290600101906020018083116106d757829003601f168201915b505050505081565b8060045f8473ffffffffffffffffffffffffffffffffffffffff1673ffffffffffffffffffffffffffffffffffffffff1681526020019081526020015f2054101561077c576040517f08c379a000000000000000000000000000000000000000000000000000000000815260040161077390610ee5565b60405180910390fd5b8060045f8473ffffffffffffffffffffffffffffffffffffffff1673ffffffffffffffffffffffffffffffffffffffff1681526020019081526020015f205f8282546107c89190610f03565b925050819055508060035f8282546107e09190610f03565b925050819055505f73ffffffffffffffffffffffffffffffffffffffff168273ffffffffffffffffffffffffffffffffffffffff167fddf252ad1be2c89b69c2b068fc378daa952ba7f163c4a11628f55a4df523b3ef836040516108449190610c70565b60405180910390a35050565b5f61085c338484610886565b6001905092915050565b6005602052815f5260405f20602052805f5260405f205f91509150505481565b8060045f8573ffffffffffffffffffffffffffffffffffffffff1673ffffffffffffffffffffffffffffffffffffffff1681526020019081526020015f20541015610906576040517f08c379a00000000000000000000000000000000000000000000000000000000081526004016108fd90610ee5565b60405180910390fd5b8060045f8573ffffffffffffffffffffffffffffffffffffffff1673ffffffffffffffffffffffffffffffffffffffff1681526020019081526020015f205f8282546109529190610f03565b925050819055508060045f8473ffffffffffffffffffffffffffffffffffffffff1673ffffffffffffffffffffffffffffffffffffffff1681526020019081526020015f205f8282546109a59190610e68565b925050819055508173ffffffffffffffffffffffffffffffffffffffff168373ffffffffffffffffffffffffffffffffffffffff167fddf252ad1be2c89b69c2b068fc378daa952ba7f163c4a11628f55a4df523b3ef83604051610a099190610c70565b60405180910390a3505050565b60065f9054906101000a900473ffffffffffffffffffffffffffffffffffffffff1673ffffffffffffffffffffffffffffffffffffffff163373ffffffffffffffffffffffffffffffffffffffff1614610aa5576040517f08c379a0000000000000000000000000000000000000000000000000000000008152600401610a9c90610f80565b60405180910390fd5b565b5f81519050919050565b5f82825260208201905092915050565b8281835e5f83830152505050565b5f601f19601f8301169050919050565b5f610ae982610aa7565b610af38185610ab1565b9350610b03818560208601610ac1565b610b0c81610acf565b840191505092915050565b5f6020820190508181035f830152610b2f8184610adf565b905092915050565b5f73ffffffffffffffffffffffffffffffffffffffff82169050919050565b5f610b6082610b37565b9050919050565b610b7081610b56565b82525050565b5f602082019050610b895f830184610b67565b92915050565b5f80fd5b610b9c81610b56565b8114610ba6575f80fd5b50565b5f81359050610bb781610b93565b92915050565b5f819050919050565b610bcf81610bbd565b8114610bd9575f80fd5b50565b5f81359050610bea81610bc6565b92915050565b5f8060408385031215610c0657610c05610b8f565b5b5f610c1385828601610ba9565b9250506020610c2485828601610bdc565b9150509250929050565b5f8115159050919050565b610c4281610c2e565b82525050565b5f602082019050610c5b5f830184610c39565b92915050565b610c6a81610bbd565b82525050565b5f602082019050610c835f830184610c61565b92915050565b5f805f60608486031215610ca057610c9f610b8f565b5b5f610cad86828701610ba9565b9350506020610cbe86828701610ba9565b9250506040610ccf86828701610bdc565b9150509250925092565b5f60ff82169050919050565b610cee81610cd9565b82525050565b5f602082019050610d075f830184610ce5565b92915050565b5f60208284031215610d2257610d21610b8f565b5b5f610d2f84828501610ba9565b91505092915050565b5f8060408385031215610d4e57610d4d610b8f565b5b5f610d5b85828601610ba9565b9250506020610d6c85828601610ba9565b9150509250929050565b7f4e487b71000000000000000000000000000000000000000000000000000000005f52602260045260245ffd5b5f6002820490506001821680610dba57607f821691505b602082108103610dcd57610dcc610d76565b5b50919050565b7f4d6f636b555344543a20696e73756666696369656e7420616c6c6f77616e63655f82015250565b5f610e07602083610ab1565b9150610e1282610dd3565b602082019050919050565b5f6020820190508181035f830152610e3481610dfb565b9050919050565b7f4e487b71000000000000000000000000000000000000000000000000000000005f52601160045260245ffd5b5f610e7282610bbd565b9150610e7d83610bbd565b9250828201905080821115610e9557610e94610e3b565b5b92915050565b7f4d6f636b555344543a20696e73756666696369656e742062616c616e636500005f82015250565b5f610ecf601e83610ab1565b9150610eda82610e9b565b602082019050919050565b5f6020820190508181035f830152610efc81610ec3565b9050919050565b5f610f0d82610bbd565b9150610f1883610bbd565b9250828203905081811115610f3057610f2f610e3b565b5b92915050565b7f4d6f636b555344543a206e6f74206d696e7465720000000000000000000000005f82015250565b5f610f6a601483610ab1565b9150610f7582610f36565b602082019050919050565b5f6020820190508181035f830152610f9781610f5e565b905091905056fea2646970667358221220de5321bf108372e8d3a7e14f8d9cf51387f9ac9adee2da6ced9655e5bae2211464736f6c634300081a0033","linkReferences":{}},"methodIdentifiers":{"allowance(address,address)":"dd62ed3e","approve(address,uint256)":"095ea7b3","balanceOf(address)":"70a08231","burn(address,uint256)":"9dc29fac","decimals()":"313ce567","mint(address,uint256)":"40c10f19","minter()":"07546172","name()":"06fdde03","symbol()":"95d89b41","totalSupply()":"18160ddd","transfer(address,uint256)":"a9059cbb","transferFrom(address,address,uint256)":"23b872dd"},"id":24}