{"abi":[{"type":"constructor","inputs":[],"stateMutability":"nonpayable"},{"type":"function","name":"allowance","inputs":[{"name":"","type":"address","internalType":"address"},{"name":"","type":"address","internalType":"address"}],"outputs":[{"name":"","type":"uint256","internalType":"uint256"}],"stateMutability":"view"},{"type":"function","name":"approve","inputs":[{"name":"spender","type":"address","internalType":"address"},{"name":"amount","type":"uint256","internalType":"uint256"}],"outputs":[{"name":"","type":"bool","internalType":"bool"}],"stateMutability":"nonpayable"},{"type":"function","name":"balanceOf","inputs":[{"name":"","type":"address","internalType":"address"}],"outputs":[{"name":"","type":"uint256","internalType":"uint256"}],"stateMutability":"view"},{"type":"function","name":"burn","inputs":[{"name":"from","type":"address","internalType":"address"},{"name":"amount","type":"uint256","internalType":"uint256"}],"outputs":[],"stateMutability":"nonpayable"},{"type":"function","name":"decimals","inputs":[],"outputs":[{"name":"","type":"uint8","internalType":"uint8"}],"stateMutability":"view"},{"type":"function","name":"mint","inputs":[{"name":"to","type":"address","internalType":"address"},{"name":"amount","type":"uint256","internalType":"uint256"}],"outputs":[],"stateMutability":"nonpayable"},{"type":"function","name":"minter","inputs":[],"outputs":[{"name":"","type":"address","internalType":"address"}],"stateMutability":"view"},{"type":"function","name":"name","inputs":[],"outputs":[{"name":"","type":"string","internalType":"string"}],"stateMutability":"view"},{"type":"function","name":"symbol","inputs":[],"outputs":[{"name":"","type":"string","internalType":"string"}],"stateMutability":"view"},{"type":"function","name":"totalSupply","inputs":[],"outputs":[{"name":"","type":"uint256","internalType":"uint256"}],"stateMutability":"view"},{"type":"function","name":"transfer","inputs":[{"name":"to","type":"address","internalType":"address"},{"name":"amount","type":"uint256","internalType":"uint256"}],"outputs":[{"name":"","type":"bool","internalType":"bool"}],"stateMutability":"nonpayable"},{"type":"function","name":"transferFrom","inputs":[{"name":"from","type":"address","internalType":"address"},{"name":"to","type":"address","internalType":"address"},{"name":"amount","type":"uint256","internalType":"uint256"}],"outputs":[{"name":"","type":"bool","internalType":"bool"}],"stateMutability":"nonpayable"},{"type":"event","name":"Approval","inputs":[{"name":"owner","type":"address","indexed":true,"internalType":"address"},{"name":"spender","type":"address","indexed":true,"internalType":"address"},{"name":"value","type":"uint256","indexed":false,"internalType":"uint256"}],"anonymous":false},{"type":"event","name":"Transfer","inputs":[{"name":"from","type":"address","indexed":true,"internalType":"address"},{"name":"to","type":"address","indexed":true,"internalType":"address"},{"name":"value","type":"uint256","indexed":false,"internalType":"uint256"}],"anonymous":false}],"bytecode":{"object":"0x60806040526040518060400160405280600981526020017f4d6f636b205553445400000000000000000000000000000000000000000000008152505f90816100479190610333565b506040518060400160405280600481526020017f55534454000000000000000000000000000000000000000000000000000000008152506001908161008c9190610333565b50600660025f6101000a81548160ff021916908360ff1602179055503480156100b3575f80fd5b503360065f6101000a81548173ffffffffffffffffffffffffffffffffffffffff021916908373ffffffffffffffffffffffffffffffffffffffff160217905550610402565b5f81519050919050565b7f4e487b71000000000000000000000000000000000000000000000000000000005f52604160045260245ffd5b7f4e487b71000000000000000000000000000000000000000000000000000000005f52602260045260245ffd5b5f600282049050600182168061017457607f821691505b60208210810361018757610186610130565b5b50919050565b5f819050815f5260205f209050919050565b5f6020601f8301049050919050565b5f82821b905092915050565b5f600883026101e97fffffffffffffffffffffffffffffffffffffffffffffffffffffffffffffffff826101ae565b6101f386836101ae565b95508019841693508086168417925050509392505050565b5f819050919050565b5f819050919050565b5f61023761023261022d8461020b565b610214565b61020b565b9050919050565b5f819050919050565b6102508361021d565b61026461025c8261023e565b8484546101ba565b825550505050565b5f90565b61027861026c565b610283818484610247565b505050565b5b818110156102a65761029b5f82610270565b600181019050610289565b5050565b601f8211156102eb576102bc8161018d565b6102c58461019f565b810160208510156102d4578190505b6102e86102e08561019f565b830182610288565b50505b505050565b5f82821c905092915050565b5f61030b5f19846008026102f0565b1980831691505092915050565b5f61032383836102fc565b9150826002028217905092915050565b61033c826100f9565b67ffffffffffffffff81111561035557610354610103565b5b61035f825461015d565b61036a8282856102aa565b5f60209050601f83116001811461039b575f8415610389578287015190505b6103938582610318565b8655506103fa565b601f1984166103a98661018d565b5f5b828110156103d0578489015182556001820191506020850194506020810190506103ab565b868310156103ed57848901516103e9601f8916826102fc565b8355505b6001600288020188555050505b505050505050565b610fca8061040f5f395ff3fe608060405234801561000f575f80fd5b50600436106100b2575f3560e01c806340c10f191161006f57806340c10f191461018e57806370a08231146101aa57806395d89b41146101da5780639dc29fac146101f8578063a9059cbb14610214578063dd62ed3e14610244576100b2565b806306fdde03146100b657806307546172146100d4578063095ea7b3146100f257806318160ddd1461012257806323b872dd14610140578063313ce56714610170575b5f80fd5b6100be610274565b6040516100cb9190610b0d565b60405180910390f35b6100dc6102ff565b6040516100e99190610b6c565b60405180910390f35b61010c60048036038101906101079190610be6565b610324565b6040516101199190610c3e565b60405180910390f35b61012a610411565b6040516101379190610c66565b60405180910390f35b61015a60048036038101906101559190610c7f565b610417565b6040516101679190610c3e565b60405180910390f35b61017861056d565b6040516101859190610cea565b60405180910390f35b6101a860048036038101906101a39190610be6565b61057f565b005b6101c460048036038101906101bf9190610d03565b6106e2565b6040516101d19190610c66565b60405180910390f35b6101e26106f7565b6040516101ef9190610b0d565b60405180910390f35b610212600480360381019061020d9190610be6565b610783565b005b61022e60048036038101906102299190610be6565b6108d7565b60405161023b9190610c3e565b60405180910390f35b61025e60048036038101906102599190610d2e565b6108ed565b60405161026b9190610c66565b60405180910390f35b5f805461028090610d99565b80601f01602080910402602001604051908101604052809291908181526020018280546102ac90610d99565b80156102f75780601f106102ce576101008083540402835291602001916102f7565b820191905f5260205f20905b8154815290600101906020018083116102da57829003601f168201915b505050505081565b60065f9054906101000a900473ffffffffffffffffffffffffffffffffffffffff1681565b5f8160055f3373ffffffffffffffffffffffffffffffffffffffff1673ffffffffffffffffffffffffffffffffffffffff1681526020019081526020015f205f8573ffffffffffffffffffffffffffffffffffffffff1673ffffffffffffffffffffffffffffffffffffffff1681526020019081526020015f20819055508273ffffffffffffffffffffffffffffffffffffffff163373ffffffffffffffffffffffffffffffffffffffff167f8c5be1e5ebec7d5bd14f71427d1e84f3dd0314c0f7b2291e5b200ac8c7c3b925846040516103ff9190610c66565b60405180910390a36001905092915050565b60035481565b5f8060055f8673ffffffffffffffffffffffffffffffffffffffff1673ffffffffffffffffffffffffffffffffffffffff1681526020019081526020015f205f3373ffffffffffffffffffffffffffffffffffffffff1673ffffffffffffffffffffffffffffffffffffffff1681526020019081526020015f20549050828110156104d7576040517f08c379a00000000000000000000000000000000000000000000000000000000081526004016104ce90610e13565b60405180910390fd5b82810360055f8773ffffffffffffffffffffffffffffffffffffffff1673ffffffffffffffffffffffffffffffffffffffff1681526020019081526020015f205f3373ffffffffffffffffffffffffffffffffffffffff1673ffffffffffffffffffffffffffffffffffffffff1681526020019081526020015f208190555061056185858561090d565b60019150509392505050565b60025f9054906101000a900460ff1681565b60065f9054906101000a900473ffffffffffffffffffffffffffffffffffffffff1673ffffffffffffffffffffffffffffffffffffffff163373ffffffffffffffffffffffffffffffffffffffff161461060e576040517f08c379a000000000000000000000000000000000000000000000000000000000815260040161060590610e7b565b60405180910390fd5b8060035f82825461061f9190610ec6565b925050819055508060045f8473ffffffffffffffffffffffffffffffffffffffff1673ffffffffffffffffffffffffffffffffffffffff1681526020019081526020015f205f8282546106729190610ec6565b925050819055508173ffffffffffffffffffffffffffffffffffffffff165f73ffffffffffffffffffffffffffffffffffffffff167fddf252ad1be2c89b69c2b068fc378daa952ba7f163c4a11628f55a4df523b3ef836040516106d69190610c66565b60405180910390a35050565b6004602052805f5260405f205f915090505481565b6001805461070490610d99565b80601f016020809104026020016040519081016040528092919081815260200182805461073090610d99565b801561077b5780601f106107525761010080835404028352916020019161077b565b820191905f5260205f20905b81548152906001019060200180831161075e57829003601f168201915b505050505081565b8060045f8473ffffffffffffffffffffffffffffffffffffffff1673ffffffffffffffffffffffffffffffffffffffff1681526020019081526020015f20541015610803576040517f08c379a00000000000000000000000000000000000000000000000000000000081526004016107fa90610f43565b60405180910390fd5b8060045f8473ffffffffffffffffffffffffffffffffffffffff1673ffffffffffffffffffffffffffffffffffffffff1681526020019081526020015f205f82825461084f9190610f61565b925050819055508060035f8282546108679190610f61565b925050819055505f73ffffffffffffffffffffffffffffffffffffffff168273ffffffffffffffffffffffffffffffffffffffff167fddf252ad1be2c89b69c2b068fc378daa952ba7f163c4a11628f55a4df523b3ef836040516108cb9190610c66565b60405180910390a35050565b5f6108e333848461090d565b6001905092915050565b6005602052815f5260405f20602052805f5260405f205f91509150505481565b8060045f8573ffffffffffffffffffffffffffffffffffffffff1673ffffffffffffffffffffffffffffffffffffffff1681526020019081526020015f2054101561098d576040517f08c379a000000000000000000000000000000000000000000000000000000000815260040161098490610f43565b60405180910390fd5b8060045f8573ffffffffffffffffffffffffffffffffffffffff1673ffffffffffffffffffffffffffffffffffffffff1681526020019081526020015f205f8282546109d99190610f61565b925050819055508060045f8473ffffffffffffffffffffffffffffffffffffffff1673ffffffffffffffffffffffffffffffffffffffff1681526020019081526020015f205f828254610a2c9190610ec6565b925050819055508173ffffffffffffffffffffffffffffffffffffffff168373ffffffffffffffffffffffffffffffffffffffff167fddf252ad1be2c89b69c2b068fc378daa952ba7f163c4a11628f55a4df523b3ef83604051610a909190610c66565b60405180910390a3505050565b5f81519050919050565b5f82825260208201905092915050565b8281835e5f83830152505050565b5f601f19601f8301169050919050565b5f610adf82610a9d565b610ae98185610aa7565b9350610af9818560208601610ab7565b610b0281610ac5565b840191505092915050565b5f6020820190508181035f830152610b258184610ad5565b905092915050565b5f73ffffffffffffffffffffffffffffffffffffffff82169050919050565b5f610b5682610b2d565b9050919050565b610b6681610b4c565b82525050565b5f602082019050610b7f5f830184610b5d565b92915050565b5f80fd5b610b9281610b4c565b8114610b9c575f80fd5b50565b5f81359050610bad81610b89565b92915050565b5f819050919050565b610bc581610bb3565b8114610bcf575f80fd5b50565b5f81359050610be081610bbc565b92915050565b5f8060408385031215610bfc57610bfb610b85565b5b5f610c0985828601610b9f565b9250506020610c1a85828601610bd2565b9150509250929050565b5f8115159050919050565b610c3881610c24565b82525050565b5f602082019050610c515f830184610c2f565b92915050565b610c6081610bb3565b82525050565b5f602082019050610c795f830184610c57565b92915050565b5f805f60608486031215610c9657610c95610b85565b5b5f610ca386828701610b9f565b9350506020610cb486828701610b9f565b9250506040610cc586828701610bd2565b9150509250925092565b5f60ff82169050919050565b610ce481610ccf565b82525050565b5f602082019050610cfd5f830184610cdb565b92915050565b5f60208284031215610d1857610d17610b85565b5b5f610d2584828501610b9f565b91505092915050565b5f8060408385031215610d4457610d43610b85565b5b5f610d5185828601610b9f565b9250506020610d6285828601610b9f565b9150509250929050565b7f4e487b71000000000000000000000000000000000000000000000000000000005f52602260045260245ffd5b5f6002820490506001821680610db057607f821691505b602082108103610dc357610dc2610d6c565b5b50919050565b7f4d6f636b555344543a20696e73756666696369656e7420616c6c6f77616e63655f82015250565b5f610dfd602083610aa7565b9150610e0882610dc9565b602082019050919050565b5f6020820190508181035f830152610e2a81610df1565b9050919050565b7f4d6f636b555344543a206e6f74206d696e7465720000000000000000000000005f82015250565b5f610e65601483610aa7565b9150610e7082610e31565b602082019050919050565b5f6020820190508181035f830152610e9281610e59565b9050919050565b7f4e487b71000000000000000000000000000000000000000000000000000000005f52601160045260245ffd5b5f610ed082610bb3565b9150610edb83610bb3565b9250828201905080821115610ef357610ef2610e99565b5b92915050565b7f4d6f636b555344543a20696e73756666696369656e742062616c616e636500005f82015250565b5f610f2d601e83610aa7565b9150610f3882610ef9565b602082019050919050565b5f6020820190508181035f830152610f5a81610f21565b9050919050565b5f610f6b82610bb3565b9150610f7683610bb3565b9250828203905081811115610f8e57610f8d610e99565b5b9291505056fea2646970667358221220c98ae2f1a225e91d7ac85bd168cdef225d47e73e330cc4fab8895a3902d82e9c64736f6c634300081a0033","linkReferences":{}},"methodIdentifiers":{"allowance(address,address)":"dd62ed3e","approve(address,uint256)":"095ea7b3","balanceOf(address)":"70a08231","burn(address,uint256)":"9dc29fac","decimals()":"313ce567","mint(address,uint256)":"40c10f19","minter()":"07546172","name()":"06fdde03","symbol()":"95d89b41","totalSupply()":"18160ddd","transfer(address,uint256)":"a9059cbb","transferFrom(address,address,uint256)":"23b872dd"},"id":17}