{"abi":[{"type":"constructor","inputs":[{"name":"_nexusRegistry","type":"address","internalType":"address"},{"name":"_stablecoin","type":"address","internalType":"address"}],"stateMutability":"nonpayable"},{"type":"function","name":"BASIS_POINTS","inputs":[],"outputs":[{"name":"","type":"uint256","internalType":"uint256"}],"stateMutability":"view"},{"type":"function","name":"NEXUS_REGISTRY","inputs":[],"outputs":[{"name":"","type":"address","internalType":"contract INexusRegistry"}],"stateMutability":"view"},{"type":"function","name":"PREMIUM_RATE_BPS","inputs":[],"outputs":[{"name":"","type":"uint256","internalType":"uint256"}],"stateMutability":"view"},{"type":"function","name":"STABLECOIN","inputs":[],"outputs":[{"name":"","type":"address","internalType":"contract IMockUSDT"}],"stateMutability":"view"},{"type":"function","name":"calculatePremium","inputs":[{"name":"coverageAmount","type":"uint256","internalType":"uint256"}],"outputs":[{"name":"","type":"uint256","internalType":"uint256"}],"stateMutability":"pure"},{"type":"function","name":"claimPolicy","inputs":[{"name":"policyId","type":"uint256","internalType":"uint256"}],"outputs":[],"stateMutability":"nonpayable"},{"type":"function","name":"getPolicy","inputs":[{"name":"policyId","type":"uint256","internalType":"uint256"}],"outputs":[{"name":"user","type":"address","internalType":"address"},{"name":"tontineId","type":"uint256","internalType":"uint256"},{"name":"coverageAmount","type":"uint256","internalType":"uint256"},{"name":"premiumPaid","type":"uint256","internalType":"uint256"},{"name":"active","type":"bool","internalType":"bool"},{"name":"purchasedAt","type":"uint256","internalType":"uint256"}],"stateMutability":"view"},{"type":"function","name":"getPremiumAmount","inputs":[],"outputs":[{"name":"","type":"uint256","internalType":"uint256"}],"stateMutability":"pure"},{"type":"function","name":"nextPolicyId","inputs":[],"outputs":[{"name":"","type":"uint256","internalType":"uint256"}],"stateMutability":"view"},{"type":"function","name":"policies","inputs":[{"name":"","type":"uint256","internalType":"uint256"}],"outputs":[{"name":"user","type":"address","internalType":"address"},{"name":"tontineId","type":"uint256","internalType":"uint256"},{"name":"coverageAmount","type":"uint256","internalType":"uint256"},{"name":"premiumPaid","type":"uint256","internalType":"uint256"},{"name":"active","type":"bool","internalType":"bool"},{"name":"purchasedAt","type":"uint256","internalType":"uint256"}],"stateMutability":"view"},{"type":"function","name":"purchasePolicy","inputs":[{"name":"tontineId","type":"uint256","internalType":"uint256"}],"outputs":[{"name":"","type":"uint256","internalType":"uint256"}],"stateMutability":"nonpayable"},{"type":"function","name":"userPolicies","inputs":[{"name":"user","type":"address","internalType":"address"},{"name":"index","type":"uint256","internalType":"uint256"}],"outputs":[{"name":"","type":"uint256","internalType":"uint256"}],"stateMutability":"view"},{"type":"function","name":"userPolicyCount","inputs":[{"name":"user","type":"address","internalType":"address"}],"outputs":[{"name":"","type":"uint256","internalType":"uint256"}],"stateMutability":"view"},{"type":"function","name":"userPolicyIds","inputs":[{"name":"","type":"address","internalType":"address"},{"name":"","type":"uint256","internalType":"uint256"}],"outputs":[{"name":"","type":"uint256","internalType":"uint256"}],"stateMutability":"view"},{"type":"function","name":"userPolicyIndex","inputs":[{"name":"","type":"address","internalType":"address"},{"name":"","type":"uint256","internalType":"uint256"}],"outputs":[{"name":"","type":"uint256","internalType":"uint256"}],"stateMutability":"view"},{"type":"event","name":"PolicyClaimed","inputs":[{"name":"policyId","type":"uint256","indexed":true,"internalType":"uint256"},{"name":"user","type":"address","indexed":true,"internalType":"address"},{"name":"amount","type":"uint256","indexed":false,"internalType":"uint256"}],"anonymous":false},{"type":"event","name":"PolicyPurchased","inputs":[{"name":"policyId","type":"uint256","indexed":true,"internalType":"uint256"},{"name":"user","type":"address","indexed":true,"internalType":"address"},{"name":"tontineId","type":"uint256","indexed":true,"internalType":"uint256"},{"name":"premiumPaid","type":"uint256","indexed":false,"internalType":"uint256"},{"name":"coverageAmount","type":"uint256","indexed":false,"internalType":"uint256"}],"anonymous":false},{"type":"error","name":"InsufficientAllowance","inputs":[]},{"type":"error","name":"InvalidTontine","inputs":[]},{"type":"error","name":"NotRegistered","inputs":[]},{"type":"error","name":"PolicyNotActive","inputs":[]},{"type":"error","name":"PolicyNotFound","inputs":[]},{"type":"error","name":"TransferFailed","inputs":[]}],"bytecode":{"object":"0x60c060405234801561000f575f80fd5b506040516114e53803806114e5833981810160405281019061003191906100fe565b8173ffffffffffffffffffffffffffffffffffffffff1660808173ffffffffffffffffffffffffffffffffffffffff16815250508073ffffffffffffffffffffffffffffffffffffffff1660a08173ffffffffffffffffffffffffffffffffffffffff1681525050505061013c565b5f80fd5b5f73ffffffffffffffffffffffffffffffffffffffff82169050919050565b5f6100cd826100a4565b9050919050565b6100dd816100c3565b81146100e7575f80fd5b50565b5f815190506100f8816100d4565b92915050565b5f8060408385031215610114576101136100a0565b5b5f610121858286016100ea565b9250506020610132858286016100ea565b9150509250929050565b60805160a05161136c6101795f395f818161049901528181610835015281816108a8015261097f01525f81816107c30152610d1d015261136c5ff3fe608060405234801561000f575f80fd5b50600436106100f3575f3560e01c8063880a5c3a11610095578063c1260c9a11610064578063c1260c9a146102b0578063cad0b8db146102e0578063d3e89483146102fe578063e1f1c4a714610333576100f3565b8063880a5c3a1461022657806393a3977614610244578063a90e3f7b14610262578063b6e283e114610280576100f3565b80633d36adc5116100d15780633d36adc5146101785780633d558dd9146101a857806348f54f03146101c657806376c3565d146101f6576100f3565b80631ed4dea4146100f75780632aea118d146101275780632b07fce314610143575b5f80fd5b610111600480360381019061010c9190610e49565b610351565b60405161011e9190610e8c565b60405180910390f35b610141600480360381019061013c9190610ecf565b61039a565b005b61015d60048036038101906101589190610ecf565b61060b565b60405161016f96959493929190610f23565b60405180910390f35b610192600480360381019061018d9190610f82565b610760565b60405161019f9190610e8c565b60405180910390f35b6101b06107c1565b6040516101bd919061101b565b60405180910390f35b6101e060048036038101906101db9190610ecf565b6107e5565b6040516101ed9190610e8c565b60405180910390f35b610210600480360381019061020b9190610f82565b610808565b60405161021d9190610e8c565b60405180910390f35b61022e610828565b60405161023b9190610e8c565b60405180910390f35b61024c610833565b6040516102599190611054565b60405180910390f35b61026a610857565b6040516102779190610e8c565b60405180910390f35b61029a60048036038101906102959190610f82565b61085d565b6040516102a79190610e8c565b60405180910390f35b6102ca60048036038101906102c59190610ecf565b610888565b6040516102d79190610e8c565b60405180910390f35b6102e8610cad565b6040516102f59190610e8c565b60405180910390f35b61031860048036038101906103139190610ecf565b610cb3565b60405161032a96959493929190610f23565b60405180910390f35b61033b610d15565b6040516103489190610e8c565b60405180910390f35b5f60025f8373ffffffffffffffffffffffffffffffffffffffff1673ffffffffffffffffffffffffffffffffffffffff1681526020019081526020015f20805490509050919050565b5f805f8381526020019081526020015f2090505f73ffffffffffffffffffffffffffffffffffffffff16815f015f9054906101000a900473ffffffffffffffffffffffffffffffffffffffff1673ffffffffffffffffffffffffffffffffffffffff1603610434576040517f720caa4f00000000000000000000000000000000000000000000000000000000815260040160405180910390fd5b806004015f9054906101000a900460ff1661047b576040517f8966b51f00000000000000000000000000000000000000000000000000000000815260040160405180910390fd5b5f816004015f6101000a81548160ff0219169083151502179055505f7f000000000000000000000000000000000000000000000000000000000000000073ffffffffffffffffffffffffffffffffffffffff1663a9059cbb835f015f9054906101000a900473ffffffffffffffffffffffffffffffffffffffff1684600201546040518363ffffffff1660e01b815260040161051892919061106d565b6020604051808303815f875af1158015610534573d5f803e3d5ffd5b505050506040513d601f19601f8201168201806040525081019061055891906110be565b905080610591576040517f90b8ec1800000000000000000000000000000000000000000000000000000000815260040160405180910390fd5b815f015f9054906101000a900473ffffffffffffffffffffffffffffffffffffffff1673ffffffffffffffffffffffffffffffffffffffff16837f5f2564c1ad353e58b81e7bd6cd0e6b1a3f52f46ab4c59c2cadfbaacc4b2e571684600201546040516105fe9190610e8c565b60405180910390a3505050565b5f805f805f805f805f8981526020019081526020015f206040518060c00160405290815f82015f9054906101000a900473ffffffffffffffffffffffffffffffffffffffff1673ffffffffffffffffffffffffffffffffffffffff1673ffffffffffffffffffffffffffffffffffffffff168152602001600182015481526020016002820154815260200160038201548152602001600482015f9054906101000a900460ff1615151515815260200160058201548152505090505f73ffffffffffffffffffffffffffffffffffffffff16815f015173ffffffffffffffffffffffffffffffffffffffff160361072d576040517f720caa4f00000000000000000000000000000000000000000000000000000000815260040160405180910390fd5b805f015181602001518260400151836060015184608001518560a001519650965096509650965096505091939550919395565b5f60025f8473ffffffffffffffffffffffffffffffffffffffff1673ffffffffffffffffffffffffffffffffffffffff1681526020019081526020015f2082815481106107b0576107af6110e9565b5b905f5260205f200154905092915050565b7f000000000000000000000000000000000000000000000000000000000000000081565b5f6127106101f4836107f79190611143565b61080191906111b1565b9050919050565b6003602052815f5260405f20602052805f5260405f205f91509150505481565b5f6302faf080905090565b7f000000000000000000000000000000000000000000000000000000000000000081565b6101f481565b6002602052815f5260405f208181548110610876575f80fd5b905f5260205f20015f91509150505481565b5f610891610d1b565b5f633b9aca0090505f6108a3826107e5565b90505f7f000000000000000000000000000000000000000000000000000000000000000073ffffffffffffffffffffffffffffffffffffffff1663dd62ed3e33306040518363ffffffff1660e01b81526004016109019291906111e1565b602060405180830381865afa15801561091c573d5f803e3d5ffd5b505050506040513d601f19601f82011682018060405250810190610940919061121c565b90508181101561097c576040517f13be252b00000000000000000000000000000000000000000000000000000000815260040160405180910390fd5b5f7f000000000000000000000000000000000000000000000000000000000000000073ffffffffffffffffffffffffffffffffffffffff166323b872dd3330866040518463ffffffff1660e01b81526004016109da93929190611247565b6020604051808303815f875af11580156109f6573d5f803e3d5ffd5b505050506040513d601f19601f82011682018060405250810190610a1a91906110be565b905080610a53576040517f90b8ec1800000000000000000000000000000000000000000000000000000000815260040160405180910390fd5b5f60015f815480929190610a669061127c565b9190505590506040518060c001604052803373ffffffffffffffffffffffffffffffffffffffff168152602001888152602001868152602001858152602001600115158152602001428152505f808381526020019081526020015f205f820151815f015f6101000a81548173ffffffffffffffffffffffffffffffffffffffff021916908373ffffffffffffffffffffffffffffffffffffffff1602179055506020820151816001015560408201518160020155606082015181600301556080820151816004015f6101000a81548160ff02191690831515021790555060a0820151816005015590505060025f3373ffffffffffffffffffffffffffffffffffffffff1673ffffffffffffffffffffffffffffffffffffffff1681526020019081526020015f2081908060018154018082558091505060019003905f5260205f20015f9091909190915055600160025f3373ffffffffffffffffffffffffffffffffffffffff1673ffffffffffffffffffffffffffffffffffffffff1681526020019081526020015f2080549050610bfe91906112c3565b60035f3373ffffffffffffffffffffffffffffffffffffffff1673ffffffffffffffffffffffffffffffffffffffff1681526020019081526020015f205f8381526020019081526020015f2081905550863373ffffffffffffffffffffffffffffffffffffffff16827f377904bad423a6ba6d312d0aec8f4e6ff68cc78a99aa124259f57ecb7d0623668789604051610c989291906112f6565b60405180910390a48095505050505050919050565b60015481565b5f602052805f5260405f205f91509050805f015f9054906101000a900473ffffffffffffffffffffffffffffffffffffffff1690806001015490806002015490806003015490806004015f9054906101000a900460ff16908060050154905086565b61271081565b7f000000000000000000000000000000000000000000000000000000000000000073ffffffffffffffffffffffffffffffffffffffff1663c3c5a547306040518263ffffffff1660e01b8152600401610d74919061131d565b602060405180830381865afa158015610d8f573d5f803e3d5ffd5b505050506040513d601f19601f82011682018060405250810190610db391906110be565b610de9576040517faba4733900000000000000000000000000000000000000000000000000000000815260040160405180910390fd5b565b5f80fd5b5f73ffffffffffffffffffffffffffffffffffffffff82169050919050565b5f610e1882610def565b9050919050565b610e2881610e0e565b8114610e32575f80fd5b50565b5f81359050610e4381610e1f565b92915050565b5f60208284031215610e5e57610e5d610deb565b5b5f610e6b84828501610e35565b91505092915050565b5f819050919050565b610e8681610e74565b82525050565b5f602082019050610e9f5f830184610e7d565b92915050565b610eae81610e74565b8114610eb8575f80fd5b50565b5f81359050610ec981610ea5565b92915050565b5f60208284031215610ee457610ee3610deb565b5b5f610ef184828501610ebb565b91505092915050565b610f0381610e0e565b82525050565b5f8115159050919050565b610f1d81610f09565b82525050565b5f60c082019050610f365f830189610efa565b610f436020830188610e7d565b610f506040830187610e7d565b610f5d6060830186610e7d565b610f6a6080830185610f14565b610f7760a0830184610e7d565b979650505050505050565b5f8060408385031215610f9857610f97610deb565b5b5f610fa585828601610e35565b9250506020610fb685828601610ebb565b9150509250929050565b5f819050919050565b5f610fe3610fde610fd984610def565b610fc0565b610def565b9050919050565b5f610ff482610fc9565b9050919050565b5f61100582610fea565b9050919050565b61101581610ffb565b82525050565b5f60208201905061102e5f83018461100c565b92915050565b5f61103e82610fea565b9050919050565b61104e81611034565b82525050565b5f6020820190506110675f830184611045565b92915050565b5f6040820190506110805f830185610efa565b61108d6020830184610e7d565b9392505050565b61109d81610f09565b81146110a7575f80fd5b50565b5f815190506110b881611094565b92915050565b5f602082840312156110d3576110d2610deb565b5b5f6110e0848285016110aa565b91505092915050565b7f4e487b71000000000000000000000000000000000000000000000000000000005f52603260045260245ffd5b7f4e487b71000000000000000000000000000000000000000000000000000000005f52601160045260245ffd5b5f61114d82610e74565b915061115883610e74565b925082820261116681610e74565b9150828204841483151761117d5761117c611116565b5b5092915050565b7f4e487b71000000000000000000000000000000000000000000000000000000005f52601260045260245ffd5b5f6111bb82610e74565b91506111c683610e74565b9250826111d6576111d5611184565b5b828204905092915050565b5f6040820190506111f45f830185610efa565b6112016020830184610efa565b9392505050565b5f8151905061121681610ea5565b92915050565b5f6020828403121561123157611230610deb565b5b5f61123e84828501611208565b91505092915050565b5f60608201905061125a5f830186610efa565b6112676020830185610efa565b6112746040830184610e7d565b949350505050565b5f61128682610e74565b91507fffffffffffffffffffffffffffffffffffffffffffffffffffffffffffffffff82036112b8576112b7611116565b5b600182019050919050565b5f6112cd82610e74565b91506112d883610e74565b92508282039050818111156112f0576112ef611116565b5b92915050565b5f6040820190506113095f830185610e7d565b6113166020830184610e7d565b9392505050565b5f6020820190506113305f830184610efa565b9291505056fea26469706673582212200ec85b813570328357c4ad3fe53da0b95d9edbac7b1c5e78e7b7c23dd4d41aa564736f6c634300081a0033","linkReferences":{}},"methodIdentifiers":{"BASIS_POINTS()":"e1f1c4a7","NEXUS_REGISTRY()":"3d558dd9","PREMIUM_RATE_BPS()":"a90e3f7b","STABLECOIN()":"93a39776","calculatePremium(uint256)":"48f54f03","claimPolicy(uint256)":"2aea118d","getPolicy(uint256)":"2b07fce3","getPremiumAmount()":"880a5c3a","nextPolicyId()":"cad0b8db","policies(uint256)":"d3e89483","purchasePolicy(uint256)":"c1260c9a","userPolicies(address,uint256)":"3d36adc5","userPolicyCount(address)":"1ed4dea4","userPolicyIds(address,uint256)":"b6e283e1","userPolicyIndex(address,uint256)":"76c3565d"},"id":17}